:020000040800F2
:1000000000000220A1030008F10300082D110008E0
:10001000F1030008F1030008F103000800000000EC
:10002000000000000000000000000000F1030008D4
:10003000F103000800000000F10300081D11000892
:10004000F1030008F1030008F1030008F1030008C0
:10005000F1030008F1030008F1030008F1030008B0
:10006000F1030008F1030008F10300081D05000872
:1000700029050008F10300083505000841050008BE
:10008000F1030008F1030008F1030008F103000880
:10009000F1030008F1030008F1030008F103000870
:1000A000F1030008F1030008F1030008F103000860
:1000B000F1030008F1030008F1030008F103000850
:1000C000F1030008F1030008F1030008F103000840
:1000D000F1030008F1030008F1030008F103000830
:1000E000F1030008F103000800000000F10300081C
:1000F000F1030008F1030008F1030008F103000810
:10010000F1030008F1030008F1030008F1030008FF
:10011000F1030008F1030008F1030008F1030008EF
:10012000F1030008F1030008F1030008F1030008DF
:10013000F1030008F1030008F1030008F1030008CF
:1001400000000000000000000000000000000000AF
:10015000F1030008F1030008F1030008F1030008AF
:10016000F1030008F1030008F1030008F10300089F
:10017000F1030008F1030008F1030008F10300088F
:10018000F1030008F1030008F1030008F10300087F
:10019000F1030008F1030008F1030008F10300086F
:1001A000F1030008F1030008F1030008F10300085F
:1001B000A50C0008F1030008F1030008F103000892
:1001C000F1030008F1030008F1030008F10300083F
:1001D000F1030008F1030008F1030008F10300082F
:1001E000F1030008F1030008F1030008F10300081F
:1001F000F1030008F1030008F1030008F10300080F
:10020000F1030008F1030008F1030008F1030008FE
:10021000F1030008F1030008F1030008F1030008EE
:10022000F1030008F1030008F103000800000000DA
:10023000F1030008F103000800000000F1030008CA
:10024000F1030008F1030008F1030008F1030008BE
:10025000F1030008F1030008F1030008F1030008AE
:10026000F1030008F1030008F1030008F10300089E
:10027000F1030008F1030008F1030008000000008A
:10028000F1030008F1030008F1030008000000007A
:0802900000000000F10300086A
:1002980010B5054C237833B9044B13B10448AFF3B8
:1002A80000800123237010BD180000240000000006
:1002B8009802000808B5034B1BB103490348AFF384
:1002C800008008BD000000001C00002498020008FF
:1002D80030B4194C0022194BD4F88810184841F44E
:1002E8007001184DC4F888101C68174944F00104BF
:1002F8001C601A611C68204018609A61DA611A62F1
:100308009A62DA621A635A639A63DA631A645A64FD
:10031800186820F4802018601A662B681940B1F11B
:10032800005F02D2094B01221A60034B4FF00062B2
:1003380030BC9A60704700BF00ED00E000440258EE
:100348007FEDF6EA0010005C0000FFFF0881005115
:10035800704700BF094810B500F048F80748012465
:1003680000F0B4F82146054800F0CAF84FF4FA70D6
:1003780084F0010400F046FFF4E700BF34000024D5
:10038800024A0349034806F081B900BF000000246F
:100398005903000834000024DFF834D0002103E0BA
:1003A8000C4B5B58435004310B480C4B42189A4293
:1003B800F6D30B4A02E0002342F8043B094B9A4269
:1003C800F9D3FFF785FF06F075F9FFF7C3FF70470C
:1003D80000000220D4670008000000241400002454
:1003E80018000024AC170024FEE70000F8B5044606
:1003F80003232B4D40F6033C84F82F3004F12407E7
:10040800284B0626284AC4F8313003F100732748E0
:1004180003F54073264925600125C4F83530254B7E
:1004280062604FF48072A0600020E1603021C4F85F
:100438003930214BA284C4F83D30C4F841C0A761CB
:1004480084F8275084F8295084F82B0084F82D006C
:1004580061612674194FC4E9070000F08FF9284636
:100468003021174D00F08AF9164B4FF4A060022195
:1004780040F20712E365A4F860004FF4877312484E
:1004880084F86760C4F84570C4F84950C4F84D0052
:1004980084F86310A4F86420A4F86830F8BD00BF9D
:1004A80000070500040204040105080509050705FD
:1004B80006050A06040300010609000200010801F6
:1004C800090101070001000404010B0110B50446ED
:1004D80000F02AFE204600F0E7FBE01C00F064F97B
:1004E80004F1630001F02AFB04F1670001F026FB28
:1004F80004F1140000F026F8BDE8104001F05CBBE0
:10050800633001F047BB00BF0B4692000146184616
:1005180006F0F4B8014805F04BBA00BF681400248F
:10052800014805F045BA00BFE0140024014805F071
:100538003FBA00BF58150024014805F039BA00BF7A
:10054800C01200242DE9F0470646814C814D88B041
:10055800814AD0E90030C4F82468802BC5F82468A3
:10056800077828BF802390F80B9090F80C80C4F887
:100578001038C5F81038C378226084F81C3803791D
:100588002A6085F81C3801F087F8B06808B100F0D7
:100598003BFEF06808B100F037FED5F810184FF0B0
:1005A800020E6E4A17F0FD0F0191D4F8101802F5EB
:1005B80000606B4B01FA0EFA0199AB6003F500631A
:1005C80001FA0EF1E260A060C4F818A8EB60C5F863
:1005D800181884F81EE885F81EE82ED1F14584F82D
:1005E8001D9800F08A80B9F1030F76D0B9F1010F98
:1005F8007DD0914600F2FF7340F6FE72A3EB09032B
:10060800934240F28C804FF40062002106F084F897
:1006180048464FF40062002106F07EF84FF400725D
:100628000021504806F078F84FF4007200214E4837
:1006380006F072F80023C4F814387B1E012B10D979
:1006480000274A484FF4804201230024077002A97A
:1006580047480594CDE9022304F002FD08B0BDE83F
:10066800F087B8F1010F85F81D8854D0B8F1020F52
:100678000AD171681023F0684BF68032897AB1FA92
:1006880081F1490905F0F6FDA86840F6FE72ED68AB
:1006980000F2FF735B1B93424ED94FF400620021B6
:1006A80006F03AF828464FF40062002106F034F8C4
:1006B8004FF4007200212F48A7F1020706F02CF82A
:1006C8004FF4007200212C4806F026F8B7FA87F795
:1006D80000237F09C4F81438B3E740F60133ADF8B6
:1006E8000830029805F0CCFED4E9020982E7B06828
:1006F80005F080FDD4E902097CE7716810234BF608
:100708008032B068497AB1FA81F1490905F0B2FD41
:10071800D4E902096EE7F06805F06CFDB4E7031F41
:10072800A9F1040200F2FC70002143F8041F83427F
:1007380042F8041FF9D171E7031F2A1F00F2FC7069
:10074800002143F8041F984242F8041FF9D1AFE78B
:10075800A0000024C808002411050008000000308B
:1007680000100030B0000024B0040024F010002471
:1007780000180258D8080024D80C002468B9084B7F
:10078800802993F81E2828BF8021C3F8101801FB80
:1007980002F14900C3F818187047024BF0E700BF90
:1007A800A0000024C80800242DE9F04FA44C0346FB
:1007B800ABB0204623655F7893F8008001F036FFE0
:1007C800E8B9012F4FF001059E49034614BF4FF4C5
:1007D80080124FF40002E060A560C4E9001592FAA7
:1007E800A2F2B2FA82F24FF48076E0612046013A32
:1007F8002362C4E9042601F0ADFE034618B10120C6
:100808002BB0BDE8F08F4FF0660C41F288322046DD
:100818000EA91496179313931B93CDF838C0CDE9FE
:100828001533CDE9193301F01FFF0028E7D19923CB
:1008380041F288320EA920460E9301F015FF0028D8
:10084800DDD14FF0000B4FF0010C4FF0050A4FF0CF
:100858008079249008AA21901CA9299041F2883314
:10086800CDF870A0CDF89490CDE908BC4FF0100BEE
:100878004FF0010CCDE90ABC4FF0000B4FF4800C8F
:10088800CDE92260CDE927002046CDE90CBC02F075
:1008980057F80028B3D1ADF808001390CDE91460DB
:1008A800CDE91609CDE91850CDE91A00002F00F05E
:1008B800CB80F023ADF80830C02341F288320EA96E
:1008C8005F480E9301F0D0FE002898D141F288329B
:1008D8005B4802A901F032FF044600288FD10026A8
:1008E80001274FF480754FF080794FF0000A4FF4DC
:1008F800800B219441F28833299408AA1CA95048F6
:100908002295CDF89490CDE90867CDE923441026C7
:100918000127CDE927440524CDE90A671C94CDE9D0
:100928000CAB02F00DF800287FF469AF0124062310
:100938008DF8070041F2883213901CA91B90219072
:1009480029900E941C93CDE91450CDE91609CDE9F0
:100958001900CDE92250CDE92400CDE92700384817
:1009680001F082FE00287FF44AAF102601270520F7
:1009780041F2883308AA1CA91C903148CDF89490FC
:10098800CDE90A6702260227CDE90CABCDE9086755
:1009980001F0D6FF00287FF432AF41F288320EA969
:1009A800274801F061FE00287FF429AF402341F277
:1009B80088320DF1070122488DF8073001F0BEFE9C
:1009C80000287FF41CAF10260127052002AA41F257
:1009D80088330EA90E901A48CDF85C90CDE90467CB
:1009E80040264027CDE906ABCDE9026701F0A8FF14
:1009F800064600287FF403AF22950025219605209E
:100A0800299601271C9008AA41F288331CA90C4892
:100A1800CDF89490CDE92366CDE927660126CDE986
:100A280008561026CDE90CABCDE90A6701F088FF1E
:100A380000287FF4E4AEB8F1000F50D00020DFE6C4
:100A4800F410002400500052612341F288320EA9AC
:100A580020460E9301F008FE00287FF4D0AE41F244
:100A6800883202A9204601F0E7FE00287FF4C7AECD
:100A7800BDF808300625259041F2883223F0780326
:100A8800219029901CA943F0400322961C95ADF8AB
:100A98000830CDE92300CDE92700204601F0E4FD28
:100AA80000287FF4ACAE1026012720460225022438
:100AB80041F2883308AA1CA9CDF870A0CDF894900B
:100AC800CDE90A6700264FF48007CDE90845CDE94E
:100AD8000C6701F035FF00283FF4EEAE8FE6EB24FB
:100AE800A0264FF4005706251C9400244FF0805090
:100AF80000234FF480784FF4406929900EAA1CA96E
:100B08000C48CDE91E67CDE920454FF440464FF02B
:100B1800407700240025CDE92733CDE92289CDE9A6
:100B28002467CDE90E4501F07FFF003818BF01208A
:100B380066E600BFF41000243E4B02682DE9F0473A
:100B48009A428CB04FF00005CDE90755CDE909551B
:100B58000B9502D00CB0BDE8F087374B0226374919
:100B680005AFD3F8D420B146DFF8D4A04FF003087E
:100B780042F48042C3F8D420D3F8D42002F480424F
:100B88000092009AD3F8E02042F04002C3F8E02037
:100B9800D3F8E02002F040020192019AD3F8E02055
:100BA80042F02002C3F8E020D3F8E02002F020024F
:100BB8000292029AD3F8E02042F01002C3F8E02033
:100BC800D3F8E02002F010020392039AD3F8E02051
:100BD8003243C3F8E020D3F8E03033400493049B59
:100BE80003C90590ADF81810DAF8504034440236BD
:100BF800204601F031F8034620461C4601F034F83F
:100C080017F8013B024607A920460B93CDE90729AF
:100C1800CDE9095804F024FA0E2EE5D100225C2013
:100C2800114601F051F85C2001F088F80CB0BDE8DD
:100C3800F08700BF00500052004402585067000877
:100C4800F4100024124B02689A4200D07047114AEF
:100C5800D2F8D43070B523F4804302250E4EC2F882
:100C6800D430346D2C440235204600F0F5FF03469D
:100C780020461C4600F0F8FF0146204604F014FB0D
:100C88000E2DEED15C20BDE8704001F065B800BFC4
:100C98000050005200440258F4100024014801F0AA
:100CA8004BBF00BFF41000242DE9F043444C8BB037
:100CB800A063037823B1002528460BB0BDE8F08374
:100CC800404A0A230026012762600822089320234D
:100CD80002A9201DC4E90267C4E9042340264FF491
:100CE800C07700224FF40063C4E90667C4E908230B
:100CF8004FF48056002702220723C4E90A67CDE98A
:100D080002230426032200230827CDE90623CDE980
:100D1800046701F09DF8054600284CD14FF0010802
:100D28004FF010090126002702A94FF480520190C4
:100D3800201DCDE902894FF002084FF01009CDE9D6
:100D4800046701F0AFF8642005F03CFA02A94FF4FB
:100D58008052201DCDE90467CDE9028904264FF0B1
:100D680003084FF01009002701F09CF802A94FF47E
:100D78008052201DCDE90467CDE9028901F092F87F
:100D880040F232234FF0010C042601931027019BF7
:100D980002A94FF48052201DCDE904C3CDE90267B2
:100DA80001F080F8201D40F6060101F09BF8284666
:100DB8000BB0BDE8F083012528460BB0BDE8F083F1
:100DC8005011002440410052694A2DE9F04315684A
:100DD8008FB015B10FB0BDE8F083664B01210C242C
:100DE800002611600327D3F8D4204FF683784FF0FC
:100DF800020908A942F480525F48C3F8D420D3F806
:100E0800D42002F480520092009AD3F8E02042F0F5
:100E18001002C3F8E020D3F8E02002F0100201929B
:100E2800019AD3F8E02042F04002C3F8E020D3F85A
:100E3800E02002F040020292029AD3F8E02042F049
:100E48000802C3F8E020D3F8E02002F00802039279
:100E5800039AD3F8E02042F48072C3F8E020D3F874
:100E6800E02002F480720492049AD3F8E02042F061
:100E78008002C3F8E020D3F8E02002F08002059257
:100E8800059AD3F8E02042F02002C3F8E020D3F816
:100E9800E02002F020020692069AD3F8E02042F001
:100EA8000402C3F8E020D3F8E0300C9403F0040304
:100EB8000793079BCDE90A67CDE9088904F0D0F8C4
:100EC80048F23712022308A92C480C94DFF8C08096
:100ED800CDE90A67CDE9082304F0C2F84CF20372A1
:100EE800022308A926480C94CDE90A67CDE908230E
:100EF80004F0B6F840F2FF62022308A921480C94D6
:100F0800CDE90A67CDE9082304F0AAF84FF60C7278
:100F1800022308A91C480C94CDE90A67CDE90823E7
:100F280004F09EF84FF63F02022308A917480C94D4
:100F3800CDE90823CDE90A6704F092F8D8F838001B
:100F4800013000F089FED8F838300646581C00F009
:100F58008BFE02220746032308A930460C94089703
:100F68000B93CDE9092504F07BF80FB0BDE8F083B9
:100F78004811002400440258001002580018025872
:100F8800000C025800200258001C02580014025895
:100F980050110024000000002DE9F04FCFB04C2282
:100FA80000210AA805F0B8FB2022002102A805F0BC
:100FB800B3FBBC2200211EA805F0AEFB022005F001
:100FC8006BF8514A0021514B01911846D16A21F022
:100FD8000101D162D26A02F0010201929A6942F4D7
:100FE80040429A619B6903F440430193019B8369E2
:100FF8009B04FCD5464A022421204FF48031936A91
:101008000126042523F0030323439362C8230822FF
:101018001096169300231794199415951C93CDE9EF
:101028000A0105210AA8CDE913441891CDE91A232C
:1010380002F084FA00B1FEE73F26032700220823C6
:1010480002A82146CDE90267CDE9042340264023C2
:101058004FF480624027CDE90823CDE9066702F006
:10106800A9FD034600B1FEE780220A2602270025D3
:1010780034924FF4807233948024439200224FF0CC
:1010880054084FF008091EA8CDE93B334FF48053AC
:1010980035934FF4803346930623CDE92267CDE993
:1010A800244540F22716402704242025CDE926238D
:1010B8004FF480620023CDE92867CDE92A45CDE9C0
:1010C8002C230FF23C0BDBE900AB0026022700249F
:1010D800002500224FF44013CDE91EABCDE920894D
:1010E800CDE92E67CDE93045CDE93E2302F074FF06
:1010F80000B1FEE704F0F6FF4FB0BDE8F08F00BF87
:1011080009130F03040000000004005800480258A7
:101118000044025808B505F043F8BDE8084000F05F
:1011280093BE00BFFFBE704770B584B0012505F0BF
:1011380009F80024FFF730FF00F03AFE4FF0405165
:101148002E4A4FF4807368460191ADF80050CDE9FE
:10115800022300F04FFE40F2011119224FF04043E4
:101168006846ADF80E108DF8082001938DF80150EF
:101178008DF80D408DF80A4000F03CFE042000F088
:1011880027FE05F097F9BFF34F8FBFF36F8F1C4B06
:10119800C3F85042BFF34F8FBFF36F8F5A6942F4C1
:1011A80000325A61BFF34F8FBFF36F8FC3F884408B
:1011B800BFF34F8FD3F8801043F6E074C1F34E327B
:1011C800C1F3C901520102EA0405084645EA8076DE
:1011D8000138C3F86062461CF8D1203A12F1200F9A
:1011E800F1D1BFF34F8F5A6942F480325A61BFF38D
:1011F8004F8FBFF36F8F04B070BD00BF0D000103A8
:1012080000ED00E004F0DEBF38B5054600F034FD1F
:1012180004462B78022B3FD0032B35D0012B2BD043
:101228002868214B214A1860A988998022606B7927
:10123800012B18D0022B1CD0C3B100250123204656
:10124800E360A5602562C4E90455C4E9065500F0C9
:1012580013FF2946204601F03DF829462046BDE8FF
:10126800384001F063B8124B6360E6E7114B6360E6
:10127800E3E7114B6360E0E72868104B104A1860F9
:10128800A98899802260D2E728680E4B0E4A186018
:10129800A98899802260CAE728680C4B0C4A186014
:1012A800A98899802260C2E78C110024005400406C
:1012B8003211D0208A62E0301A098010941100247B
:1012C80000580040A4110024001C00589C11002460
:1012D800005C00409C4A0368934230B58FB055D0FB
:1012E8009A4A934200F09C80994A934200F0EE801B
:1012F800984A934201D00FB030BD974B974CD3F822
:10130800E020601C42F00202C3F8E020D3F8E0308D
:1013180003F002030893089B00F09EFC0546601C3E
:1013280000F0A2FC227812210023012ACDE909014C
:10133800CDE90B3301D804230D9309A9284601915F
:1013480003F08EFE864800F087FC0546844800F0CE
:101358008BFC227800231224012A0199CDE9090483
:10136800CDE90B3301D804230D93284603F078FE0A
:10137800794BD3F8F42042F08002C3F8F420D3F874
:10138800F43003F080030993099BB4E7724B754C62
:10139800D3F8E020601C42F00202C3F8E020D3F842
:1013A800E03003F002030293029B00F055FC05466F
:1013B800601C00F059FC227812210023012ACDE993
:1013C8000901CDE90B3301D804230D9309A9284657
:1013D800019103F045FE644800F03EFC0546624872
:1013E80000F042FC227800231224012A0199CDE959
:1013F8000904CDE90B3301D804230D93284603F0E3
:101408002FFE554BD3F8E82042F40012C3F8E82029
:10141800D3F8E83003F400130393039B0FB030BDF7
:101428004D4B524CD3F8E020601C42F08002C3F8C8
:10143800E020D3F8E02002F080020492049AD3F866
:10144800E02042F00202C3F8E020D3F8E03003F0D5
:1014580002030593059B00F0FFFB0546601C00F0A6
:1014680003FC227812210023012ACDE90901CDE9E4
:101478000B3301D804230D9309A92846019103F0E1
:10148800EFFD3B4800F0E8FB0546394800F0ECFB6F
:10149800227800231224012A0199CDE90904CDE913
:1014A8000B3301D804230D93284603F0D9FD2A4BAA
:1014B800D3F8E82042F48002C3F8E820D3F8E830F3
:1014C80003F480030693069B0FB030BD294C601CC3
:1014D80000F0C2FB0546601C00F0C6FB2278122112
:1014E8000023012ACDE90901CDE90B3301D80423F2
:1014F8000D9309A92846019103F0B2FD1E4800F09A
:10150800ABFB05461C4800F0AFFB227800231224F1
:10151800012A0199CDE90904CDE90B3301D8042347
:101528000D93284603F09CFD0B4BD3F8E82042F4BA
:101538000002C3F8E820D3F8E83003F40003079367
:10154800079B0FB030BD00BF00540040005800405A
:10155800005C0040001C005800440258A4110024FC
:10156800A71100248C1100248F1100249411002449
:10157800971100249C1100249F110024184BF0B5EA
:10158800197983B0012929D0002211460024154871
:1015980002230125144F4BF6803601920091076013
:1015A8000662C461114EC460C0E90135C0E9054452
:1015B800C0E90B4401F07AFD0D4802234461C4617F
:1015C800C46044630660DDE90012C0E90154C0E963
:1015D8000B4403B0BDE8F04001F068BD0222D5E736
:1015E800B411002438130024045C0140245C014039
:1015F8002812002470B5254D82B0E978012936D02B
:1016080000226B7A1146002B35D0012B3AD16B7929
:101618001F48002B0CBF03230223436000244BF612
:101628008036022306628460C461C460C0E9054450
:10163800C0E90B441648CDE9001201F037FDEB79FB
:1016480014480125A3424FF0020344610CBF03264E
:101658000226C4614660C46044638560DDE9001207
:10166800C0E90B4402B0BDE8704001F01FBD6B7AC1
:101678000222002BC9D16B790548B3FA83F35B09C1
:101688004360CBE7024801234360C7E7B411002455
:10169800D0150024D0130024F8B5194F044600F1E2
:1016A800200C3E462068103454F80C1C354654F87B
:1016B800082C103654F8043C64450FC5F2D1237841
:1016C800104A3370104C11493B78114D1460012BAE
:1016D800104804F58064104A0D60104904601160D8
:1016E80005D0022B01D033B1F8BDFFF783FFBDE869
:1016F800F840FFF743BFBDE8F840FFF77BBF00BFE6
:10170800B4110024D015002404580140D01300243B
:10171800245801403813002428120024245C014076
:10172800B14BD3F8E02042F010022DE9F04FC3F896
:10173800E02093B0D3F8E0200446AC4D02F010024C
:101748000092009AD3F8E02042F00202C3F8E020A9
:10175800D3F8E02002F002020192019AD3F8E020C7
:1017680042F04002C3F8E020D3F8E02002F0400243
:101778000292029AD3F8E02042F00802C3F8E0206F
:10178800D3F8E02002F008020392039AD3F8E0208D
:1017980042F00402C3F8E020D3F8E02002F004028B
:1017A8000492049AD3F8E02042F00102C3F8E02042
:1017B800D3F8E02002F001020592059AD3F8E02060
:1017C80042F48072C3F8E020D3F8E010026801F414
:1017D8008071AA4206910699D3F8E01041F0800181
:1017E800C3F8E010D3F8E01001F0800107910799E1
:1017F800D3F8E01041F02001C3F8E010D3F8E0106E
:1018080001F02001089108990CD0794B9A4200F018
:101818000781784B9A423AD0774B9A4275D013B0E9
:10182800BDE8F08F754A1168002900F06E81002527
:10183800DFF8E89101310DF1340809EB450A2F462C
:101848005FFA85FB1160504615B96D4B597AA9B9F5
:1018580000F002FA0646504600F006FA0223014656
:10186800062230461192CDE90D134146CDE90F7796
:1018780003F0F6FBBBF1040F00F00E81013509EB14
:10188800450A5FFA85FB5046002DDED0E0E75D4B48
:101898001A6862B95449D1F8F00040F40000C1F860
:1018A800F000D1F8F01001F400010B910B99616878
:1018B8000132554D4FF4804021F002011A60534A1D
:1018C8004FF4805301294FF059072A604FF4807173
:1018D8000CBF002240226B614FF480660023AA608F
:1018E8004FF40032A8612846EB606B626F602E618E
:1018F800C5E9071203F092FE22683F4BC4F88450F2
:101908009A42AC63C4F8805089D13E4B1A68002AC9
:1019180000F0ED8000253E4E01320DF13408A94655
:101928004FF0020A30465FFA85FB1A60CDB9344B96
:101938009B7A7BB900F090F90746304600F094F99D
:101948000A230D901095CDE90EA53846414611930E
:1019580003F086FB013502365FFA85FB3046002D21
:10196800E5D000F079F90746304600F07DF9BBF183
:10197800020F02464FF00A0341463846CDE90D2AC8
:10198800CDE90F9900F0B180119303F069FBBBF129
:10199800040FDFD163685A221E4D4FF4806623F08E
:1019A80002031D496A604FF48052012B4FF48040B6
:1019B80029604FF480710CBF00234023A86128469A
:1019C800AB600023C5E904624FF40032EB606B6240
:1019D800C5E9071203F022FEC4F88450AC63C4F8CA
:1019E800805013B0BDE8F08F0044025804580140FD
:1019F80024580140045C0140245C0140AC110024DF
:101A0800B4110024B01100245815002458000240D5
:101A1800CB110024C012002470000240C111002420
:101A2800404A136863B94049D1F8F00040F4800097
:101A3800C1F8F000D1F8F01001F480010A910A9978
:101A480061680133394D4FF4804021F00201136081
:101A5800374A4FF4805301294FF058072A604FF452
:101A680080710CBF002240226B614FF48066002316
:101A7800AA604FF40032A86128466F602E61EB60BF
:101A88006B62C5E9071203F0C9FD2268C4F88450E7
:101A9800AC63C4F88050BCE663685722254D4FF408
:101AA800806623F0020324496A604FF48052012BB8
:101AB8004FF4804029604FF480710CBF002340230D
:101AC800A8612846AB600023C5E904624FF40032E0
:101AD800EB606B62C5E9071203F0A0FD2268C4F849
:101AE8008450AC63C4F880508FE608232DE70E4974
:101AF800D1F8F00040F40000C1F8F000D1F8F0107F
:101B080001F400010C910C9904E7D3F8F00040F4BB
:101B18008000C3F8F000D3F8F03003F48003099391
:101B2800099B84E6AC11002400440258E014002408
:101B380028000240681400241000024010B5837881
:101B480086B00446022B22D0032B1ED0012B1CD0BA
:101B580000230293E378012B15D0022B13D0002326
:101B6800039300232046049300F076F803462046AA
:101B78001C4600F079F801A903462046019303F0BA
:101B88006FFA06B010BD0393EBE70293E2E7112367
:101B98000293DFE770B506460D4600F05DF804468F
:101BA800304600F061F82A1E0146204618BF01227F
:101BB800BDE8704003F046BCF0B5194BC827194E74
:101BC80002224FF0804403F10C050021002089B067
:101BD8009A60DC60802200245A620194C3E900679D
:101BE8004FF0FF360027C3E90401C3E9066728461A
:101BF800CDE90444CDE90644CDE9024401F018FBDF
:101C08004FF4805304A92846049301F0A9FB01A9C5
:101C180028460194039401F061FC09B0F0BD00BFAF
:101C2800D8110024400D03000368B3F1804F00D0A1
:101C38007047084B82B0D3F8E82042F00102C3F89D
:101C4800E820D3F8E83003F001030193019B02B0C8
:101C5800704700BF00440258024B027853F8220034
:101C6800704700BF78670008024B427833F81200CB
:101C7800704700BF5867000810B485B00478074B58
:101C88000DF1100C0FCB0CEB84040CE90F0054F889
:101C9800100C05B05DF8044B704700BF30670008B2
:101CA80007490002074BCA6800F4E06010B44FF619
:101CB800FF0422405DF8044B10430343CB60704798
:101CC80000ED00E00000FA05194BDB68C3F30223BE
:101CD80030B4C3F107051C1D042D28BF0425062CAC
:101CE80019D9033B4FF0FF349C4022EA04024FF01D
:101CF800FF34002804FA05F421EA040101FA03F18B
:101D080041EA02010ADB09010A4BC9B2034483F81C
:101D1800001330BC704700221346E8E700F00F00BC
:101D28000901054BC9B20344197630BC704700BF9E
:101D380000ED00E000E100E0FCEC00E0002807DB3B
:101D480000F01F0101234009024A8B4042F820306D
:101D5800704700BF00E100E000280DDB43090122C5
:101D680000F01F000549203302FA00F041F8230073
:101D7800BFF34F8FBFF36F8F704700BF00E100E0E4
:101D88000138B0F1807F0DD2074B0022072130B413
:101D9800F025064C5860104684F823509A60196064
:101DA80030BC70470120704710E000E000ED00E013
:101DB800BFF35F8F044A00200449536A23F4803339
:101DC80053624860704700BF00ED00E090ED00E00E
:101DD800064A40F00100064B5860536A43F48033CA
:101DE8005362BFF34F8FBFF36F8F704700ED00E072
:101DF80090ED00E0124A437893600178E9B14368B6
:101E080070B4D360C37A047B1B06857A867B43EA69
:101E18000473447B0B43017A43EAC543C57B43EA19
:101E28008443447A43EA464343EA054343EA0423A6
:101E380043EA410370BC13617047D1601161704778
:101E480090ED00E0704700BF08B5FFF7FBFF08BD45
:101E580018B338B590F82C300D46044603F0FF024D
:101E6800B3B10223214684F82C3051F8040B04F056
:101E780065FB2946D4E9000204F09CFB084A0121CD
:101E88000020136843F00043136084F82C1038BD19
:101E980080F82D20FEF798FFE3E70120704700BF88
:101EA8000040005270B590F82C300546022BD8B28D
:101EB80004D000F0FB04012C01D0012070BD0223E6
:101EC8000E46286885F82C3004F0C0FB3368022BD6
:101ED80003D0002085F82C4070BD0523002085F82C
:101EE8002C3070BD38B590F82C300446022BD8B28F
:101EF80005D094F82C30012BDDB201D0012038BD7B
:101F08000223206884F82C3004F0B2FB002084F807
:101F18002C5038BD70B504460D4616466A1C236819
:101F28002CD19A69900727D49A69D106F9D59A696C
:101F38009106FCD520221021D961DA619A699007AF
:101F480001D500229A629A69D10703D49A6942F0AE
:101F580001029A615A6800211B4E20250120324057
:101F68005A60636C84F8401043F00403636484F897
:101F7800415084F8421070BD002070BD9A699207E4
:101F8800FAD49A69D0061BD404F016F9801BA8422B
:101F980001D8002DC2D1636C2021002201200B43FF
:101FA80084F84020636484F8411084F8422070BDAE
:101FB80004F002F9801B8542EDD3002DEBD0236895
:101FC80099698A06F4D5B5E700E800FE70B50446BD
:101FD8000D461646236899698A0649D49969CA063E
:101FE80026D5681C38D19A699106FCD52022102183
:101FF800D961DA619A69900701D500229A629A69D3
:10200800D10703D49A6942F001029A615A68002103
:10201800184E2025012032405A60636C84F8401025
:1020280043F00403636484F8415084F8421070BD9F
:1020380004F0C2F8801BA84201D8002DCAD1636CF5
:102048002021002201200B4384F84020636484F897
:10205800411084F8422070BD9A699206C6D404F0F3
:10206800ABF8801B8542EAD3002DE8D02368B8E797
:10207800002070BD00E800FE00284DD0F8B590F8AB
:102088004130044603F0FF02002B40D02421E068D1
:10209800D4E9003284F841100128196822F07062EE
:1020A80021F0010119601A619A6822F400429A60CD
:1020B800A26828D042F4044202289A6002D14FF460
:1020C80000625A605A68002114482027A669104304
:1020D800D4E9042558602A43D868E56942EA06220B
:1020E800266A20F400403543D8600846DA601D604F
:1020F8001A6842F001021A60616484F84170216331
:1021080084F84210F8BD42F400429A60DAE780F899
:102118004020FFF7DFF8B9E7012070470080000290
:102128002DE9F047984690F84130089E202B40F062
:102138008A8090F840300446012B00F08480012307
:102148008946174680F8403004F036F8054604E022
:1021580004F032F8401B192878D82368986910F4DD
:102168000040F5D110222121676284F8411084F8DB
:1021780042206064A4F82A80628D606392B2FF2ACC
:1021880072D8618DC9F309075A68DFF838C189B276
:102198004A4802EA0C025FFA81FC21853A4342EA86
:1021A8000C4210435860DFF824814FF0FF0ADFF833
:1021B8002091638D2A46314620469BB2002B30D0B1
:1021C800FFF7A8FE002875D1606A216810F8012B76
:1021D800238D8A62628D013B6062013A9BB292B2A2
:1021E80023856285628D92B2002BE2D1002AE0D06D
:1021F800701C45D18B691A06FCD5638D9BB2FF2BE9
:102208004AD94B682A46A4F828A0204603EA0803BE
:102218003B4343EA09034B603146638D9BB2002B75
:10222800CED1FFF7D3FE002844D123682021244DC6
:10223800D9615A682A405A6084F8411084F84000ED
:1022480084F8420000E00220BDE8F087636C20219A
:10225800002201200B4384F84020636484F8411075
:1022680084F84220BDE8F0875A68C9F30907154980
:10227800FF200A40144920853A431143596092E7E8
:102288008B691B06B9D403F097FF401B8642DDD348
:10229800002EDBD02168ABE7628D4B6892B203EA6F
:1022A8000803D0B2228543EA00433B4343F000735E
:1022B8004B607EE70120BDE8F08700BF0020008268
:1022C80000E800FE009800FC0020FF81009C00FC54
:1022D8000000FF0190F84120202A21D1034670B464
:1022E800D5B290F84020012A1CD01A682420002674
:1022F80083F841001468304624F00104146014681F
:1023080024F480541460146821431160116841F06A
:102318000101116083F8415083F8406070BC704738
:1023280002207047022070BC704700BF90F841201F
:10233800202A20D1034670B4D6B290F84020012A52
:102348001BD01A682420002583F841001468284609
:1023580024F001041460146824F4706444EA012130
:102368001160116841F00101116083F8416083F840
:10237800405070BC704702207047022070BC704704
:10238800F0B44C6A82B014B1B2F1406F30D18B69AD
:10239800002B34D00E6A002E59D0056823438F686D
:1023A800C869EF61002800F0AE8013430F690C681C
:1023B800B2F1406F43EA0603CE6843EA0003C86AF5
:1023C80043EA0003086B43EA000348690190486B3D
:1023D80043EA0003019843EA070343EA060343EA92
:1023E800040343EA80436B6160D04B68AB615DE0F6
:1023F8008B6A0568013B2B618B69002BCAD10B6A7C
:10240800002B44D0066823438D68C869F56100280D
:1024180069D013434D6B0F69B2F1406F43EA000373
:10242800C86ACC6843EA0003086B43EA00034869BA
:1024380043EA050343EA070343EA040343EA804304
:10244800736133D04B68B36102B0F0BC7047CD699B
:10245800002D6CD023430668CC6AB2F1406F43EA82
:1024680002000F6B4B6B40EA0500CD6840EA0400A0
:102478000C6840EA070040EA03004B6940EA05009F
:1024880040EA040040EA83407061DBD10EE0CB698A
:102498007BB95CB1CB6A00682343D1E90C54134380
:1024A8004A692B43234343EA8243436102B0F0BCA9
:1024B80070472343CC6A0D6BB2F1406F43EA0203C5
:1024C800006843EA04034C6B43EA0503CD6843EA1A
:1024D80004034C6943EA050343EA84434361E5D0B6
:1024E8004B688361E2E7D1E90B0513434C6B034367
:1024F8002B43D1E904022343034343EA8243736134
:1025080002B0F0BC704713434F6B0C6933434A6900
:10251800D1E90B0C0343086843EA0C033B4323430C
:10252800034343EA82436B6102B0F0BC70471C432B
:10253800CE6A006844EA02030C684A693343D1E969
:102548000C753B432B43234343EA8243436102B068
:10255800F0BC7047F8B5044603F02EFE002C55D0A9
:1025680094F84030012B53D00123064684F84030BC
:1025780094F8413003F0FF02002B35D0A76C236894
:10258800A1681A68013922F4706242EA01221A60CD
:1025980001E07A1C32D19D6815F02005F9D1D4E903
:1025A8000716E26828461F680A43616832431D4ED1
:1025B80042EA01623E406169A76932431A4E1A60D5
:1025C80041EA07025F6821693E4042EA014201216F
:1025D80032435A601A680A431A60656484F84110E5
:1025E800002384F84030F8BD204684F84020FEF7E8
:1025F800A3FA41F288331F46A364C0E703F0DCFD69
:10260800801BB84206D82FB12368C4E70120F8BD63
:102618000220F8BD0423012084F84130636C034391
:102628006364DDE72FFFFF00FEF8E0FFC8B110B5D7
:1026380090F840300446012B11D00268012380F83D
:102648004030136823F001031360FEF7FBFA002300
:102658006364184684F8413084F8403010BD022085
:1026680010BD0120704700BF2DE9F04104460D461A
:10267800904603F0A1FD94F84030012B3BD0012394
:1026880084F8403094F84130012BDEB206D002269F
:102698000023304684F84030BDE8F0810022022350
:1026A8000746626484F84130B8F1FF3F23680ED1D1
:1026B8009A6812F02002FBD129462046FFF760FEF7
:1026C8006B6AE3B10123002684F84130E0E79A6899
:1026D80012F020021ED003F06FFDC01B804502D30C
:1026E800B8F1000FE0D1042384F84130636C43F063
:1026F80001036364CCE702263046BDE8F081226816
:1027080093689B07FCD5022101230026D16084F839
:102718004130BDE729462046FFF732FE6B6A43B1D8
:10272800D0E703F049FDC01B8045DCD3B8F1000FAA
:10273800D9D0226893689907F3D5E4E72DE9F843DF
:1027480004468946154603F037FD94F8403027685B
:10275800012B67D0012384F8403094F84130012BD5
:102768005FFA83F807D04FF002080023404684F848
:102778004030BDE8F88300236364B9F1000F56D0F8
:102788001223064684F841303B690133E3623B6912
:10279800C4F824900133A3627B6923F040637B6112
:1027A800E36A002B31D0691C3B4611D19A68520765
:1027B800FCD5636A1B7887F82030E26A636A013ABD
:1027C8000133E262E26A6362F2B1691C2368EDD008
:1027D8009B685807EDD403F0EFFC801B854201D3BA
:1027E800002DF2D1042384F84130636C43F00103D7
:1027F800636413E0BB689B070CD403F0DDFC801B0B
:102808008542EFD3002DEDD02768691CF2D1BB6853
:102818009A07FCD502234FF00008FB60012384F8D7
:102828004130A2E74FF002084046BDE8F883636CE8
:1028380043F00803636498E72DE9F8430446154616
:10284800894603F0B9FC2768BA6994F84030012B2F
:102858006CD0012384F8403094F84130012B5FFAA2
:1028680083F807D04FF002080023404684F8403030
:10287800BDE8F88300236364B9F1000F5BD022231D
:10288800064684F841303B690133A3633B69C4F8C9
:102898003090013363637B6923F0406343F08063C6
:1028A8007B61BA61A36B002B33D0681C3B4612D105
:1028B8009A6812F0060FFBD097F82020236B1A7045
:1028C800A26B236B013A0133A263A26B2363FAB1B3
:1028D800681C2368ECD09B6813F0060FECD103F05A
:1028E8006BFC801B854201D3002DF1D1042384F8B1
:1028F8004130636C43F00103636413E0BB689B07DA
:102908000CD403F059FC801B8542EFD3002DEDD089
:102918002768691CF2D1BB689A07FCD502234FF0DF
:102928000008FB60012384F841309DE74FF002085E
:102938004046BDE8F883636C43F00803636493E79B
:102948002DE9F84304461D460F46164603F034FCAD
:1029580094F84030012B4FD0012384F8403094F88C
:102968004130012B5FFA83F807D04FF002080023AB
:10297800404684F84030BDE8F8830022422381466F
:10298800626484F84130681C236829D19A689106EA
:10299800FCD43268394670689A62B2685862DA6262
:1029A8001A68306922F44002D6F80CC042EA0006E0
:1029B8004FF00062204646F480061E60C7F828C023
:1029C800FFF7DEFC681C22681BD193681907FCD549
:1029D800082101234FF00008D16084F84130C6E790
:1029E8009A689206D5D503F0E7FBA0EB090085426B
:1029F80012D3002DC7D10FE04FF002084046BDE8C2
:102A0800F88393681B07E3D403F0D6FBA0EB090017
:102A1800854201D3002DD5D1042384F84130636C5D
:102A280043F001036364A2E72DE9F84304460F4627
:102A3800904603F0C1FB94F84030012B42D00123AB
:102A480084F8403094F84130012BDEB206D00226DB
:102A58000023304684F84030BDE8F8830022822302
:102A68000546D4F84890626484F84130B9F1FF3FD4
:102A7800226814D193689906FCD41368D8F8041016
:102A880023F00803082943EA010313601ED03946DE
:102A98004FF0406220460026FFF772FCD8E79368A3
:102AA8009B06EAD503F088FB401B814502D3B9F1A8
:102AB800000FDBD1042384F84130636C43F0010339
:102AC8006364C5E702263046BDE8F883D8F80010ED
:102AD80010231163D360136843F480131360D6E79F
:102AE800704700BF08B5006C00238363C36290F889
:102AF8004130082B0BD103680222DA601A6842F4CD
:102B080000321A601A6842F002021A6008BD0123F6
:102B180080F84130FFF7E4FF08BD00BF704700BFF1
:102B2800704700BF704700BF704700BF704700BFC5
:102B3800704700BF704700BF38B5036804469A68FD
:102B4800196855070ED548030CD594F84120122A68
:102B580075D094F84120222A00F0A1802046FFF782
:102B6800E5FF38BD950726D5880324D50222DA600B
:102B78001A6822F4E0221A6094F84120122A7AD0C6
:102B880094F84120222A00F0A98094F84120022AD2
:102B980000F0D08094F84120082AE2D15A69012136
:102BA800204622F040625A6184F84110636C3BBBB6
:102BB800FFF7B4FF38BD150725D4D50735D5C803A9
:102BC80033D50125DD601A6822F470221A60626C20
:102BD80042F0020262641A68520779D51A68E06BFB
:102BE80022F0040257491A60816503F03FFA002871
:102BF800B7D0636C204643F00403636484F8415003
:102C0800FFF76EFF38BD0803D7D50822DA601A68C7
:102C1800520206D51A68012122F410221A6084F89B
:102C280041102046FFF784FF38BDD00699D5CA0267
:102C380097D510222046DA60FFF77CFF38BD9A68E6
:102C480050078BD518460EE0626A127883F8202068
:102C5800E16A20680139626AE16201328168626270
:102C68004D077FF57BAFE26A002AEDD1036823F4B4
:102C78008023036072E71A68510709D51A68E16B67
:102C880022F0040209681A60CB6823F00103CB60C4
:102C98000123204684F84130FFF746FF38BD9A6883
:102CA80052077FF55BAF18460EE093F82010226BB1
:102CB8001170A16B20680139226BA1630132816810
:102CC800226349077FF54AAFA26B002AEDD1CDE711
:102CD800204684F84150FFF703FF38BD1A685207B1
:102CE8001DD49A6812F47C5F0FD111E093F820107C
:102CF800226B1170A16B20680139226BA16301322C
:102D08008168226311F47C5F02D0A26B002AEDD1A6
:102D18000123204684F84130FFF704FF38BD1A68C4
:102D2800E16B22F0040209681A60CB6823F0010302
:102D3800CB60EDE70123204684F84130FFF7F0FE31
:102D480038BD00BFED2A0008B24B016899422DE951
:102D5800F04105461FD0203399421CD003F5787303
:102D6800994259D02033994256D003F57873994245
:102D780000F020812033994200F01C8195F89130B1
:102D8800A54E03F0FF026BB9284685F89020FEF7A0
:102D9800C7FC296806E0A14E95F8913003F0FF02C0
:102DA800002BF1D09E4B9F481B680A68A0FB0303C9
:102DB80022F480321B0B0A609B0023B30C68013B92
:102DC80014F48034F9D1EB680222012B85F89120A4
:102DD80000F01A81934219BF1746032023202227A7
:102DE80015BF4FF0010C4FF0210C00222022AB68D8
:102DF800013B042B00F25781DFE813F0D1001100EA
:102E0800D8001000D400D5F89430012043F04003D6
:102E1800C5F89430BDE8F081834EBDE73A464FF4DB
:102E280000682B6A3260002B44D07A4B994200F03C
:102E380029817E48081AB0FA80F04009002840F03D
:102E480021817B4B994200F017812033994200F091
:102E58001381784B994200F009812033994200F0A0
:102E68000581754B994200F01381744B994200F02B
:102E78001581AB69B3F5002F00F0EE80AB6A00EB6B
:102E880080002A6AB3F1806F4FEA40030CBF022129
:102E9800012102FB01F21202B3FBF2F3684AA2FB22
:102EA8000312D20802EB8201A3EB4103092B08BFEE
:102EB80001326A626B6833F002032B6D40F09F8029
:102EC800012B14BF4FF40074002403F08DF96B68D4
:102ED800B0F5005FD5E9111243EA01037FD31A4325
:102EE800EB6CE96A1A43A8692B680A436969AF6AF7
:102EF8000A431968D5F824C0024352483A430840A7
:102F0800296918600A4319684FF220004E4F0A4396
:102F180042EA0C5242EA080222434C4C1A605968B1
:102F2800EA690C40296B11436A6B5C6011435C6869
:102F38006A6E2143EC6D22432C6E596022439968D6
:102F48006C6D0F40A96D013C01399F6022439C685C
:102F580042EA0122A96E2243EC6E9A6041EA040219
:102F6800D9686C6F0840296F42EA0442294C01393C
:102F7800D860D868A34242EA012242EA0002DA6035
:102F88001AD02D4A934217D000230122C5F8943055
:102F9800184685F8903085F89120BDE8F0814FF407
:102FA80080683EE702464FF400683AE762464FF40D
:102FB800006836E7264EEFE6736C23F0010373646E
:102FC80095F83830012BDFD1D5E90F23013A43EAD0
:102FD80002137364736C43F001037364D4E7E96C00
:102FE8001A4368690A43E96A2B680A43AF69196892
:102FF800024318483A430840D5E909C181E7012B43
:1030080008BF4FF4007460E7132012274FF0110C2B
:103018001022ECE6045801400054005800580140C2
:10302800040000241BECCB95005C014024580140AF
:10303800045C0140046001400454005824540058C2
:10304800CDCCCCCC10C005F00080F8FFF01FFFFFFE
:103058000060014010C005F800EB8000296A6A6D25
:10306800430002FB01F2B3FBF2F317E74FF40070E1
:1030780001F02AFF2968F4E64FF4007001F024FFFC
:103088002968E6E64FF4807001F01EFF2968D8E64B
:103098004FF4806001F018FF2968E6E64FF40060FD
:1030A80001F012FFE5E64FF00008BAE60229F8B58C
:1030B800044635D9C81E012830D8656800204FF469
:1030C8000036236735F002054FF4802560640CBF95
:1030D8000127074604294FF6FF7127650CBF012712
:1030E8000D27E064E065A765A0666167C4E9186517
:1030F800032A13D8DFE802F0484F553723684B4AB4
:10310800934205D002F1C052A2F58232934205D112
:103118006368012B02D1636C002B30D00120F8BD0D
:1031280045680020236735F002056064E0644FF4C9
:10313800803508BF0646A0664FF6FF7018BF012607
:10314800E565606713F001002665E7D14D1E012D86
:103158002ED84FF40035C4E91850032ADED8DFE82A
:1031680002F05A4B3B315B01E02180226365A16488
:10317800E26603F039F894F83830012BBED02046C7
:10318800BDE8F840FFF7E0BD1B01802140226365E0
:10319800A164E266EDE780225B01A2646365E266F2
:1031A800E7E75B01C02180226365A164E266E0E78E
:1031B8004FF48025C4E91805032AAFD8DFE802F0E8
:1031C8002B1C0C025B08E02080219A01A0645B01A3
:1031D800E166C4E91523CCE75B08C02580200229F5
:1031E8004FEA8312A5644FEA4313E066C4E9152346
:1031F800BFD10823A366BCE75B08802202294FEAF7
:103208008310A2644FEA4313E266C4E91503B0D100
:103218001023A366ADE75B08802040215A01A06413
:103228001B01E166C4E91523A3E700BF0458014068
:10323800002800F08680F8B590F83D30044603F089
:10324800FF02002B5FD0226802233F49B2F1804F72
:1032580084F83D30A2EB01011368B1FA81F14FEA1D
:10326800511126D029BB3948824222D000F580600E
:1032780082421ED0364F374DD71BAA42B7FA87F77E
:103288004FEA571744D0002F42D1334833498A4276
:1032980018BF824247D001F580618A4243D0A169B4
:1032A80023F08003E0680B4361681360D062916289
:1032B80023E0274F23F07003A568D71B2B43B7FAE9
:1032C80087F77F09206923F44073A5690343E668FB
:1032D800606823F080032B431360D662906251B973
:1032E8004FB91D491D4B9A4218BF8A4203D003F5B6
:1032F80080639A4201D163691363012300205361FB
:1033080084F83D30F8BD80F83C20FEF78DFC9AE744
:10331800104823F07003A568824243EA0503D1D020
:10332800002FCFD1B1E7216923F44073A5690B437E
:10333800E068616823F080032B431360D0629162D8
:10334800CFE70120704700BF0000014000040040A3
:1033580000040140000C00400040014000440140CE
:1033680090F83C30012B7DD0024602230068F0B46F
:10337800012482F83D3082F83C40544C85680B6843
:103388002C40602B84606FD01DD9B3F5005F59D0F5
:1033980042D94F498B4206D038D94E498B4202D088
:1033A80010318B4206D184684B4921400B4343F0CE
:1033B8000703836000230121184682F83D1082F834
:1033C8003C30F0BC7047402B67D019D9502BF1D155
:1033D800036A056A4C6823F00A0325F00105CE68E4
:1033E8001C433D4B0562816921F0F00141EA061159
:1033F8008161046281680B4043F057038360D9E719
:10340800202BD0D01AD9302BD4D1CCE723F01001FF
:10341800B1F5801FCED1C6E7702BCBD1CC68D1E9EE
:10342800015381682B4321F47F4143EA04230B4372
:103438008360836843F077038360BBE733F0100150
:10344800B8D1B0E7D1E90153CC682B43816843EA8E
:10345800042321F47F410B438360836843F4804352
:103468008360A7E702207047056A4E6825F01005BB
:10347800CF68194B05628469016A24F4704421F00D
:10348800A00144EA073441EA0611846101628168B7
:103498000B4043F0670383608CE7036A056A4C6856
:1034A80023F00A0325F00105CE681C430A4B056288
:1034B800816921F0F00141EA0611816104628168A5
:1034C8000B4043F04703836074E700BF8800CEFFDA
:1034D80020001000300010008FFFCFFF90F83C2034
:1034E800012A26D00222034670B40468124D80F8DF
:1034F8003D20AC426268A06816D005F58065AC42F4
:1035080012D00D6820F08000896822F07002012630
:103518002A430143002562602846A16083F83D6084
:1035280083F83C5070BC704722F470024D682A43FF
:10353800E7E70220704700BF00000140002800F0C4
:10354800EA81F8B503680446D9072ED5B2490A6955
:10355800896A02F03802102A00F00481182A00F063
:10356800FC806368B3F5803F00F02481002B00F0F5
:103578006281B3F5A02FA84B1A6800F03C8222F4B0
:1035880080321A601A6822F480221A6002F014FE4F
:10359800A14E054605E002F00FFE401B642800F22C
:1035A800488133689B03F6D52368980700F1898022
:1035B800D90630D5984A1369926A03F03803082B64
:1035C80000F0E080182B00F0D880E369002B00F0B1
:1035D8006F81914B1A681E4642F080021A6002F011
:1035E800EBFD054605E002F0E7FD401B022800F26E
:1035F80020813368DB05F6D502F0F6FD41F20303BE
:10360800984200F21A827368226A23F0F84343EA68
:103618008263736023681D0717D56369002B00F068
:1036280021817D4B5A6F1E4642F001025A6702F013
:10363800C3FD054605E002F0BFFD401B022800F26D
:10364800F880736F9807F6D523689A0617D5A3698B
:10365800002B00F01A81704B1A681E4642F4805203
:103668001A6002F0A9FD054605E002F0A5FD401B21
:10367800022800F2DE8033689F04F6D523685907D4
:1036880000F19E80636AD3B1634A116901F0380181
:10369800182970D0022B1368154623F08073136025
:1036A80000F0438102F088FD044605E002F084FD45
:1036B800001B022800F2BD802B689B01F6D4002075
:1036C800F8BD554A1369926A13F038032AD1524B50
:1036D800E1681B685A0701D500294CD04E4A136887
:1036E800164623F019030B43136002F065FD0546E7
:1036F80005E002F061FD401B022800F29A80336861
:103708005B07F6D502F070FD41F203032269984287
:10371800736800F2F98023F47C3343EA0233736060
:10372800236845E7182B00F0EB80E268002A00F0D8
:10373800D38039490B680E4623F0190313430B60F5
:1037480002F03AFD054604E002F036FD401B02286F
:103758006FD833685F07F7D5D4E701F00301022972
:103768007FF4FFAE2C4A126892037FF51EAF6268A1
:10377800002A7FF41AAF0120F8BD02F00302012AE3
:103788007FF423AF244B1B68DA0502D5E369802B4D
:10379800F1D102F029FD41F203031F4A9842216A40
:1037A80000F2BB80536823F0F84343EA8163536017
:1037B800236830E7184A136843F480331360E5E65A
:1037C800164B1A681E4642F480721A6002F0F4FC26
:1037D800054604E002F0F0FC401B642829D8336851
:1037E800DA05F7D5A368012B00F03081002B00F033
:1037F8000A81052B084B1A6F00F02E8122F0010276
:103808001A671A6F22F004021A6702F0D5FC024EFA
:1038180041F28837054608E000440258004802583B
:1038280002F0CAFC401BB84203D8336F9B07F7D598
:1038380028E70320F8BD8C4B1A681E4622F4803214
:103848001A601A6822F480221A6002F0B5FC054654
:1038580004E002F0B1FC401B6428EAD833689F03F7
:10386800F7D4A1E6804B5A6F1E4622F001025A6730
:1038780002F0A2FC054604E002F09EFC401B022870
:10388800D7D8736F9907F7D4DEE6774B1A681E46C8
:1038980022F480521A6002F08FFC054604E002F020
:1038A8008BFC401B0228C4D833689804F7D4E5E69B
:1038B8006D4B1A681E4622F080021A6002F07CFCEA
:1038C800054604E002F078FC401B0228B1D83368B2
:1038D800DF05F7D423689EE6634B1A681E4622F07C
:1038E80001021A6002F068FC054604E002F064FC7C
:1038F800401B02289DD833685807F7D4236857E639
:1039080091077FF412AFE2E623F0FE4343EA026335
:10391800736023684CE601207047D36823F07C531A
:1039280043EA0163D360236875E602F045FC064666
:1039380005E002F041FC801B02283FF67AAF2B68B5
:103948009901F6D4AA6A494BA06A1340E26A484929
:103958000343454E43EA0213AB62276BD4E90D32A9
:10396800013F501E013BE26BC7F308075B020004EE
:10397800013A9BB200F4FE001206034302F0FE4235
:103988003B4313432B63EB6A23F00103EB626A6B3F
:10399800A36C114041EAC3016963EB6A226C23F00E
:1039A8000C031343EB62EB6A626C23F002031343CC
:1039B800EB62EB6A43F48033EB62EB6A43F4003367
:1039C800EB62EB6A43F48023EB62EB6A43F001039A
:1039D800EB622B6843F080732B6002F0EDFB04462A
:1039E80005E002F0E9FB001B02283FF622AF33682E
:1039F8009A01F6D563E642F480221A601A6842F406
:103A080080321A60C2E5184B41F288371A6F1E4699
:103A180022F001021A671A6F22F004021A6702F0F4
:103A2800CBFB054605E002F0C7FB401BB8423FF65A
:103A380000AF336F9807F6D424E6F368226A23F0C0
:103A48007C5343EA0263F3602368E4E5064A136F94
:103A580043F001031367D8E642F004021A671A6FAD
:103A680042F001021A67D0E6004402580CFCFFFF3E
:103A78000700FFFF474A136903F03803102B04D0EF
:103A8800182B0DD01BB14448704744487047136841
:103A980099064AD513684248C3F3C103D840704712
:103AA800936A30B4946AD16A14F47C7FC4F3051025
:103AB800556B38D0C5F3CC0501F0010103F00303C1
:103AC80001FB05F1012B07EE901AB8EEE77A02D058
:103AD800022B2CD093B307EE900A9FED325AF8EEE2
:103AE800E77A136BC5EE276ADFED2F5AC3F3080395
:103AF80007EE903AB7EE006AF8EEE77AE7EE257A35
:103B080077EE867A66EEA76A224B1B6BC3F34623D1
:103B1800013307EE903AB8EEE77AC6EE877AFCEE04
:103B2800E77A17EE900A30BC70471D48704707EED9
:103B3800900A9FED1E5AF8EEE77AD2E713689B06C3
:103B480020D5136807EE900A1549B7EE005AC3F35B
:103B5800C100F8EEE77A136BC140DFED134AC3F3F7
:103B6800080306EE101A06EE903AB8EEC66AF8EEAA
:103B7800E66AC6EE275AE7EE246A76EE856A66EEAE
:103B8800A56AC1E707EE900A9FED095AF8EEE77AB1
:103B9800A7E700BF0044025800093D000024F400D4
:103BA8000090D0030024744A000000390024744BAC
:103BB8000024744C002800F00381874A136803F03E
:103BC8000F038B422DE9F04104460D460CD21368D1
:103BD80023F00F030B431360136803F00F038B42AA
:103BE80002D00120BDE8F08123685F070BD57B492F
:103BF80020698A6902F07002904204D98A6922F029
:103C0800700202438A611E070BD574496069CA694C
:103C180002F07002904204D9CA6922F0700202438D
:103C2800CA61D8060BD56D49A069CA6902F4E06279
:103C3800904204D9CA6922F4E0620243CA61990633
:103C48000BD56649E0690A6A02F07002904204D90D
:103C58000A6A22F0700202430A629A0740F1A280BF
:103C68005E48E168826902F00F02914204D98269D4
:103C780022F00F020A438261D80731D5574AA1685A
:103C8800936923F470630B43936161681368022995
:103C980000F09880032900F08F80012900F09880B7
:103CA80058079ED54D4A41F288381369174623F0C4
:103CB80007030B43136102F07FFA064605E002F0A2
:103CC8007BFA801B404500F281803B69626803F003
:103CD8003803B3EBC20FF2D12368990706D5E16820
:103CE8003E48826902F00F028A425FD83A490A6860
:103CF80002F00F02AA420AD90A6822F00F022A43E8
:103D08000A600A6802F00F02AA427FF46AAF5A07F3
:103D18000BD5324920698A6902F07002904204D2B8
:103D28008A6922F0700202438A611F070BD52B496A
:103D38006069CA6902F07002904204D2CA6922F02E
:103D480070020243CA61DE060BD52449A069CA691C
:103D580002F4E062904204D2CA6922F4E0620243AB
:103D6800CA619D060BD51D4AE169136A03F0700309
:103D7800994204D2136A23F070030B431362FFF7CE
:103D880079FE164A164C034692690F201549C2F36C
:103D98000322A25C02F01F02D340BDE8F0410B6091
:103DA80002F0AAB9DA073FF569AF9FE7826922F006
:103DB8000F021143816199E79F013FF573AF10E747
:103DC800012070479B033FF56DAF0AE7032009E721
:103DD800DE053FF567AF04E70020005200440258B3
:103DE80040670008040000243B4AF8B5936A03F0D2
:103DF8000303032B69D0136806460F46144623F0C5
:103E08008063136002F0D8F9054604E002F0D4F9A3
:103E1800431B022B57D823681A01F7D4A36A3268C8
:103E280023F47C332D4943EA0233A3627568D6E94B
:103E38000232013D501E013B3269C5F308055B02A1
:103E48000004013A9BB200F4FE001206034302F09C
:103E5800FE422B431343A363E36A726923F0C00352
:103E68001343E362E36AB26923F020031343E36276
:103E7800E36A23F01003E362E26BF369114041EA5D
:103E8800C301E163E36A43F01003E362E36AF7B155
:103E9800012F0CBF43F4801343F40013E3620E4B6D
:103EA8001A681D4642F080621A6002F085F90446DD
:103EB80004E002F081F9001B022804D82B681B01DA
:103EC800F7D50020F8BD0320F8BD0120F8BD43F464
:103ED8000023E362E3E700BF004402580700FFFF46
:103EE8003B4AF8B5936A03F00303032B69D01368C0
:103EF80006460F46144623F08053136002F05CF91F
:103F0800054604E002F058F9431B022B57D82368F2
:103F18009A00F7D4A36A326823F07C732D4943EAE8
:103F28000253A3627568D6E90232013D501E013B77
:103F38003269C5F308055B020004013A9BB200F43C
:103F4800FE001206034302F0FE422B431343236490
:103F5800E36A726923F440631343E362E36AB26974
:103F680023F400731343E362E36A23F48073E36288
:103F7800626CF369114041EAC3016164E36A43F486
:103F88008073E362E36AF7B1012F0CBF43F40003C7
:103F980043F08073E3620E4B1A681D4642F080526C
:103FA8001A6002F009F9044604E002F005F9001B62
:103FB800022804D82B689B00F7D50020F8BD032001
:103FC800F8BD0120F8BD43F48003E362E3E700BFD6
:103FD800004402580700FFFF2DE9F8430368044630
:103FE80013F000661CD0426EB2F5001F00F0B984D1
:103FF80023D8002A00F0CE83B2F5801F20D10221F9
:104008000430FFF7F1FE0646002E40F06E84626E23
:104018002368AB480026016D21F440110A4302656C
:10402800DD0511D5626D042A00F20785DFE812F07C
:10403800690470048004CA02CA02B2F5401FE8D0BD
:10404800DD054FF00106EDD4354698051BD5A26D68
:10405800802A00F0758400F2EC80002A00F0888342
:10406800402A40F0ED800021201DFFF7BDFE2368A7
:104078000546002D40F072839149A06D0A6D22F427
:10408800E07202430A6559051FD5D4F8A420B2F599
:10409800800F00F0448400F2D680002A00F080836C
:1040A800B2F5001F40F0D7800021201DFFF79CFECD
:1040B80023680546002D40F055838149D4F8A400B3
:1040C8008A6D22F4600202438A651A051FD5D4F866
:1040D800A820B2F1007F00F00B8400F2BF80002A14
:1040E80000F04C83B2F1807F40F0C0800021201D99
:1040F800FFF77AFE23680546002D40F031837049AA
:10410800D4F8A8008A6D22F0E06202438A659F0114
:1041180018D5A26C202A00F0B68300F2AA803AB122
:10412800102A40F0A9806649CA6A42F40032CA627D
:10413800002D40F043836249A06CCA6C22F0300223
:104148000243CA64D8041DD5E26DB2F5005F00F0E1
:10415800008400F29480002A00F01683B2F5805F94
:1041680040F095800021201DFFF73EFE236805469C
:10417800002D40F0FB825249E06D0A6D22F4E042C6
:1041880002430A6599041AD5226EB2F5003F00F081
:1041980068837FD84AB1B2F5803F40F0838001211F
:1041A800201DFFF721FE23680546002D40F01983E6
:1041B8004349206E0A6D22F4E02202430A655A043C
:1041C8001BD5D4F8AC20B2F1005F00F065836CD841
:1041D80042B1B2F1805F70D10121201DFFF704FECA
:1041E80023680546002D40F0FE823549D4F8AC001E
:1041F8008A6D22F0E04202438A651F040DD5E26E03
:10420800B2F1805F00F03783B2F1005F00F0E68121
:10421800002A00F0E98101263546D8015CD5626C98
:10422800032A00F21084DFE812F0530041034D0026
:104238005300C02A3FF41DAFB2F5807F3FF419AF99
:10424800012635461FE7B2F5C00F3FF433AFB2F58C
:10425800000F3FF42FAF0126354636E7B2F1407F15
:104268003FF44AAFB2F1806F3FF446AF01263546BE
:104278004DE7302A3FF45CAF0126354662E7B2F5D8
:10428800405F3FF475AFB2F5804F3FF471AF012640
:10429800354677E722F48031B1F5802F85D0B2F525
:1042A800403F82D00126354689E722F08051B1F19E
:1042B800804F97D0B2F1405F94D0012635469CE7F5
:1042C800004402580221201DFFF78EFD2368054691
:1042D800002D00F06B822E46590200F1EB81DF07BA
:1042E80039D5A26F282A00F26A81DFE812F030007F
:1042F800680168016801680168016801680157037D
:10430800680168016801680168016801680129009D
:104318006801680168016801680168016801300086
:104328006801680168016801680168016801300076
:104338006801680168016801680168016801300066
:10434800012104F12400FFF7CBFD23680546002D69
:1043580000F055822E46980716D5626F052A00F29E
:104368006F83DFE812F00D00110306000D000D0049
:104378000D00012104F12400FFF7B2FD2368054672
:10438800002D00F026822E46590717D5D4F8902024
:10439800052A00F24F83DFE812F00D00ED02060057
:1043A8000D000D000D00012104F12400FFF798FD18
:1043B80023680546002D00F003822E469A061DD577
:1043C800D4F88C20B2F1005F00F0418200F2258120
:1043D8004AB1B2F1805F40F02A810021201DFFF729
:1043E80003FD23680546002D40F01182B649D4F834
:1043F8008C004A6D22F0E04202434A655F061DD5F3
:10440800D4F89820B2F5006F00F00D8200F2128106
:104418004AB1B2F5806F40F017810021201DFFF7E7
:10442800E3FC23680546002D40F0E381A649D4F853
:1044380098008A6D22F4E05202438A6518061DD559
:10444800D4F89C20B2F5804F00F0F78100F2FF808D
:104458004AB1B2F5005F40F004810021201DFFF74A
:10446800C3FC23680546002D40F0C1819649D4F865
:104478009C008A6D22F4604202438A6519070BD5B5
:10448800D4F88010B1F5805F00F024828E48426D28
:1044980022F440520A434265DA060BD5D4F8941048
:1044A800B1F5807F00F00B828748826D22F440725C
:1044B8000A4382651F030ED5D4F8A010B1F5803FDA
:1044C80000F0E580B1F5003F00F0E880002900F039
:1044D8007E820126354658030FD5D4F88420B2F5DC
:1044E800001F00F0C180B2F5401F00F0C480B2F593
:1044F800801F00F0758201263546D90317D5E26C76
:10450800002A00F08681B2F5803F40F02481022124
:10451800201DFFF769FC05462368002D40F08181C6
:104528006949E06CCA6C22F480320243CA649A007A
:1045380000F106819F0335D4301E18BF0120DE022A
:1045480006D56149256F0A6D22F000422A430A65A3
:10455800DD0007D55C49D4F8B4500A6922F48042DA
:104568002A430A61990206D55749A56E0A6D22F0B9
:1045780080722A430A655A0009D5534A116921F401
:10458800004111611169D4F8B85029431161002B19
:1045980006DA4D4A216DD36C23F040530B43D364A4
:1045A800BDE8F883E26FB2F5807F00F0078226D974
:1045B80022F48071B1F5007F23D00120BFE70126E6
:1045C8003546C8E63546002D40F0CE803E49606D40
:1045D8000A6D22F0070202430A6536E50121201D13
:1045E800FFF702FC23680546002D40F0FE8036499F
:1045F800E06E0A6D22F0405202430A650DE6002A79
:10460800DBD1002DD9D1304D301E696D18BF012086
:1046180021F440710A436A6591E722F08051B1F1B3
:10462800804F3FF4E0AEB2F1405F3FF4DCAE0126CC
:104638003546E3E622F48061B1F5805F3FF4F3AEDE
:10464800B2F5406F3FF4EFAE01263546F6E622F4A8
:104658000051B1F5004F3FF406AFB2F5C04F3FF43B
:1046680002AF0126354609E7012104F12400FFF7CE
:1046780037FC23680546002D40F0BF801249D4F866
:1046880084004A6D22F4401202434A6535E702214C
:1046980004F12400FFF724FC23680546002D40F0B0
:1046A800AA800949D4F8A0008A6D22F44032024356
:1046B8008A6510E7054B1A68984642F480721A60BA
:1046C80001F07AFD074609E0004402580048025804
:1046D80001F072FDC01B642800F26A81D8F800302E
:1046E800DA05F5D5002D40F0A281B34AD4F8B030F0
:1046F800116F594011F4407F0BD0116F106F21F4E6
:10470800407140F480301067106F20F480301067DB
:104718001167B3F5807F00F06C8103F44072B2F545
:10472800407F00F07A81A4490A6922F47C520A6128
:10473800A14AC3F30B03116F0B4313672368CEE53C
:10474800022104F12400FFF7CBFB236800283FF483
:10475800F1AE0126EEE601263546E8E62E4692E45D
:104768002E46D4E42E46B0E42E466EE42E4609E5E5
:104778009149CA6A42F40032CA627AE48E49CA6A26
:1047880042F40032CA62B7E48B49CA6A42F4003282
:10479800CA62EDE48848C16A41F40031C16238E474
:1047A8008549CA6A42F40032CA6283E48249606C6D
:1047B800CA6C22F003020243CA648DE52E46C1E4A6
:1047C8007D49D4F890008A6D22F0070202438A6579
:1047D800F4E57949606F4A6D22F0070202434A65A1
:1047E800D2E52E46EBE42E4607E52E4615E52E4685
:1047F80044E62E4622E62E466DE62E467DE66E49B6
:10480800A06F4A6D22F0380202434A65A3E52E469E
:10481800F4E56949CA6A42F40032CA62002D3FF4DD
:104828007FAE2E4683E6022104F12400FFF758FBF1
:1048380005462368002DDCD1F8E5022104F12400A7
:10484800FFF74EFB05462368002DD0D10EE6022166
:1048580004F12400FFF744FB05462368002DD6D158
:10486800C4E5012104F12400FFF73AFB054623685B
:10487800002DB6D19CE45049CA6A42F40032CA629B
:10488800002DB2D1B3E60221201DFFF7ADFA05468F
:104898002368002D92D14EE4012104F12400FFF792
:1048A8001FFB05462368002D9DD19EE44249CA6A34
:1048B80042F40032CA62002D7FF40DAD76E7022182
:1048C80004F12400FFF70CFB236800283FF4F2AD45
:1048D8000126EFE5022104F12400FFF701FB23681C
:1048E80000283FF4D9AD0126D6E52368FFF798BB29
:1048F800002104F12400FFF7F3FA23680546FFF7C7
:10490800FBBB2D493546CA6A42F40032CA625AE6F0
:104918000021201DFFF768FA2368054653E60021A9
:1049280004F12400FFF7DCFA23680546FFF7C2BB51
:10493800002104F12400FFF7D3FA2368054642E674
:10494800002104F12400FFF7CBFA23680546FFF79E
:1049580090BB002104F12400FFF7C2FA2368054642
:1049680006E402212430FFF7BBFA0646002E3FF486
:104978004EABBAE70121201DFFF736FA054623683A
:10498800002D7FF41AAD1BE70121201DFFF72CFA3B
:1049980005462368002D7FF4F6AC1AE70121201D97
:1049A800FFF722FA05462368002D7FF4D3AC26E7EB
:1049B80003262368354692E4004402582348C16A16
:1049C80041F40031C162002D7FF4F7AD1BE6201DD4
:1049D800FFF70AFA05462368002D7FF40CAF60E65E
:1049E8001A49CA6A42F40032CA62002D7FF405AF40
:1049F80044E601F0E1FBDFF8548041F288390746CC
:104A080004E001F0D9FBC01B4845D1D8D8F8703074
:104A18009B07F6D5D4F8B0307FE60C480C4A0169FC
:104A280002EA131221F47C510A43026180E62368EA
:104A38002E4654E401263546C0E40126FFF704BBA0
:104A480001263546A0E40126354645E400440258CF
:104A5800CFFFFF00584B70B4996A9D6ADC6A15F461
:104A68007C3FC5F30532DE6B5CD0C6F3CC0604F0A0
:104A7800100401F0030104FB06F4012907EE904A33
:104A8800B8EEE77A03D0022975D000294FD007EE97
:104A9800902ADFED4A6AF8EEE77A9B6B86EEA76A02
:104AA8009FED475AC3F3080306EE903AF7EE005A13
:104AB800F8EEE66AE7EE056A76EEA56A66EE266A1D
:104AC8003D4AB7EE006A936BC3F3462307EE103AEC
:104AD800B8EEC77A70BC37EE067AC6EE877AFCEE77
:104AE800E77AC0ED007A936BC3F3064307EE103AFA
:104AF800B8EEC77A37EE067AC6EE877AFCEEE77A22
:104B0800C0ED017A936BC3F3066307EE903AF8EEB3
:104B1800E77A77EE867A86EEA77ABCEEC77A80EDDA
:104B2800027A704770BCC0E9002282607047196839
:104B3800890627D5196807EE902A224AB7EE005A47
:104B4800C1F3C101F8EEE77A9B6BCA40DFED1C4A5E
:104B5800C3F3080306EE102A06EE903AB8EEC66ACA
:104B6800F8EEE66AC6EE275AE7EE246A76EE856A1C
:104B780066EEA56AA4E707EE902ADFED136AF8EE61
:104B8800E77A8AE707EE902A9FED105A9B6BB7EEFB
:104B9800006AF8EEE77ADFED0A5AC3F30803C5EEB8
:104BA800276A07EE903AF8EEE77AE7EE257A77EE8D
:104BB800867A66EEA76A83E7004402580024744A9E
:104BC800000000390090D0030024744B0024744C7A
:104BD800584B70B4996A9D6ADC6A15F07C7FC5F3FE
:104BE80005525E6C5CD0C6F3CC0604F4807401F008
:104BF800030104FB06F4012907EE904AB8EEE77AB0
:104C080003D0022975D000294FD007EE902ADFED96
:104C18004A6AF8EEE77A1B6C86EEA76A9FED475A58
:104C2800C3F3080306EE903AF7EE005AF8EEE66A88
:104C3800E7EE056A76EEA56A66EE266A3D4AB7EEA5
:104C4800006A136CC3F3462307EE103AB8EEC77A2E
:104C580070BC37EE067AC6EE877AFCEEE77AC0EDCE
:104C6800007A136CC3F3064307EE103AB8EEC77A1E
:104C780037EE067AC6EE877AFCEEE77AC0ED017A5F
:104C8800136CC3F3066307EE903AF8EEE77A77EE13
:104C9800867A86EEA77ABCEEC77A80ED027A7047EC
:104CA80070BCC0E90022826070471968890627D560
:104CB800196807EE902A224AB7EE005AC1F3C101DB
:104CC800F8EEE77A1B6CCA40DFED1C4AC3F3080311
:104CD80006EE102A06EE903AB8EEC66AF8EEE66AD4
:104CE800C6EE275AE7EE246A76EE856A66EEA56A6E
:104CF800A4E707EE902ADFED136AF8EEE77A8AE771
:104D080007EE902A9FED105A1B6CB7EE006AF8EE7A
:104D1800E77ADFED0A5AC3F30803C5EE276A07EE00
:104D2800903AF8EEE77AE7EE257A77EE867A66EE3D
:104D3800A76A83E7004402580024744A0000003937
:104D48000090D0030024744B0024744C584B70B46A
:104D5800996A9D6ADC6A15F47C7FC5F305125E6B5F
:104D68005CD0C6F3CC0604F0010401F0030104FB97
:104D780006F4012907EE904AB8EEE77A03D0022933
:104D880075D000294FD007EE902ADFED4A6AF8EE79
:104D9800E77A1B6B86EEA76A9FED475AC3F30803B1
:104DA80006EE903AF7EE005AF8EEE66AE7EE056A84
:104DB80076EEA56A66EE266A3D4AB7EE006A136B80
:104DC800C3F3462307EE103AB8EEC77A70BC37EE45
:104DD800067AC6EE877AFCEEE77AC0ED007A136BA6
:104DE800C3F3064307EE103AB8EEC77A37EE067AF1
:104DF800C6EE877AFCEEE77AC0ED017A136BC3F34F
:104E0800066307EE903AF8EEE77A77EE867A86EE52
:104E1800A77ABCEEC77A80ED027A704770BCC0E909
:104E28000022826070471968890627D5196807EE3D
:104E3800902A224AB7EE005AC1F3C101F8EEE77A88
:104E48001B6BCA40DFED1C4AC3F3080306EE102AA9
:104E580006EE903AB8EEC66AF8EEE66AC6EE275A4B
:104E6800E7EE246A76EE856A66EEA56AA4E707EEA1
:104E7800902ADFED136AF8EEE77A8AE707EE902AC0
:104E88009FED105A1B6BB7EE006AF8EEE77ADFED7C
:104E98000A5AC3F30803C5EE276A07EE903AF8EEFC
:104EA800E77AE7EE257A77EE867A66EEA76A83E7F1
:104EB800004402580024744A000000390090D003CE
:104EC8000024744B0024744CB0F5807F00B585B085
:104ED80048D0B0F5007F11D0B0F5806F00F0828027
:104EE800B0F5006F52D0B0F5805F2CD0B0F5002F30
:104EF80000F09680002005B05DF804FB534A136D5E
:104F080003F4E073802B59D012D9C02B26D0B3F507
:104F1800807FEFD1D36C13F040535BD0B3F1805F47
:104F280000F08D80B3F1005F494818BF0020E2E728
:104F3800002B3CD0402BDDD101A8FFF78BFD019859
:104F480005B05DF804FB414A136D03F4E043B3F583
:104F5800005F33D029D9B3F5405F58D13D4805B03B
:104F68005DF804FB394B1B6D03F00703042BC1D814
:104F780001A252F823F000BFB74F0008414F0008C4
:104F8800C54F0008654F0008D34F00082F4A936D9E
:104F980003F0E063B3F1007F10D01DD9B3F1407F77
:104FA800DCD0B3F1806FB5D0A4E7002B34D101A8D1
:104FB800FFF7CCFE029805B05DF804FB01A8FFF7E7
:104FC80007FE019805B05DF804FB204BDB6C13F07D
:104FD8004053A3D120488EE7002BE8D0B3F1807F5F
:104FE800AAD087E7194A936D03F46003B3F5800FDD
:104FF800E4D005D8002BDAD0B3F5001F9CD079E7B0
:10500800B3F5C00FAAD0B3F5000F83D072E7B3F59C
:10501800804F3FF47FAF6DE7B3F5805F8CD069E7D1
:105028000A4A936D03F44033B3F5803F09D0B3F5D2
:10503800003F3FF46FAF002B7FF45CAF7CE707487D
:1050480059E701A8FFF7C4FD039854E70044025844
:105058000024F4000080BB000090D00300093D004C
:105068002DE9F04F0D6883B0002D00F0C4800023B7
:10507800DFF82C82DFF82CE201229A4012EA050CB4
:1050880000F0B4804C6824F01007022F40F0B6807E
:10509800DF0803F0070A4FF00F0B0E6900EB8707D4
:1050A8004FEA8A0AD7F820900BFA0AFB06FA0AF6A2
:1050B8004FEA430A29EA0B094FF0030B46EA0909AC
:1050C8000BFA0AF604EA0B0BC7F820906FEA0609F8
:1050D80007680BFA0AFB27EA06064BEA060606608B
:1050E8008768C4F3001609EA070BCF689E4007FAE1
:1050F8000AF747EA0B078760476827EA0202164360
:105108004660C668E7008A6806EA090902FA0AF2F0
:1051180042EA0902C26069D5D8F8F47023F003099D
:1051280003F003020F2647F0020709F1B049920085
:10513800C8F8F47009F58069D8F8F47006FA02FA2C
:1051480007F0020701974D4F019EB842D9F8086051
:1051580026EA0A0620D007F58067B8426BD0484F88
:10516800B8426DD0474FB84260D0474FB84271D06F
:10517800464FB84273D0464FB84266D0454FB84202
:1051880072D0454FB84274D0444FB8420CBF09277B
:105198000A2707FA02F21643C9F808606FEA0C07F3
:1051A800DEF80020E60354BF3A404CEA0202CEF88B
:1051B8000020A203DEF804604FF0B04254BF3E4026
:1051C8004CEA0606CEF804601668E2024FF0B042D8
:1051D80054BF3E404CEA0606A4024FF0B0441660A5
:1051E800526854BF3A404CEA02026260013335FA11
:1051F80003F27FF441AF03B0BDE8F08F4FEA430AF2
:105208004FF00309D0F800B0013F04EA090609FA93
:105218000AF9012F2BEA090B06FA0AF66FEA0909BF
:1052280046EA0B0606603FF66CAF59E7032707FA14
:1052380002F21643B0E7012707FA02F21643ABE77A
:10524800022707FA02F21643A6E7062707FA02F230
:105258001643A1E7042707FA02F216439CE705273D
:1052680007FA02F2164397E7072707FA02F21643EE
:1052780092E7082707FA02F216438DE70000025862
:1052880000080258000C0258001002580014025876
:1052980000180258001C0258002002580024025826
:1052A8000044025880000058002900F0AC80002318
:1052B8002DE9F04FDFF870A183B0DFF87091DFF8C7
:1052C8007081DFF870B14FF0010E0EFA03F414EAA2
:1052D800010C73D023F0030503F003020F264845A1
:1052E80055444FEAC202AF6806FA02F607EA060713
:1052F800019723D058456AD0464FB8426AD0464FE6
:10530800B84271D0454FB84273D0454FB84266D0C5
:10531800444FB84259D0DFF820E1704574D0DFF827
:105328001CE170456AD0DFF818E1704514BF4FF0F2
:105338000A0E4FF0090E0EFA02F200E00022019F59
:10534800974219D1AF684FF0B04227EA0606AE601F
:10535800D8F8005025EA0C05C8F80050D8F80450D1
:1053680025EA0C05C8F80450156825EA0C051560EF
:10537800556825EA0C0555605A000326D0F800C088
:105388000F2723FA06F5964003F0070200EB850580
:105398004CEA060C9200C0F800C097402A6A22EA3C
:1053A80007022A62826822EA06028260426822EACA
:1053B80004044460C26822EA0606C660013331FA72
:1053C80003F280D103B0BDE8F08F4FF0060E0EFA5D
:1053D80002F2B4E74FF0020E0EFA02F2AFE74FF016
:1053E800050E0EFA02F2AAE74FF0030E0EFA02F2C9
:1053F800A5E74FF0040E0EFA02F2A0E74FF0080EF0
:105408000EFA02F29BE770474FF0070E0EFA02F20F
:1054180095E700BF00080258000C02580010025817
:1054280000140258001802580004005800000258DE
:105438008000005800040258001C0258002002583E
:105448000024025802B90904816170470268354B8B
:10545800354930B4354C364DA24218BF9A4204F152
:1054680048040CBF012300238A4208BF43F001030C
:105478004831AA4208BF43F001034835A24208BF99
:1054880043F0010348348A4208BF43F0010301F5A1
:105498006271AA4208BF43F0010305F56275A24292
:1054A80008BF43F0010304F562748A4208BF43F061
:1054B80001034831AA4208BF43F001034835A2421C
:1054C80008BF43F0010348348A4208BF43F0010390
:1054D8004831AA4208BF43F00103A24208BF43F083
:1054E80001038A4208BF43F0010313B9114B9A42E2
:1054F80013D1D3B21049114C103BA1FB03515F2BC0
:105508000F4BC1F3021103EA0203615C88BF043345
:10551800C1658365184630BC704722F0FF03836578
:10552800F8E700BF10000240400002402800024097
:1055380058000240B8040240ABAAAAAAA86700080B
:1055480000FCFFFF0368294A294930B4294D2A4C39
:10555800AB4218BF934205F13C050CBF0122002263
:10556800A34208BF42F001023C348B4208BF42F01C
:1055780001023C31AB4208BF42F00102A34208BF1E
:1055880042F001028B4208BF42F0010212B91B4AE5
:10559800934213D1DBB21A4D1A4A0121083B1A4C27
:1055A800A5FB0353446602EB1312C3F304139200E2
:1055B80001FA03F30266836630BC7047DAB2134916
:1055C800134C1944103AA829A4FB02234FEA1313D9
:1055D80000D808330F4A03F01F0501210E4C1A4466
:1055E800A9404466920081660266E5E708540258BD
:1055F800445402581C5402583054025894540258C7
:10560800CDCCCCCC0096001680580258F0FBFDBFDC
:10561800ABAAAAAA0082001080080240F8B5044686
:1056280000F0CAFD002C00F0DC8023680546974A8C
:10563800934249D01832934246D030329448954923
:10564800834218BF934200F148000CBF0122002298
:105658008B4208BF42F001023031834208BF42F05A
:10566800010230308B4208BF42F0010201F55C7143
:10567800834208BF42F0010200F55C708B4208BF0C
:1056880042F001023031834208BF42F0010230305B
:105698008B4208BF42F001023031834208BF42F01A
:1056A800010230308B4208BF42F0010230318342A0
:1056B80008BF42F001028B4208BF42F001021AB94A
:1056C800754A934240F0FC800222002184F835207C
:1056D80084F834101A6822F001021A6005E000F01C
:1056E8006BFD431B052B57D823681A68D107F6D4DE
:1056F800D4E9022120690A431F68D4E90516024348
:105708000A436649D4E90705324339400243606ACF
:105718002A43042841EA020145D019605A6922F057
:105728000702104358612046FFF790FEE26D3F23C1
:1057380002F01F02934083602046FFF703FFA3682F
:10574800802B18D06368256EDAB2013BD4E91910B2
:10575800072B2A60486015D8501E072843D9626F66
:10576800D4E91B3100201860002001234A606065DD
:1057780084F83530F8BD0023A16ED4E918026360BF
:105788000360516000230020C4E91B3363670123D1
:10579800606584F83530F8BD202203230120626556
:1057A80084F83530F8BDD4E90B50A26A2843014388
:1057B8001960586920F00700104340F00400002DDC
:1057C800B0D0002E45D1012A5AD032F00202A9D118
:1057D800EA01A7D5012340221846626584F83530CE
:1057E800F8BD0120F8BD21682D4B2E4E2E4DB1423B
:1057F80018BF994206F128060CBF01230023A942CD
:1058080008BF43F001032835B14208BF43F0010344
:105818002836A94208BF43F001032835B14208BF22
:1058280043F00103A94208BF43F001033BB91F4BF2
:10583800994204D01E4B1F4913449B0003E01E4BA2
:105848001E4913449B0001228240C4E91B31626750
:1058580088E7B6F5005F04D0022ABBD9032AB7D07F
:1058680060E7032A3FF65EAF01A151F822F000BFBE
:10587800DD570008D9570008DD5700088958000887
:10588800B5F1C07F7FF44EAFA4E700BF100002401F
:105898004000024070000240B80402403F8010FE01
:1058A800085402581C540258305402589454025850
:1058B8003F820010400902403F96001640590258A6
:1058C800334A344934488B4218BF934201F12801C6
:1058D800324D0CBF01220022834208BF42F0010270
:1058E8003C308B4208BF42F001023C31AB4208BF5A
:1058F80042F00102834208BF42F001028B4208BF16
:1059080042F0010212B9264A93423AD102220021FA
:10591800244F84F83520A26884F83410402A196886
:1059280007EA01072BD0802A0CBF4FF480410021E1
:1059380022692046E668D2086569DFF870C042EA45
:10594800D602A66942EAD502E56942EAD602164EAF
:1059580042EAD5021E44256A42EA1512ACFB0665E6
:105968003A432D091143AD001960E565FFF76EFD57
:10597800E26D012302F01F0293404360DCE6102130
:10598800D6E7402203230120626584F83530F8BD4C
:10599800085402581C54025830540258585402589B
:1059A800945402580F00FEFFF8ABFDA7CDCCCCCC29
:1059B8002DE9F0479F4A00259F4E82B00368824632
:1059C8009E49846D934218BFB342019508BF0126D2
:1059D8000D68276818BF002621684AD03032DFF8E2
:1059E8006CE29748734518BF93420EF1480E0CBFFE
:1059F80001220022834208BF42F001023030734581
:105A080008BF42F001020EF1300E834208BF42F097
:105A1800010200F55C70734508BF42F001020EF503
:105A28005C7E834208BF42F001023030734508BFF4
:105A380042F001020EF1300E834208BF42F001022B
:105A48003030734508BF42F001020EF1300E834238
:105A580008BF42F001023030734508BF42F001022E
:105A6800834208BF42F001021AB9764A934240F0D5
:105A78000B82DAF85C10082201F01F0C02FA0CF213
:105A8800174240F08D8127FA0CF2D2070CD55A69DB
:105A9800100609D5012202FA0CF2A260DAF85420A5
:105AA80042F00202CAF854204FF0040E0EFA0CF02D
:105AB80038425BD0002E4FD1634ADFF89091DFF86F
:105AC80080814B4518BF934209F148090CBF012258
