:020000040800F2
:1000000000000220810C0008D10C00088D2A000895
:10001000D10C0008D10C0008D10C00080000000031
:10002000000000000000000000000000D10C0008EB
:10003000D10C000800000000D10C00087D2A000847
:10004000D10C0008D10C0008D10C0008D10C00081C
:10005000D10C0008D10C0008D10C0008D10C00080C
:10006000D10C0008D10C0008D10C0008551D000867
:10007000611D0008251700086D1D0008791D000886
:10008000619F0008D10C0008D10C0008D10C0008B9
:10009000D10C0008D10C0008D10C0008D10C0008CC
:1000A000D10C0008D10C0008D10C0008D10C0008BC
:1000B000D10C0008D10C0008D10C0008D10C0008AC
:1000C000D10C0008D10C0008D10C0008D10C00089C
:1000D000D10C0008559F0008D10C0008D10C000875
:1000E000D10C0008D10C000800000000D10C000861
:1000F000D10C0008D10C0008D10C0008D10C00086C
:10010000D10C0008D10C0008D10C0008D10C00085B
:10011000D10C0008D10C0008D10C0008D10C00084B
:10012000D10C0008D10C0008D10C0008D10C00083B
:10013000D10C0008D10C0008D10C0008D10C00082B
:1001400000000000000000000000000000000000AF
:10015000D10C0008D10C0008D10C0008D10C00080B
:10016000D10C0008D10C0008D10C0008D10C0008FB
:10017000D10C0008D10C0008D10C0008D10C0008EB
:10018000D10C0008D10C0008D10C0008D10C0008DB
:10019000D10C0008D10C0008D10C0008D10C0008CB
:1001A000D10C0008D10C0008D10C0008D10C0008BB
:1001B00005260008D10C0008D10C0008D10C00085D
:1001C000D10C0008D10C0008D10C0008D10C00089B
:1001D000D10C0008D10C0008D10C0008D10C00088B
:1001E000D10C0008D10C0008D10C0008D10C00087B
:1001F000D10C0008D10C0008D10C0008D10C00086B
:10020000D10C0008D10C0008D10C0008D10C00085A
:10021000D10C0008D10C0008D10C0008D10C00084A
:10022000D10C0008D10C0008D10C0008000000001F
:10023000D10C0008D10C000800000000D10C00080F
:10024000D10C0008D10C0008D10C0008D10C00081A
:10025000D10C0008D10C0008D10C0008D10C00080A
:10026000D10C0008D10C0008D10C0008D10C0008FA
:10027000D10C0008D10C0008D10C000800000000CF
:10028000D10C0008D10C0008D10C000800000000BF
:0802900000000000D10C000881
:1002980010B5054C237833B9044B13B10448AFF3B8
:1002A80000800123237010BD90000024000000008E
:1002B8009802000808B5034B1BB103490348AFF384
:1002C800008008BD00000000940000249802000887
:1002D80081F0004102E000BF83F0004330B54FEAEF
:1002E80041044FEA430594EA050F08BF90EA020F5C
:1002F8001FBF54EA000C55EA020C7FEA645C7FEAEF
:10030800655C00F0E2804FEA5454D4EB5555B8BF11
:100318006D420CDD2C4480EA020281EA030382EA82
:10032800000083EA010180EA020281EA0303362D14
:1003380088BF30BD11F0004F4FEA01314FF4801CE7
:100348004CEA113102D0404261EB410113F0004FF9
:100358004FEA03334CEA133302D0524263EB4303B0
:1003680094EA050F00F0A780A4F10104D5F1200E4E
:100378000DDB02FA0EFC22FA05F2801841F10001A9
:1003880003FA0EF2801843FA05F359410EE0A5F17D
:1003980020050EF1200E012A03FA0EFC28BF4CF0AE
:1003A800020C43FA05F3C01851EBE37101F0004564
:1003B80007D54FF0000EDCF1000C7EEB00006EEB71
:1003C8000101B1F5801F1BD3B1F5001F0CD34908FB
:1003D8005FEA30004FEA3C0C04F101044FEA445252
:1003E80012F5800F80F09A80BCF1004F08BF5FEAD9
:1003F800500C50F1000041EB045141EA050130BDB9
:100408005FEA4C0C404141EB0101013C28BFB1F5CA
:10041800801FE9D291F0000F04BF01460020B1FA15
:1004280081F308BF2033A3F10B03B3F120020CDAE8
:100438000C3208DD02F1140CC2F10C0201FA0CF0C6
:1004480021FA02F10CE002F11402D8BFC2F1200C2B
:1004580001FA02F120FA0CFCDCBF41EA0C019040E1
:10046800E41AA2BF01EB0451294330BD6FEA04042A
:100478001F3C1CDA0C340EDC04F11404C4F1200215
:1004880020FA04F001FA02F340EA030021FA04F327
:1004980045EA030130BDC4F10C04C4F1200220FA7E
:1004A80002F001FA04F340EA0300294630BD21FABC
:1004B80004F0294630BD94F0000F83F4801306BF82
:1004C80081F480110134013D4EE77FEA645C18BF76
:1004D8007FEA655C29D094EA050F08BF90EA020F0D
:1004E80005D054EA000C04BF1946104630BD91EA05
:1004F800030F1EBF0021002030BD5FEA545C05D108
:100508004000494128BF41F0004130BD14F5800446
:100518003CBF01F5801130BD01F0004545F0FE41BA
:1005280041F470014FF0000030BD7FEA645C1ABFEF
:10053800194610467FEA655C1CBF0B46024650EA26
:10054800013406BF52EA033591EA030F41F4002152
:1005580030BD00BF90F0000F04BF0021704730B5D8
:100568004FF4806404F132044FF000054FF00001AD
:1005780050E700BF90F0000F04BF0021704730B56E
:100588004FF4806404F1320410F0004548BF404243
:100598004FF000013EE700BF42004FEAE2014FEA98
:1005A80031014FEA02701FBF12F07F4393F07F4F73
:1005B80081F06051704732F07F4208BF704793F076
:1005C8007F4F04BF41F40021704730B54FF4607489
:1005D80001F0004521F000411CE700BF50EA01028C
:1005E80008BF704730B54FF000050AE050EA010235
:1005F80008BF704730B511F0004502D5404261EBA5
:1006080041014FF4806404F132045FEA915C3FF4E5
:10061800D8AE4FF003025FEADC0C18BF03325FEA82
:10062800DC0C18BF033202EBDC02C2F1200300FA33
:1006380003FC20FA02F001FA03FE40EA0E0021FA58
:1006480002F11444BDE600BF53B94AB9002908BFF6
:1006580000281CBF4FF0FF314FF0FF3000F06EB99B
:10066800ADF1080C6DE904CE00F006F8DDF804E001
:10067800DDE9022304B070472DE9F047089D0446E0
:100688008C46002B40F083808A42174647D9B2FA3D
:1006980082F242B1C2F1200024FA00F09140974062
:1006A80040EA010C94404FEA1748230CBCFBF8F6CB
:1006B8001FFA87FE08FB16C143EA014306FB0EF149
:1006C800994209D9FB1806F1FF3080F01981994247
:1006D80040F21681023E3B445B1AA4B2B3FBF8F029
:1006E80008FB103344EA034400FB0EFEA64509D973
:1006F8003C1900F1FF3380F00581A64540F20281E4
:1007080002383C4440EA0640A4EB0E0400261DB122
:10071800D4400023C5E900433146BDE8F08702B95B
:10072800FFDEB2FA82F2002A50D1CB1B4FEA174EF5
:100738001FFA87F80126B3FBFEFC210C0EFB1C33C5
:1007480041EA034108FB0CF38B4207D979180CF1F5
:10075800FF3002D28B4200F2E9808446C91AA3B264
:10076800B1FBFEF00EFB101143EA014408FB00F850
:10077800A04507D93C1900F1FF3302D2A04500F289
:10078800D9801846A4EB080440EA0C40BFE78B4226
:1007980009D9002D00F0B1800026C5E900013046D6
:1007A8003146BDE8F087B3FA83F6002E4AD18B4272
:1007B80002D3824200F2B880841A61EB030101205F
:1007C8008C46002DA8D0C5E9004CA5E7C2F120034E
:1007D80020FA03F6974001FA02F04FEA174ED94083
:1007E8003043030CB1FBFEF61FFA87F80EFB161117
:1007F80043EA014306FB08F1994204FA02F409D9D5
:10080800FB1806F1FF3C80F08D80994240F28A8007
:10081800023E3B445B1A81B2B3FBFEF00EFB103381
:1008280041EA034100FB08F38B4207D9791800F12C
:10083800FF3C73D28B4271D902383944CB1A40EA53
:10084800064678E7C6F1200C03FA06F422FA0CF300
:100858001C4320FA0CF701FA06F34FEA144E21FA6A
:100868000CF11F433B0CB1FBFEF91FFA84F80EFB99
:10087800191143EA014109FB08FA8A4502FA06F20E
:1008880000FA06F308D9611809F1FF3048D28A4501
:1008980046D9A9F102092144A1EB0A01BFB2B1FB73
:1008A800FEF00EFB101147EA014700FB08F8B845B7
:1008B80007D9E71900F1FF312ED2B8452CD90238F3
:1008C800274440EA0940A7EB0807A0FB02894F45E7
:1008D800C64649461AD317D05DB1B3EB0E0267EB93
:1008E800010707FA0CFCF2404CEA0202F740C5E99E
:1008F800002700263146BDE8F0872E4628460BE73C
:100908000646E9E61846FDE64345E5D2B8EB020E91
:1009180069EB04010138DFE70846D2E760468DE756
:100928008146B9E7664675E730464AE7ACF1020CFE
:10093800394413E702383C4424E700BF704700BF3E
:1009480030B4194C0022194BD4F88810184841F4D7
:100958007001184DC4F888101C68174944F0010448
:100968001C601A611C68204018609A61DA611A627A
:100978009A62DA621A635A639A63DA631A645A6487
:10098800186820F4802018601A662B681940B1F1A5
:10099800005F02D2094B01221A60034B4FF000623C
:1009A80030BC9A60704700BF00ED00E00044025878
:1009B8007FEDF6EA0010005C0000FFFF088100519F
:1009C800704700BF704700BF704700BF2DE9F04F68
:1009D8002DED028B85B040480C461546029200F07A
:1009E8002FFA3D4800F040FADFF814B13B4803F015
:1009F80089F93B488BED000A03F084F9FCEEC07AD4
:100A08003848CDED017A03F07DF937494FF07C5233
:100A18004FF07E530A6035490B60002D56D0DFED4C
:100A2800347A231F9FED338A4FF0000AB4EEE70AA9
:100A3800DFF8D0900393F1EE10FA58BFB0EE408A79
:100A48004FEA8A062C4CDFF8C080039DB4EC010AFB
:100A5800B7EE006B9BED007A404620EE080AB7EE31
:100A6800C77AB7EEC00A30EE060B20EE070BB7EEDA
:100A7800C00B88ED020A0BF087FC019AF7EE007AAA
:100A88001E4B40469BED007A08F124089B5CB4EEAF
:100A9800E77A08ED030A082B28BF0023F1EE10FAC5
:100AA80008F8243CCCBF104B104B55F8047F1A684B
:100AB800374448F8202C0BF0A3FAA14587ED000A2B
:100AC800C4D10AF1010A029B5345B9D105B0BDEC66
:100AD800028BBDE8F08F00BF700100243C010024A8
:100AE80048030024140300240803002410030024EE
:100AF800A69B443B000000000C0000241C000024BE
:100B08000C0300241C000024AC0000242DE9F04153
:100B18003748384C2DED048B88B004F1900500F06F
:100B280007FA334800F086F901213148B0EE408ACF
:100B380000F06CF9F7EE007A87EE889A9FED2E0A9E
:100B48004FF07C53DFED2D8A4FF00008204684EDEE
:100B5800038A84ED049A84ED020AC4ED058A636071
:100B68000BF012FC84ED060A04F8248BAC42E5D1A4
:100B7800234D01ACDFED230A01AF9FED230A0FCD12
:100B88000FC495E8070005F10C0684E8070001A9E1
:100B980042461E4803F080F8F1EE000AB0EE680AFB
:100BA8000FCE0FC796E8070005F1280601AF84E8C5
:100BB800070001A94246164803F06EF8F7EE000A4E
:100BC800B0EE680A0FCE0FC796E8070084E8070062
:100BD80001A942460F4803F05FF8A5F19C0000F018
:100BE80025F9A5F19C000C4900F014F9FEE700BFB7
:100BF80070010024AC0000240000C842000000007E
:100C0800FC01002400004843CDCCCC3D3C0100242D
:100C18004803002414030024D509000810B50E4A1F
:100C28000E4C0F490F480BF0BBFB0B4A0E49002036
:100C38000BF0B6FB2146084A0C480BF0B1FB2146E5
:100C4800054A0B480BF0ACFB2146034A0948BDE8AE
:100C580010400BF0A5BB00BF00000024C909000824
:100C6800CD09000870010024D10900083C010024C6
:100C78004803002414030024DFF834D0002103E0E3
:100C88000C4B5B58435004310B480C4B42189A42AA
:100C9800F6D30B4A02E0002342F8043B094B9A4280
:100CA800F9D3FFF74DFE0BF0B9FEFFF72FFF7047A2
:100CB80000000220D0CF000800000024900000248B
:100CC80090000024A4220024FEE70000F8B50446A2
:100CD80003232B4D40F6033C84F82F3004F12407FE
:100CE800284B0626284AC4F8313003F100732748F8
:100CF80003F54073264925600125C4F83530254B96
:100D080062604FF48072A0600020E1603021C4F876
:100D18003930214BA284C4F83D30C4F841C0A761E2
:100D280084F8275084F8295084F82B0084F82D0083
:100D380061612674194FC4E9070001F045F9284696
:100D48003021174D01F040F9164B4FF4A0600221F5
:100D580040F20712E365A4F860004FF48773124865
:100D680084F86760C4F84570C4F84950C4F84D0069
:100D780084F86310A4F86420A4F86830F8BD00BFB4
:100D88000007050004020404010508050905070514
:100D980006050A060403000106090002000108010D
:100DA800090101070001000404010B0110B5044604
:100DB80001F06AFE204601F027FCE01C01F0A4F9CE
:100DC80004F1630002F06CFB04F1670002F068FBB9
:100DD80004F1140000F0D2FFBDE8104002F07ABC24
:100DE8001F2982B009D8084B03EB410213F81130D0
:100DF800507843EA002002B0704701230C2043EAF0
:100E0800002002B0704700BFC0CA0008633002F07B
:100E180081BB00BF084608B501F0CCF8002001F0FE
:100E2800E9F80120BDE8084001F0E4B8543000F0CA
:100E380011BC00BF9FED010A704700BF008E3B4701
:100E480010B504468C3002F0AFFC04F1A80002F0A3
:100E5800ABFC04F1C40002F0A7FC04F1E000BDE81B
:100E6800104002F0A1BC00BF6C3002F0E7BC00BF2C
:100E7800F0B50F210646002406F1540706F18C054B
:100E88002DED028B97B0DFED288AFFF7A9FF034607
:100E980005A89FED268AADF80430019900F022F9E3
:100EA80010213046FFF79CFF03460DF12500ADF8F1
:100EB8000830029900F016F915213046FFF790FF27
:100EC80003460DF13600ADF80C30039900F00AF92D
:100ED80012213046FFF784FF03460DF14700ADF8B5
:100EE8001030049900F0FEF8042305A938461A4684
:100EF80000F00AF9E1B2384600F0C2FBD6ED627A9A
:100F080001340146B8EE670A2846F0EE480A002385
:100F180001221C3588EE800A02F02CFC042CE9D151
:100F280017B0BDEC028BF0BD008E3B476F12033B40
:100F38002DE9F04385B004460125FFF7C7FE0026DA
:100F480030224FF003090223C4F888211D2184F8B8
:100F58002430204684F8309004F5C67784F826506B
:100F680004F5C07884F8285084F82A5084F82C6056
:100F780084F82E60FFF734FF0346A4F88E513846F4
:100F8800A4F88C3102F08CFAD4F88811304601F0BC
:100F98001BF8D4F88811284601F016F82046FFF708
:100FA80005FF20460921FFF71BFF03461E212046A7
:100FB800ADF80C30FFF714FF034603A94046ADF81F
:100FC8000E3002F0C9FC494604F15C0002F0B4FAA4
:100FD8003146304602F0E6FA3146284602F0E2FA97
:100FE80020460C21FFF7FCFE03460B212046ADF8F6
:100FF8000830FFF7F5FE034631462046ADF80430C9
:10100800FFF7EEFED4ED627A03469FED350A04F150
:101018006C00F8EE677A0299ADF8003080EE270A86
:10102800DDE9003202F0E4FB11212046FFF7D8FE8B
:10103800034684F8835104F281101BB284F884615A
:10104800C3F3072284F8813184F8822102F028FA58
:1010580020461421FFF7C4FE034603A904F1FC004F
:10106800ADF80C3002F01AFC20461321FFF7B8FE49
:10107800034603A904F58170ADF80C3002F00EFCAC
:1010880020460921FFF7ACFE03461E212046ADF895
:101098000C30FFF7A5FE034603A94046ADF80E3015
:1010A80002F05AFC2A46294604F5847002F0FEFB39
:1010B8002046FFF7DDFE3146384602F02BFA0A20BB
:1010C80001F052FD2946384602F024FA1123C4F8EB
:1010D800943101F047FDC4F8900105B0BDE8F083F4
:1010E800008E3B4710B483B00022ADF804100321F2
:1010F800BDF80440817004800274C27003B05DF8CA
:10110800044B02F0CDB900BF2DE9F04F0025DE4CAD
:10111800DE4F964642608DB0037007F11C0284F8DA
:10112800EEE08446A4F8FB50C4F8EF50C4F8F3503E
:10113800C4F8F750BD6101950495C7E90055C7E9A2
:101148000255C7E904554368CDE90255C4E9477219
:10115800CDE90555CDE90755CDE90955002B00F036
:101168006B810E460868A0464968F368B2683D80FE
:10117800A8E80F00337C88F80030337C84F8EF301F
:10118800DCF80430012B40F2578133467D8053F858
:10119800118F58689968DA68C4F81180C4F8150086
:1011A800C4F81910C4F81D201B7C84F8213096F867
:1011B800213084F8F030DCF80430022B40F23C8116
:1011C8003346BD8053F8228F58689968DA68C4F8A6
:1011D8002280C4F82600C4F82A10C4F82E201B7CEC
:1011E80084F8323096F8323084F8F130DCF8043084
:1011F800032B40F221813346FD8053F8338F586822
:101208009968DA68C4F83380C4F83700C4F83B102A
:10121800C4F83F201B7C84F8433096F8433084F8A8
:10122800F230DCF80430042B40F20681B14604F1B8
:1012380044083D8159F8440FD9F80C30D9F8041006
:10124800D9F80820A8E80F0099F8103088F800307D
:1012580096F8543084F8F330DCF80430052B40F26B
:10126800EB8033467D8153F8558F58689968DA6862
:10127800C4F85580C4F85900C4F85D10C4F861205A
:101288001B7C84F8653096F8653084F8F430DCF817
:101298000430062B40F2D0803346BD8153F8668F68
:1012A80058689968DA68C4F86680C4F86A00C4F8AF
:1012B8006E10C4F872201B7C84F8763096F876306D
:1012C80084F8F530DCF80430072B40F2B58033465B
:1012D800FD8153F8778F58689968DA68C4F8778081
:1012E800C4F87B00C4F87F10C4F883201B7C84F802
:1012F800873096F8873084F8F630DCF80430082B0D
:1013080040F29A80B14604F188083D8259F8880F66
:10131800D9F80C30D9F80410D9F80820A8E80F003B
:1013280099F8103088F8003096F8983084F8F7303B
:10133800DCF80430092B7FD9334608F101054FF05A
:10134800000953F8998FA7F8129058689968DA68D5
:10135800C4F899806860A960EA601B7C2B7496F8D1
:10136800A93084F8F830DCF804300A2B64D9334605
:10137800A7F8149053F8AA8F58689968DA68C4F8DF
:10138800AA80C5F81500C5F81910C5F81D201B7CE2
:1013980085F8213096F8BA3084F8F930DCF8043052
:1013A8000B2B49D93346A7F8169053F8BB8F5868CA
:1013B8009968DA68C4F8BB80C5F82600C5F82A1011
:1013C800C5F82E201B7C85F8323096F8CB3084F88F
:1013D800FA30DCF804300C2B2ED9B24605F133086C
:1013E800A7F818905AF8CC0FDAF80C30DAF804108D
:1013F800DAF80820A8E80F009AF8103088F80030CA
:1014080096F8DC3084F8FB30DCF804300D2B13D967
:101418003346A7F81A9053F8DD7F58689968DA6858
:10142800C4F8DD70A864E9642A651B7C85F854302B
:1014380096F8ED3084F8FC3015484FF480719CF82C
:1014480000305FFA8EF24FF480260027C4F824019A
:101458000120A4F838110821C4F83C210022C4E96D
:101468004A67C4E94C01002600270320002184F8BC
:101478004021C4F85821C4E95267C4E95401002B3B
:1014880000F08B8006E000BF8003002400000030DD
:1014980000200240012200200121013B84F85C2148
:1014A800C4E95A01082B0AD8DFE803F005868B90B7
:1014B800959A9FA5AC0003224023C4E958235548B8
:1014C800002503F001F901A95248019503F058FAE3
:1014D80040F2FF73022204200021CDE9062394F88C
:1014E800EE30CDE90801002B48D00627DFF85491EB
:1014F800494EDFF85481DFF854B1DFF854A119E000
:10150800022A30D0012A40D15B78012B3FD0002B32
:101518000CBF33460023013504A93E48EDB2CDE99E
:10152800043702F0F5FC94F8EE30AB4226D93B4B79
:1015380053F8257005EB0513E25C2344002ADFD13C
:101548005B78062B1DD0072B23D0022B2CD0032B26
:101558002CD06BB3012B2DD0042B21D0052B304B75
:1015680018BF0023D7E75B78042B0CD0052B12D0CB
:10157800C3B1012B2B4B18BF0023CCE70DB0BDE83E
:10158800F08F294BC7E74346C5E70023C3E74B461F
:10159800C1E75346BFE75B46BDE784F85C318EE799
:1015A800224BB8E7224BB6E7224BB4E7224BB2E70F
:1015B800224BB0E7224BAEE707226023C4E9582349
:1015C8007DE70F228023C4E9582378E71F22A02350
:1015D800C4E9582373E73F22C023C4E958236EE7C0
:1015E8007F22E023C4E9582369E7FF224FF4807380
:1015F800C4E9582363E740F2FF124FF49073C4E93B
:1016080058235CE740F2FF324FF4A073C4E9582333
:1016180055E700BFA40400240002B02500CB000851
:101628000000B84F0008302E0800900C0000844BD2
:101638000004002A0040C03A0080F03E0000214328
:10164800000052472000F0141000C0100001802153
:101658008000501D38B5094C40F2FF724FF001115F
:1016680004F59275284603F039F9284694F8EE20D7
:10167800D4F81C11BDE8384002F09EBE8003002457
:10168800034B0D29D3F81C0198BF00EB41007047AC
:10169800800300241D4B02689A4200D070471C4BFF
:1016A8004FF48061D3F8D82070B542F02002194D6C
:1016B80004460920C5F8981182B0C5F88C014FF48A
:1016C8000061C3F8D82005F5C476D3F8D8204FF4C4
:1016D8000053114802F02002C5F89C11C5F8A0314A
:1016E8004FF4807101920023019AC5F888013046B1
:1016F800C5F8A411C5E96433C5E96A3307F076F97A
:10170800E664C5F8C04102B070BD00BF00200240C9
:10171800004402588003002440000240014807F0BA
:10172800F5BC00BF0805002402682DE9F84F264BD8
:101738009A4201D0BDE8F88FDFF8908098F8EE3033
:10174800002BF7D0002408F1EE0A08F1040608F18E
:10175800FE05A14619E003F00101C3F3400BC3F3F2
:101768008007304601F0D6FE5946301D01F0D2FE02
:10177800394606F1080001F0CDFE98F8EE30013444
:1017880011360235A2B29342D4D91AF8012FC4EB0C
:10179800C40C002AF3D0D8F81C110027D8F820214F
:1017A8002B78BB4631F8140002EB4C121B0139466A
:1017B800D0522B8801339BB22B809AF800209A4292
:1017C800C9D2A5F80090CCE700200240800300248D
:1017D8002DE9F04FD64F8DB0DFF86CB3BB6807F139
:1017E8001006D7F810580BF582640BF1100207F5B4
:1017F800826903EB800E069483000A9204EB850845
:10180800DBF8084006EB850C039302EB850197F89B
:101818001C3809EB850ACDF81C8004EB80000B917D
:10182800CDE9086CCDE9049A002B00F0DA80012B91
:1018380040F0C480002D00F066810B4600240EF1B4
:10184800040900F10408DFEDBB5A714602950193C3
:1018580051F8343059F8345083F4000E50F83430CD
:1018680085F4000583F4000AAEF5000306EE103A8D
:1018780058F83430AAF5000A013483F4000EA5F5AF
:10188800000306EE90AAB8EEC66A07EE103AAEF567
:101898000003F8EEE66A07EE903AB8EEC77A019BC5
:1018A80026EE256AF8EEE77A66EEA56A27EE257A2F
:1018B800A6EC016A67EEA57AE2EC016AACEC017A63
:1018C800E3EC017A0193029BA342C1D11D467B68D8
:1018D8002A4604A908A89847039ADBF80C00F96877
:1018E80097F81C3810441144002B00F0B180012BEC
:1018F8005DD1DDF810A00023DDF81C900E1DDDF889
:101908001880041DDDF814E09FED8B7ADFF83CC2E7
:10191800DFED8A6A8A4F3BE0F4EEE67AF1EE10FAE0
:10192800C0F22B813A46FEEC017A41F83320F4EEFE
:10193800C77AF1EE10FA3FD9F4EEE67AF1EE10FA32
:10194800C0F222813A46F8EC017A46F83320F4EEE8
:10195800C77AF1EE10FA2DD9F4EEE67AF1EE10FA24
:10196800C0F219813A46F9EC017A40F83320F4EED6
:10197800C77AF1EE10FA14D9F4EEE67AF1EE10FA1D
:10198800C0F2C7803A4644F8332001339D420ED94D
:10199800FAEC017AF4EEC77AF1EE10FABCD8624696
:1019A800C1E7624644F8332001339D42F0D80DB0B8
:1019B800BDE8F08F6246D6E76246C4E77B682A46F0
:1019C80004A908A89847039ADBF80C00F96897F867
:1019D8001C3810441144CBB3012BE8D1002D88D119
:1019E800E5E7002D00F08F800EF1040900F10408EE
:1019F800DFED545A3EF9334006EE104A30F93340D1
:101A080006EE904A39F93340B8EEC66A07EE104A36
:101A180038F93340F8EEE66A013307EE904AB8EE3B
:101A2800C77A26EE256A9D42F8EEE77A66EEA56A41
:101A380027EE257AA6EC016A67EEA57AE2EC016A40
:101A4800ACEC017AE1EC017AD4D140E7002DAED0BC
:101A5800DDF810A00023DDF81C900E1DDDF81880BD
:101A6800041DDDF814E09FED347ADFF8E0C0DFED07
:101A7800336A334F38E0F4EEE67AF1EE10FA4FDBD2
:101A88003A46FEEC017A41F83320F4EEC77AF1EEDB
:101A980010FA36D9F4EEE67AF1EE10FA58DB3A4647
:101AA800F8EC017A46F83320F4EEC77AF1EE10FA32
:101AB80025D9F4EEE67AF1EE10FA50DB3A46F9EC65
:101AC800017A40F83320F4EEC77AF1EE10FA14D90F
:101AD800F4EEE67AF1EE10FA48DB3A4644F83320A1
:101AE80001339D427FF663AFFAEC017AF4EEC77AD0
:101AF800F1EE10FABFD86246C3E76246EEE76246E7
:101B0800DDE76246CCE77B682A4604A908A898471F
:101B18004DE7B0EE676ABEEEE46A16EE102A32E7C9
:101B2800B0EE676ABEEEE46A16EE102AA9E700BFB7
:101B3800800500240000003404FF7FBF04FF7F3FBE
:101B480082FF7F0000000038A80D00247E0080FF7F
:101B5800B0EE676ABEEEE46A16EE102AA0E7B0EEB1
:101B6800676ABEEEE46A16EE102AA8E7B0EE676A66
:101B7800BEEEE46A16EE102AB0E7B0EE676ABEEE73
:101B8800E46A16EE102ACEE6B0EE676ABEEEE46AA4
:101B980016EE102AD7E6B0EE676ABEEEE46A16EED5
:101BA800102AE0E60B469200014618460AF05ABF92
:101BB800F8B5044601220F4658484FF4804106F014
:101BC80029FE2368564A934263D02032934260D05C
:101BD800544DD5F8184805F1100095F81C28BE009A
:101BE800AB686408012A03EB870100EB840452D038
:101BF800A0420FD002469FED4C7A51F8043B1BB22D
:101C080007EE903AF8EEE77A67EE877AE2EC017A27
:101C18009442F2D105F5826495F81E78D5F810281B
:101C280021462B6802FB07F29847D5F8182895F843
:101C38001C18EB6852080129334404EB820240D097
:101C480094421ED09FED397A3948DFED3A6A9FED0C
:101C58003A6A08E0F4EEE67AF1EE10FA55DBA242B1
:101C680043F8041B0DD0F4EC017A47F6FE71F4EE4C
:101C7800C77AF1EE10FAEDD80146A24243F8041BE8
:101C8800F1D100224FF480412448BDE8F84006F025
:101C9800C1BD2A4D9DE7A042BCD002469FED287ADF
:101CA80051F8043B83F40003A3F5000307EE903AD0
:101CB800F8EEE77A67EE877AE2EC017A9442EFD1A0
:101CC800A8E79442DDD0043B9FED187A1D4DDFED67
:101CD800196A1D4808E0F4EEE67AF1EE10FA0DDB19
:101CE800A24243F8041FCCD0F4EC017A0146F4EE8A
:101CF800C77AF1EE10FAEED82946F1E7B0EE676A36
:101D0800BEEEE46A16EE101AEAE767EE867AFDEE92
:101D1800E77A17EE901A09B2A1E700BF0018025837
:101D280004580140A80D00240000003804FF7FBFBC
:101D38000280FFFF04FF7F3F00FEFF46800500246E
:101D4800000000347E0080FF82FF7F00014807F01A
:101D5800DDB900BF601F0024014807F0D7B900BFF4
:101D6800D81F0024014807F0D1B900BF5020002433
:101D7800014807F0CBB900BFB81D00242DE9F04792
:101D88000646814C814D88B0814AD0E90030C4F8BC
:101D98002468802BC5F82468077828BF802390F82A
:101DA8000B9090F80C80C4F81038C5F81038C37838
:101DB800226084F81C3803792A6085F81C3801F001
:101DC8001DF9B06808B100F0D1FEF06808B100F064
:101DD800CDFED5F810184FF0020E6E4A17F0FD0F21
:101DE8000191D4F8101802F500606B4B01FA0EFA55
:101DF8000199AB6003F5006301FA0EF1E260A0609F
:101E0800C4F818A8EB60C5F8181884F81EE885F817
:101E18001EE82ED1F14584F81D9800F08A80B9F1AA
:101E2800030F76D0B9F1010F7DD0914600F2FF7310
:101E380040F6FE72A3EB0903934240F28C804FF404
:101E4800006200210AF01CFE48464FF4006200219F
:101E58000AF016FE4FF40072002150480AF010FEF6
:101E68004FF4007200214E480AF00AFE0023C4F81D
:101E780014387B1E012B10D900274A484FF48042A2
:101E880001230024077002A947480594CDE90223DD
:101E980006F0C8FA08B0BDE8F087B8F1010F85F878
:101EA8001D8854D0B8F1020F0AD171681023F06868
:101EB8004BF68032897AB1FA81F1490907F08AFD37
:101EC800A86840F6FE72ED6800F2FF735B1B934250
:101ED8004ED94FF4006200210AF0D2FD28464FF493
:101EE800006200210AF0CCFD4FF4007200212F4857
:101EF800A7F102070AF0C4FD4FF4007200212C4834
:101F08000AF0BEFDB7FA87F700237F09C4F8143832
:101F1800B3E740F60133ADF80830029807F060FEE9
:101F2800D4E9020982E7B06807F014FDD4E9020990
:101F38007CE7716810234BF68032B068497AB1FAB1
:101F480081F1490907F046FDD4E902096EE7F06816
:101F580007F000FDB4E7031FA9F1040200F2FC70CA
:101F6800002143F8041F834242F8041FF9D171E7A6
:101F7800031F2A1F00F2FC70002143F8041F984237
:101F880042F8041FF9D1AFE780050024A80D00240A
:101F9800AD1B0008FC000030FC1000309005002448
:101FA80090090024D015002400180258B80D002408
:101FB800B811002402490122024B48601A70704788
:101FC80080050024D015002468B9084B802993F8AF
:101FD8001E2828BF8021C3F8101801FB02F1490010
:101FE800C3F818187047024BF0E700BF80050024BB
:101FF800A80D002410B5C0B9234CD4F82438B4F87F
:1020080018285B685B7973B3E168204804F0DCF852
:10201800D4F82438B4F818285B68DB7973BBA16856
:102028001B48BDE8104004F061B91A4CD4F82438B4
:10203800B4F818285B689B7983B1E168164804F006
:10204800C3F8D4F82438B4F818285B681B7A7BB92D
:10205800A1681248BDE8104004F048B9A1680E48CC
:1020680004F044F9EDE7A168084804F03FF9CFE728
:10207800E1680A48BDE8104004F0A6B8E1680448E1
:10208800BDE8104004F0A0B880050024C820002452
:10209800C81E0024A80D0024301E0024201D002482
:1020A800084B1A78012A07D10368074A934206D0D9
:1020B8002032934203D070470021FFF779BD0020FA
:1020C800FFF786BBD0150024045801400B4B1A7843
:1020D800012A07D103680A4A934209D02032934261
:1020E80006D07047074BD3F818184908FFF760BDAA
:1020F800044BD3F818084008FFF76ABBD015002432
:1021080004580140800500242DE9F04FA44C0346F3
:10211800ABB0204623655F7893F8008003F052FA4D
:10212800E8B9012F4FF001059E49034614BF4FF44B
:1021380080124FF40002E060A560C4E9001592FA2D
:10214800A2F2B2FA82F24FF48076E0612046013AB8
:102158002362C4E9042603F0C9F9034618B1012033
:102168002BB0BDE8F08F4FF0660C41F28832204664
:102178000EA91496179313931B93CDF838C0CDE985
:102188001533CDE9193303F03BFA0028E7D1992339
:1021980041F288320EA920460E9303F031FA002846
:1021A800DDD14FF0000B4FF0010C4FF0050A4FF056
:1021B8008079249008AA21901CA9299041F288339B
:1021C800CDF870A0CDF89490CDE908BC4FF0100B75
:1021D8004FF0010CCDE90ABC4FF0000B4FF4800C16
:1021E800CDE92260CDE927002046CDE90CBC03F0FB
:1021F80073FB0028B3D1ADF808001390CDE9146043
:10220800CDE91609CDE91850CDE91A00002F00F0E4
:10221800CB80F023ADF80830C02341F288320EA9F4
:102228005F480E9303F0ECF9002898D141F2883208
:102238005B4802A903F04EFA044600288FD1002615
:1022480001274FF480754FF080794FF0000A4FF462
:10225800800B219441F28833299408AA1CA950487C
:102268002295CDF89490CDE90867CDE9234410264E
:102278000127CDE927440524CDE90A671C94CDE957
:102288000CAB03F029FB00287FF469AF0124062377
:102298008DF8070041F2883213901CA91B902190F9
:1022A80029900E941C93CDE91450CDE91609CDE977
:1022B8001900CDE92250CDE92400CDE9270038489E
:1022C80003F09EF900287FF44AAF10260127052065
:1022D80041F2883308AA1CA91C903148CDF8949083
:1022E800CDE90A6702260227CDE90CABCDE90867DC
:1022F80003F0F2FA00287FF432AF41F288320EA9D7
:10230800274803F07DF900287FF429AF402341F2E4
:1023180088320DF1070122488DF8073003F0DAF909
:1023280000287FF41CAF10260127052002AA41F2DD
:1023380088330EA90E901A48CDF85C90CDE9046751
:1023480040264027CDE906ABCDE9026703F0C4FA81
:10235800064600287FF403AF229500252196052024
:10236800299601271C9008AA41F288331CA90C4819
:10237800CDF89490CDE92366CDE927660126CDE90D
:1023880008561026CDE90CABCDE90A6703F0A4FA8C
:1023980000287FF4E4AEB8F1000F50D00020DFE64B
:1023A800D415002400500052612341F288320EA94E
:1023B80020460E9303F024F900287FF4D0AE41F2B2
:1023C800883202A9204603F003FA00287FF4C7AE3A
:1023D800BDF808300625259041F2883223F07803AD
:1023E800219029901CA943F0400322961C95ADF832
:1023F8000830CDE92300CDE92700204603F000F995
:1024080000287FF4ACAE10260127204602250224BE
:1024180041F2883308AA1CA9CDF870A0CDF8949091
:10242800CDE90A6700264FF48007CDE90845CDE9D4
:102438000C6703F051FA00283FF4EEAE8FE6EB2468
:10244800A0264FF4005706251C9400244FF0805016
:1024580000234FF480784FF4406929900EAA1CA9F4
:102468000C48CDE91E67CDE920454FF440464FF0B2
:10247800407700240025CDE92733CDE92289CDE92D
:102488002467CDE90E4503F09BFA003818BF0120F8
:1024980066E600BFD41500243E4B02682DE9F047DC
:1024A8009A428CB04FF00005CDE90755CDE90955A2
:1024B8000B9502D00CB0BDE8F087374B02263749A0
:1024C80005AFD3F8D420B146DFF8D4A04FF0030805
:1024D80042F48042C3F8D420D3F8D42002F48042D6
:1024E8000092009AD3F8E02042F04002C3F8E020BE
:1024F800D3F8E02002F040020192019AD3F8E020DC
:1025080042F02002C3F8E020D3F8E02002F02002D5
:102518000292029AD3F8E02042F01002C3F8E020B9
:10252800D3F8E02002F010020392039AD3F8E020D7
:102538003243C3F8E020D3F8E03033400493049BDF
:1025480003C90590ADF81810DAF850403444023643
:10255800204601F06BFC034620461C4601F06EFC49
:1025680017F8013B024607A920460B93CDE9072936
:10257800CDE9095805F056FF0E2EE5D100225C2062
:10258800114602F073FA5C2002F0AAFA0CB0BDE81A
:10259800F08700BF005000520044025840CB0008AA
:1025A800D4150024124B02689A4200D07047114A91
:1025B800D2F8D43070B523F4804302250E4EC2F809
:1025C800D430346D2C440235204601F02FFC0346EC
:1025D80020461C4601F032FC0146204606F046F82B
:1025E8000E2DEED15C20BDE8704002F087BA00BF26
:1025F8000050005200440258D4150024014803F04A
:1026080067BA00BFD41500242DE9F043444C8BB0C1
:10261800A063037823B1002528460BB0BDE8F083FA
:10262800404A0A23002601276260082208932023D3
:1026380002A9201DC4E90267C4E9042340264FF417
:10264800C07700224FF40063C4E90667C4E9082391
:102658004FF48056002702220723C4E90A67CDE910
:1026680002230426032200230827CDE90623CDE907
:10267800046702F0B9FB054600284CD14FF0010869
:102688004FF010090126002702A94FF4805201904B
:10269800201DCDE902894FF002084FF01009CDE95D
:1026A800046702F0CBFB642007F03CF902A94FF461
:1026B8008052201DCDE90467CDE9028904264FF038
:1026C80003084FF01009002702F0B8FB02A94FF4E5
:1026D8008052201DCDE90467CDE9028902F0AEFBE6
:1026E80040F232234FF0010C042601931027019B7E
:1026F80002A94FF48052201DCDE904C3CDE9026739
:1027080002F09CFB201D40F6060102F0B7FB2846AC
:102718000BB0BDE8F083012528460BB0BDE8F08377
:102728003016002440410052694A2DE9F0431568EB
:102738008FB015B10FB0BDE8F083664B01210C24B2
:10274800002611600327D3F8D4204FF683784FF082
:10275800020908A942F480525F48C3F8D420D3F88C
:10276800D42002F480520092009AD3F8E02042F07C
:102778001002C3F8E020D3F8E02002F01002019222
:10278800019AD3F8E02042F04002C3F8E020D3F8E1
:10279800E02002F040020292029AD3F8E02042F0D0
:1027A8000802C3F8E020D3F8E02002F00802039200
:1027B800039AD3F8E02042F48072C3F8E020D3F8FB
:1027C800E02002F480720492049AD3F8E02042F0E8
:1027D8008002C3F8E020D3F8E02002F080020592DE
:1027E800059AD3F8E02042F02002C3F8E020D3F89D
:1027F800E02002F020020692069AD3F8E02042F088
:102808000402C3F8E020D3F8E0300C9403F004038A
:102818000793079BCDE90A67CDE9088905F002FE11
:1028280048F23712022308A92C480C94DFF8C0801C
:10283800CDE90A67CDE9082305F0F4FD4CF20372EF
:10284800022308A926480C94CDE90A67CDE9082394
:1028580005F0E8FD40F2FF62022308A921480C9424
:10286800CDE90A67CDE9082305F0DCFD4FF60C72C7
:10287800022308A91C480C94CDE90A67CDE908236E
:1028880005F0D0FD4FF63F02022308A917480C9423
:10289800CDE90823CDE90A6705F0C4FDD8F838006A
:1028A800013001F0C3FAD8F838300646581C01F058
:1028B800C5FA02220746032308A930460C94089754
:1028C8000B93CDE9092505F0ADFD0FB0BDE8F08308
:1028D8002816002400440258001002580018025814
:1028E800000C025800200258001C0258001402581C
:1028F80030160024000000002DE9F04FCFB04C2224
:1029080000210AA80AF0BCF82022002102A80AF037
:10291800B7F8BC2200211EA80AF0B2F8022006F07F
:102928006BFF514A0021514B01911846D16A21F0A1
:102938000101D162D26A02F0010201929A6942F45D
:1029480040429A619B6903F440430193019B836968
:102958009B04FCD5464A022421204FF48031936A17
:102968000126042523F0030323439362C823082286
:102978001096169300231794199415951C93CDE976
:102988000A0105210AA8CDE913441891CDE91A23B3
:1029980003F040FF00B1FEE73F260327002208238B
:1029A80002A82146CDE90267CDE904234026402349
:1029B8004FF480624027CDE90823CDE9066704F08B
:1029C80065FA034600B1FEE780220A2602270025A1
:1029D80034924FF4807233948024439200224FF053
:1029E80054084FF008091EA8CDE93B334FF4805333
:1029F80035934FF4803346930623CDE92267CDE91A
:102A0800244540F22716402704242025CDE9262313
:102A18004FF480620023CDE92867CDE92A45CDE946
:102A28002C230FF23C0BDBE900AB00260227002425
:102A3800002500224FF44013CDE91EABCDE92089D3
:102A4800CDE92E67CDE93045CDE93E2304F07EFC83
:102A580000B1FEE706F0F6FE4FB0BDE8F08F00BF0C
:102A680009130F030400000000040058004802582E
:102A78000044025808B506F043FFBDE8084002F0DC
:102A8800B5B800BFFFBE704770B584B0012506F029
:102A980009FF0024FFF730FF02F05CF84FF04051C7
:102AA8002E4A4FF4807368460191ADF80050CDE985
:102AB800022302F071F840F2011119224FF040434D
:102AC8006846ADF80E108DF8082001938DF8015076
:102AD8008DF80D408DF80A4002F05EF8042002F0EF
:102AE80049F807F097F8BFF34F8FBFF36F8F1C4B70
:102AF800C3F85042BFF34F8FBFF36F8F5A6942F448
:102B080000325A61BFF34F8FBFF36F8FC3F8844011
:102B1800BFF34F8FD3F8801043F6E074C1F34E3201
:102B2800C1F3C901520102EA0405084645EA807664
:102B38000138C3F86062461CF8D1203A12F1200F20
:102B4800F1D1BFF34F8F5A6942F480325A61BFF313
:102B58004F8FBFF36F8F04B070BD00BF0D0001032E
:102B680000ED00E006F0D8BE06F0DCBE38B505463C
:102B780001F06CF904462B78022B3FD0032B35D09B
:102B8800012B2BD02868214B214A1860A9889980ED
:102B980022606B79012B18D0022B1CD0C3B1002501
:102BA80001232046E360A5602562C4E90455C4E911
:102BB800065502F02DFA2946204602F057FB294611
:102BC8002046BDE8384002F07DBB124B6360E6E763
:102BD800114B6360E3E7114B6360E0E72868104B33
:102BE800104A1860A98899802260D2E728680E4B9D
:102BF8000E4A1860A98899802260CAE728680C4B99
:102C08000C4A1860A98899802260C2E76C160024D3
:102C1800005400403211D0208A62E0301A09801036
:102C2800741600240058004084160024001C005824
:102C38007C160024005C00409C4A0368934230B52F
:102C48008FB055D09A4A934200F09C80994A93429B
:102C580000F0EE80984A934201D00FB030BD974BF8
:102C6800974CD3F8E020601C42F00202C3F8E02041
:102C7800D3F8E03003F002030893089B01F0D6F87C
:102C88000546601C01F0DAF8227812210023012A97
:102C9800CDE90901CDE90B3301D804230D9309A926
:102CA8002846019105F0BEFB864801F0BFF80546AD
:102CB800844801F0C3F8227800231224012A0199DC
:102CC800CDE90904CDE90B3301D804230D93284637
:102CD80005F0A8FB794BD3F8F42042F08002C3F842
:102CE800F420D3F8F43003F080030993099BB4E788
:102CF800724B754CD3F8E020601C42F00202C3F816
:102D0800E020D3F8E03003F002030293029B01F0C5
:102D18008DF80546601C01F091F8227812210023F5
:102D2800012ACDE90901CDE90B3301D804230D931C
:102D380009A92846019105F075FB644801F076F869
:102D48000546624801F07AF8227800231224012A05
:102D58000199CDE90904CDE90B3301D804230D937A
:102D6800284605F05FFB554BD3F8E82042F40012E3
:102D7800C3F8E820D3F8E83003F400130393039B67
:102D88000FB030BD4D4B524CD3F8E020601C42F0E0
:102D98008002C3F8E020D3F8E02002F08002049219
:102DA800049AD3F8E02042F00202C3F8E020D3F8F6
:102DB800E03003F002030593059B01F037F8054660
:102DC800601C01F03BF8227812210023012ACDE98A
:102DD8000901CDE90B3301D804230D9309A928462D
:102DE800019105F01FFB3B4801F020F805463948E2
:102DF80001F024F8227800231224012A0199CDE950
:102E08000904CDE90B3301D804230D93284605F0B6
:102E180009FB2A4BD3F8E82042F48002C3F8E820E3
:102E2800D3F8E83003F480030693069B0FB030BD57
:102E3800294C601C00F0FAFF0546601C00F0FEFFFC
:102E4800227812210023012ACDE90901CDE90B33AB
:102E580001D804230D9309A92846019105F0E2FA47
:102E68001E4800F0E3FF05461C4800F0E7FF227803
:102E780000231224012A0199CDE90904CDE90B3375
:102E880001D804230D93284605F0CCFA0B4BD3F850
:102E9800E82042F40002C3F8E820D3F8E83003F44D
:102EA80000030793079B0FB030BD00BF00540040DC
:102EB80000580040005C0040001C005800440258C4
:102EC80084160024871600246C1600246F1600242C
:102ED80074160024771600247C1600247F1600241C
:102EE800184BF0B5197983B0012929D00022114671
:102EF8000024154802230125144F4BF68036019211
:102F0800009107600662C461114EC460C0E90135D2
:102F1800C0E90544C0E90B4403F094F80D480223C6
:102F28004461C461C46044630660DDE90012C0E91D
:102F38000154C0E90B4403B0BDE8F04003F082B887
:102F48000222D5E794160024301E0024045C0140B8
:102F5800245C0140201D002470B5254D82B0E9781D
:102F6800012936D000226B7A1146002B35D0012B6F
:102F78003AD16B791F48002B0CBF0323022343600F
:102F880000244BF68036022306628460C461C46064
:102F9800C0E90544C0E90B441648CDE9001203F026
:102FA80051F8EB7914480125A3424FF0020344611C
:102FB8000CBF03260226C4614660C4604463856072
:102FC800DDE90012C0E90B4402B0BDE8704003F02F
:102FD80039B86B7A0222002BC9D16B790548B3FA4C
:102FE80083F35B094360CBE7024801234360C7E7EB
:102FF80094160024C8200024C81E0024F8B5194FD0
:10300800044600F1200C3E462068103454F80C1C8D
:10301800354654F8082C103654F8043C64450FC55E
:10302800F2D12378104A3370104C11493B78114D76
:103038001460012B104804F58064104A0D60104993
:103048000460116005D0022B01D033B1F8BDFFF741
:1030580083FFBDE8F840FFF743BFBDE8F840FFF73E
:103068007BBF00BF94160024C820002404580140E8
:10307800C81E002424580140301E0024201D0024AE
:10308800245C0140B14BD3F8E02042F010022DE956
:10309800F04FC3F8E02093B0D3F8E0200446AC4DDD
:1030A80002F010020092009AD3F8E02042F00202E7
:1030B800C3F8E020D3F8E02002F002020192019A5E
:1030C800D3F8E02042F04002C3F8E020D3F8E02033
:1030D80002F040020292029AD3F8E02042F008027D
:1030E800C3F8E020D3F8E02002F008020392039A24
:1030F800D3F8E02042F00402C3F8E020D3F8E0203F
:1031080002F004020492049AD3F8E02042F001028B
:10311800C3F8E020D3F8E02002F001020592059AF6
:10312800D3F8E02042F48072C3F8E020D3F8E0102E
:10313800026801F48071AA4206910699D3F8E0105A
:1031480041F08001C3F8E010D3F8E01001F08001ED
:1031580007910799D3F8E01041F02001C3F8E01077
:10316800D3F8E01001F02001089108990CD0794BB0
:103178009A4200F00781784B9A423AD0774B9A42AC
:1031880075D013B0BDE8F08F754A1168002900F0BA
:103198006E810025DFF8E89101310DF1340809EB63
:1031A800450A2F465FFA85FB1160504615B96D4BED
:1031B800597AA9B900F03AFE0646504600F03EFE9C
:1031C80002230146062230461192CDE90D134146ED
:1031D800CDE90F7705F026F9BBF1040F00F00E8159
:1031E800013509EB450A5FFA85FB5046002DDED014
:1031F800E0E75D4B1A6862B95449D1F8F00040F431
:103208000000C1F8F000D1F8F01001F400010B91B2
:103218000B9961680132554D4FF4804021F002014D
:103228001A60534A4FF4805301294FF059072A6016
:103238004FF480710CBF002240226B614FF480660E
:103248000023AA604FF40032A8612846EB606B6245
:103258006F602E61C5E9071205F0C8FB22683F4B75
:10326800C4F884509A42AC63C4F8805089D13E4B6C
:103278001A68002A00F0ED8000253E4E01320DF15B
:103288003408A9464FF0020A30465FFA85FB1A60F7
:10329800CDB9344B9B7A7BB900F0C8FD0746304660
:1032A80000F0CCFD0A230D901095CDE90EA5384607
:1032B8004146119305F0B6F8013502365FFA85FBF1
:1032C8003046002DE5D000F0B1FD0746304600F04D
:1032D800B5FDBBF1020F02464FF00A0341463846DE
:1032E800CDE90D2ACDE90F9900F0B180119305F0D1
:1032F80099F8BBF1040FDFD163685A221E4D4FF4D1
:10330800806623F002031D496A604FF48052012B46
:103318004FF4804029604FF480710CBF0023402394
:10332800A8612846AB600023C5E904624FF4003267
:10333800EB606B62C5E9071205F058FBC4F88450CE
:10334800AC63C4F8805013B0BDE8F08F0044025855
:103358000458014024580140045C0140245C0140A9
:103368008C16002494160024901600245020002463
:1033780058000240AB160024B81D0024700002401B
:10338800A1160024404A136863B94049D1F8F000F7
:1033980040F48000C1F8F000D1F8F01001F4800189
:1033A8000A910A9961680133394D4FF4804021F040
:1033B80002011360374A4FF4805301294FF0580730
:1033C8002A604FF480710CBF002240226B614FF4D9
:1033D80080660023AA604FF40032A86128466F6017
:1033E8002E61EB606B62C5E9071205F0FFFA2268EF
:1033F800C4F88450AC63C4F88050BCE663685722B4
:10340800254D4FF4806623F0020324496A604FF487
:103418008052012B4FF4804029604FF480710CBF1B
:1034280000234023A8612846AB600023C5E9046255
:103438004FF40032EB606B62C5E9071205F0D6FA6B
:103448002268C4F88450AC63C4F880508FE608231F
:103458002DE70E49D1F8F00040F40000C1F8F00063
:10346800D1F8F01001F400010C910C9904E7D3F89D
:10347800F00040F48000C3F8F000D3F8F03003F413
:1034880080030993099B84E68C16002400440258A3
:10349800D81F002428000240601F002410000240AA
:1034A80010B5837886B00446022B22D0032B1ED099
:1034B800012B1CD000230293E378012B15D0022B9B
:1034C80013D00023039300232046049300F0AEFC9E
:1034D800034620461C4600F0B1FC01A903462046DD
:1034E800019304F09FFF06B010BD0393EBE702932E
:1034F800E2E711230293DFE738B5054600F096FCB2
:103508000446284600F09AFC01462046BDE83840AB
:1035180005F07AB970B506460D4600F087FC0446FA
:10352800304600F08BFC2A1E0146204618BF0122B7
:10353800BDE8704005F06EB970B5184D8AB00C46FC
:103548002B7E68619BB10020022100260022002307
:103558000496CDE90001CDE90223C4B1032C16D0AD
:1035680004F0FD03012B0AD06C760AB070BD0C4B39
:1035780028462B6001F03EFB01232B76E3E710225F
:103588006946064801F090FB6C760AB070BD0022CF
:103598006946024801F088FBE2E700BFB81600243C
:1035A8000074004010B51E4C82B00B466269527818
:1035B800002A0CBF08220022012804D003281BD0AF
:1035C80080B102B010BD1021204601F055FB63699F
:1035D8001B78002BF5D12046102102B0BDE8104021
:1035E80001F01EBB0146204601F046FB63691978CD
:1035F8000029E6D12046F0E7CDE900212046002148
:1036080001F03AFB10212046DDE9002301F034FBEC
:10361800636919780029D4D1204601F001FBDAE763
:10362800B8160024284B02689A4200D07047274BEE
:103638000020D3F8E81030B541F00051244C89B08F
:103648000325627EC3F8E810D3F8E81001F00051B2
:1036580001910199D3F8E01041F00101C3F8E0109D
:10366800D3F8E030049503F0010305900293029B20
:103678003AB1AA4205D002F0FD02012A13D009B0DE
:1036880030BD65690235284600F0D0FB0346284660
:103698001D4600F0D3FB034603A92846039304F014
:1036A800C1FE627EE7E764690434204600F0BEFB91
:1036B800034620461C4600F0C1FB034603A92046EA
:1036C800039304F0AFFEDAE70074004000440258A8
:1036D800B8160024F0B5194BC827194E02224FF02E
:1036E800804403F10C050021002089B09A60DC6059
:1036F800802200245A620194C3E900674FF0FF3624
:103708000027C3E90401C3E906672846CDE9044454
:10371800CDE90644CDE9024402F0F6FE4FF48053A9
:1037280004A92846049302F087FF01A928460194BA
:10373800039403F03FF809B0F0BD00BFD816002489
:10374800400D03000368B3F1804F00D07047084B69
:1037580082B0D3F8E82042F00102C3F8E820D3F899
:10376800E83003F001030193019B02B0704700BFEA
:1037780000440258B6EE007A016060EE200A027634
:10378800F7EE007A437680ED020A60EE870AC0ED14
:10379800047A87EEA07A10B40024C46044615DF80E
:1037A800044B80ED017A70470268037E128807EEA9
:1037B800902AFBEEC87A1BB1B7EE007A77EE677AEB
:1037C800D0ED056A90ED047A77EEE67A437E67EEEF
:1037D800877A0BB1F1EE677A90ED030A90ED017AE2
:1037E80077EEC07AA7EE270A80ED030A704700BF7C
:1037F80030B5044685B04FF480751030ADF8082018
:10380800ADF80C100180A2826582E5828DED000A78
:10381800ADF80430FFF744FE04F11400FFF740FE52
:103828009DED000A2046019900F0BEFA00224FF6ED
:10383800FF73E261238305B030BD00BF70B5067E1B
:10384800044610307600FFF757FE034676B2657ED1
:1038580004F114001E436D0026766DB2FFF74CFE8E
:10386800034620461D43657600F0BAFA237E0022FF
:1038780003F00303E261022B06D0627E02F003022A
:10388800022A00D133B170BD637E9B07FBD10123AF
:10389800E36170BD4FF0FF33E36170BD098800221A
:1038A8000180C0F80220FFF7FBBD00BF10B5044639
:1038B80001700230627006F093FA002307226367F2
:1038C8002271E370236710BD704700BF2DE9F041F6
:1038D800DFF8808082B0B0241C4E1D4D0021304698
:1038E8008DF8074001340F46FFF714FE01220DF151
:1038F80007012846E4B206F0FDF9394630468DF84E
:103908000770FFF707FE01220DF10701284606F0B0
:10391800F1F91023394630468DF80730FFF7FAFDE4
:1039280001220DF10701284606F0E4F9012130468D
:10393800FFF7F0FD41468022284606F0DBF9B82C57
:1039480008F18008CAD102B0BDE8F081281B002424
:10395800241B0024241700242DE9F0470D46C34EEC
:10396800012482B035F8023B8146DFF810833046E7
:10397800BF4F4FF0200A3380B470FFF791FD2B88BA
:103988004046002588F80240A8F80030FFF788FD77
:10399800384606F083F929464046FFF7BBFD0A2062
:1039A800FFF7E2F821464046FFF7B4FD0A20FFF78B
:1039B800DBF8AE23304629468DF80730FFF7AAFD1D
:1039C800224638460DF1070106F094F9304629469B
:1039D8008DF807A0FFF79EFD22460DF10701384636
:1039E80006F088F9304629468DF80750FFF792FD12
:1039F80022460DF10701384606F07CF9B023294626
:103A080030468DF80730FFF785FD22460DF1070196
:103A1800384606F06FF9C823294630468DF8073036
:103A2800FFF778FD22460DF10701384606F062F9E6
:103A3800294630468DF80750FFF76CFD22460DF1F8
:103A48000701384606F056F91023294630468DF806
:103A58000730FFF75FFD22460DF10701384606F0F3
:103A680049F94023294630468DF80730FFF752FDC3
:103A780022460DF10701384606F03CF98123294614
:103A880030468DF80730FFF745FD22460DF1070156
:103A9800384606F02FF9FF23294630468DF80730BF
:103AA800FFF738FD22460DF10701384606F022F9E6
:103AB800A123294630468DF80730FFF72BFD224613
:103AC8000DF10701384606F015F9A62329463046B8
:103AD8008DF80730FFF71EFD22460DF10701384625
:103AE80006F008F9A823294630468DF80730FFF775
:103AF80011FD22460DF10701384606F0FBF83F2379
:103B0800294630468DF80730FFF704FD22460DF1AF
:103B18000701384606F0EEF8A423294630468DF80A
:103B28000730FFF7F7FC22460DF10701384606F08B
:103B3800E1F8D323294630468DF80730FFF7EAFC31
:103B480022460DF10701384606F0D4F829463046DA
:103B58008DF80750FFF7DEFC22460DF107013846C5
:103B680006F0C8F8D523294630468DF80730FFF708
:103B7800D1FC22460DF10701384606F0BBF8F023C8
:103B8800294630468DF80730FFF7C4FC22460DF170
:103B98000701384606F0AEF8D923294630468DF895
:103BA8000730FFF7B7FC22460DF10701384606F04B
:103BB800A1F82223294630468DF80730FFF7AAFCE2
:103BC80022460DF10701384606F094F8DA23294613
:103BD80030468DF80730FFF79DFC22460DF10701AE
:103BE800384606F087F81223294630468DF8073004
:103BF800FFF790FC22460DF10701384606F07AF8E7
:103C0800DB23294630468DF80730FFF783FC224630
:103C18000DF10701384606F06DF8294630468DF853
:103C280007A0FFF777FC22460DF10701384606F09A
:103C380061F8AF23304629468DF80730FFF76AFC54
:103C480022460DF10701384606F054F829464FF48C
:103C58008062084808F014FF4846FFF737FE064B15
:103C68001D605C7102B0BDE8F08700BF281B00240E
:103C7800241B0024241700242C1B0024341B00249C
:103C8800024A0349034808F08BBB00BF0000002428
:103C9800D1380008241B00249FED197AF0EE407AF1
:103CA8004B68B4EE470A70B504460868F1EE10FA9E
:103CB8008E68CD682DED028B206048BFB0EE470AB4
:103CC8000869B0EE608A636084F830204B690A8B1B
:103CD800206163612283C4ED077AC4ED080AA660F7
:103CE800E56008F0D5FBF0EE407AB0EE480AC4ED86
:103CF800097A08F0CDFB84ED0A0ABDEC028B70BD91
:103D080095BFD63390F8303010B50446032B47D80A
:103D1800DFE803F015243502FFF746FD60EE006A80
:103D2800D4ED077A94ED087A66EE806A37EE677A02
:103D3800E6EE877AB0EE670AC4ED0B7A10BDFFF79E
:103D480033FDD4ED077A94ED087A37EE677AE0EE22
:103D5800077AB0EE670AC4ED0B7A10BDFFF724FDB1
:103D6800D4ED077A94ED087A20EE000A37EE677AE8
:103D7800E0EE077AB0EE670AC4ED0B7A10BDFFF7E4
:103D880013FD94ED097AD4ED0A7A77EEC77AA0EE9E
:103D9800277AB0EE470A08F009FB84ED0B0A10BD3C
:103DA80090ED0B0A10BD00BFB7EE007A0122034662
:103DB800C7EE007A70B4002683B0C1F3072500244B
:103DC800ADF80410C660417010449D70DC701A7024
:103DD8009A809A71C3ED027A03B070BCFFF760BB9A
:103DE80038B54479054683790130640064B2B3B1CB
:103DF800FFF782FBB0FA80F35B092343DBB2A3F140
:103E08007F026B71012A0ED9FF2B07D1D5ED037AFA
:103E180095ED027A77EE877AC5ED037A38BDFFF71C
:103E28006BFB43B2E9E70023EB6038BD024B027835
:103E380053F82200704700BF68CB0008024B427855
:103E480033F81200704700BF48CB000810B485B0A3
:103E58000478074B0DF1100C0FCB0CEB84040CE924
:103E68000F0054F8100C05B05DF8044B704700BF04
:103E780098CA0008704700BF806B08B5FFF7FAFFC3
:103E880008BD00BF704700BF836B5A6D12F0500F1A
:103E98005A6D10B51DD1196842F400725A650A6846
:103EA80012F0080FCA681BD012F4406F0DD1CA680F
:103EB80094040AD45A6D22F480725A655A6DD1045A
:103EC80003D45A6D42F001025A651846FDF72CFCDE
:103ED80010BDD2060AD4DB6CBDE81040DB6C184775
:103EE8009007E7D01846FDF71FFCF1E71846FFF7E3
:103EF800C9FF10BD806B08B5436D43F040034365AF
:103F0800836D43F004038365FFF7BCFF08BD00BF62
:103F1800F0B5002283B0019290F85020012A00F0F9
:103F28001B81034601201A6883F8500094686607CD
:103F380000F189800C68C4F31305002D40F08E80D1
:103F4800C4F3846C00FA0CF04C681F26D569A709E5
:103F58003440284302F1300507F00C07A640D06131
:103F68000CFA04F4785920EA060020437851906846
:103F7800450771D4956815F0080548D10C6802F119
:103F8800140607208F684FEAD45CC4F304540CF07D
:103F9800040C00FA04FE07FA04F4C64F5CF80600A5
:103FA80020EA0E0020434CF80600386800F0704004
:103FB800B0F1805F00F0C880D068D66810F0100FAC
:103FC800486940F0E980C6F38206760000FA06F6F2
:103FD8000F69042F00F0C38002F16004086854F8E8
:103FE80027C000F0F8400CF0004C40EA0C003043C9
:103FF80044F827000E694F7E54F82600012F20F060
:10400800004008BF4FF00045054344F8265090682B
:10401800C40716D4CE68086806F01807A64CD2F86C
:10402800C050FC40C0F31307DFF8B8C2044025EACB
:104038000705664544EA0504C2F8C04046D0002892
:1040480016DB002003E05A6D42F020025A65002278
:1040580083F8502003B0F0BD9068D8E794FAA4F52F
:10406800B5FA85F5C4F3846C05F01F04A0406BE72E
:1040780092498A4200F0B68001F580718A4200F0C8
:10408800B1808F4E8F4DA968B46801F0E076E443A3
:1040980004F00104002C00F0B3808B4CA04200F027
:1040A800E6808A4CA04200F01F81894CA042C8D10A
:1040B8004902C6D482498A42C3D1AA68002022F0A4
:1040C800E072324342F48002AA60C0E7002F69D050
:1040D80090FAA0F4B4FA84F4013404F01F04092C13
:1040E80000F2A38090FAA0F4B4FA84F490FAA0F550
:1040F8000126B5FA85F501343544A40605F01F05F7
:1041080004F0F84406FA05F52C4390FAA0F0B0FA4A
:1041180080F0304400F01F0000EB40000005204311
:10412800C70D02F11405C0F304504FF0070C07F057
:1041380004078E680CFA00FC7C59864024EA0C00BF
:104148003043785108687AE7D6684869C6F382062A
:10415800760000FA06F63BE7022003B0F0BD106EC9
:104168000D6800F0F840AC06B0EB856F30D0506EAB
:1041780000F0F840844226D0906E00F0F840844267
:104188002BD0D06E00F0F84084427FF440AFD06E60
:1041980020F00040D0663AE7760806F0080600FAF4
:1041A80006F615E7800E441C04F01F06092E2DD8CC
:1041B800A406012506EB460004F0F84405FA06F6C5
:1041C80000053443ABE7506E20F000405066D3E75B
:1041D800106E20F000401066C9E7906E20F0004095
:1041E8009066CEE73B49354E3B4C0D468968B7682B
:1041F800A46801F0E0763C43E44304F0010449E795
:104208005A6D012042F020025A6520E706EB46006D
:104218000127A5061E3807FA06F605F0F845000539
:10422800354340F0007028437AE790FAA0F5B5FAD4
:1042380085F590FAA0F40126B4FA84F401353444E3
:10424800AD0604F01F0405F0F84506FA04F425430A
:1042580090FAA0F4B4FA84F4344404F01F0404EB94
:104268004404A4F11E00000540F00070DBE70802DA
:104278003FF5E7AE12498A427FF4E3AE174AA968D0
:104288001268174821F0E07192093143A0FB02023D
:1042980041F400019209A96052000192019A002A92
:1042A8003FF4CFAE019A013A0192019A002AF9D15E
:1042B800C7E600BF0010005CFFFF0F0000200240AF
:1042C8000060025800630258000084CB000052C707
:1042D8000000B8CF0023024000210240040000245F
:1042E800632D3E050000FF4711F080707FF4A9AEF2
:1042F80005498A427FF4A5AEAA6822F0E0723243EB
:1043080042F08072AA60A2E60060025803689A68C8
:10431800D20701D5002070479968214A114270B52B
:1043280004462AD199681F4A0A4042F001029A605D
:1043380005F0F2FA23681C4A0546934226D002F596
:104348008072934222D0194A9268164E0AE09A68FF
:10435800324042F001029A6005F0DEFA401B022862
:104368000BD823681A68D20717D49A68D107EED5F4
:1043780005F0D2FA401B0228F3D9636D012043F0FF
:1043880010036365A36D0343A36570BD084A926873
:10439800D006DAD0074A9342D7D1002070BD00BFBB
:1043A8003F000080C0FFFF7F0020024000630258EA
:1043B80000230240002102402DE9F0413B4D044614
:1043C80000680F461646A84219D0394B984216D0B5
:1043D800384DAB688068420716D494F85020012AFB
:1043E80012D003F01F080123B8F1090F84F85030E8
:1043F8000DD90023012084F85030BDE8F0812E4DFE
:10440800AB6880684207E8D50220BDE8F08140F239
:10441800212323FA08F3DB4313F00105E9D12046F1
:10442800FFF774FF00283AD1626D244B25681340CA
:1044380043F480736365B8F1000F02D01C4B9D42B2
:1044480003D0636D23F480136365636D13F48053A5
:1044580029D0A36D23F00603A365E06C4FF0000C90
:10446800DFF868E033463A461C21154F154EC0F870
:104478003CE00764C664296005F1400184F850C037
:104488006E6846F010066E6004F07AFC22680E4BE7
:1044980091680B4043F004039360BDE8F08184F811
:1044A8005050BDE8F081A365D7E700BF0020024067
:1044B800002102400063025800230240FEF0FFFF83
:1044C800813E0008FD3E0008C0FFFF7F913E0008C6
:1044D80038B503689A68910702D59B68002038BDF3
:1044E8009A68D20723D59A68044602F00D02012A79
:1044F80008D0636D012043F010036365A36D034387
:10450800A36538BD986803210A4A024042F00202B6
:104518009A60196005F000FA054604E005F0FCF918
:10452800401B0228E5D823689B68DB07F6D40020E7
:1045380038BD00BFC0FFFF7F38B55A4A044603683C
:10454800934249D002F58072934245D0564B9B68FE
:1045580013F4403F14BF01230023EBB102F0B0FD78
:1045680063680546B3F5003F00F08B80B3F5403F24
:1045780073D0B3F5803F00F0848005F0E5F941F28F
:10458800030398421FD8494B9D4260D9226893681B
:1045980043F48073936038BD4FF4002003F060FE4D
:1045A80063680546B3F5101F75D01DD9B3F5201FF4
:1045B8005BD0B3F5301FE0D105F0C6F941F2030333
:1045C800984244D92D0A3A4B9D422ED822689368C6
:1045D80023F44073936038BD364B9B6813F4403F17
:1045E80014BF01230023B8E7B3F5E01F3FD004D977
:1045F800B3F5001FC1D14509BFE7B3F5801F06D049
:104608000AD9B3F5A01F02D0B3F5C01FB5D19B0CD2
:104618005B00B5FBF3F5B0E7B3F5002FF7D023F453
:104628000022B2F5802FF2D0A7E7234B234A2B4470
:1046380093421ED9224B234A2B4493422268936803
:104648002BD823F4407343F40073936038BD226879
:10465800936823F48073936038BD850805F074F976
:1046680041F203039842AED88DE7C50985E70509ED
:1046780083E72268936823F4407343F4807393605C
:1046880038BD1B0CB5FBF3F505F05EF941F20303E9
:10469800984298D877E785096FE743F440739360A9
:1046A80038BD00BF0020024000630258002D3101D0
:1046B800105E5F0000230240EFA1A0FF0F5E5F00C5
:1046C800DF4341FF1FBCBE0070B5002382B00193D9
:1046D800002800F0CF80456D0446002D00F0B98019
:1046E800226893689D0003D59168704B0B409360D6
:1046F8009368D80015D46E4B90681B686D4D9B0964
:104708006D49A5FB035301409B0941F0805191601D
:104718000193019B2BB1019B013B0193019B002B52
:10472800F9D19368D90024D4636D012543F01003AF
:104738006365A36D2B43A365936813F0040F636D42
:104748001DD1DB061BD4636D23F4817343F0020390
:1047580063659368DE0728D4584B9A4217D003F54F
:1047680080739A4213D0564B9B68D9071DD4554A7B
:1047780015E09368002513F0040F636DE1D0636DB5
:10478800012543F010032846636502B070BD4B4A0B
:104798004D4B92689B681343D80706D44B4A9368DD
:1047A800616823F47C130B43936005F0CDF841F264
:1047B8000303A1689842237F51D8667D1A04206BB1
:1047C80042EA463202430A43012B03D1236A013BE2
:1047D80042EA4342636A23B103F47873A16A0B4344
:1047E8001A4323683A49D86801400A43DA609A684C
:1047F80012F0040F9A681CD112071AD4D968354AE6
:10480800207D0A40E16A42EA80320A43DA6094F87D
:104818003820012A3AD01A6922F001021A611A696D
:104828002046616B22F070420A431A61FFF784FE4A
:104838002368E268012A21D01A6B22F00F021A635A
:10484800636D284623F0030343F00103636502B058
:1048580070BDFCF71FFFA56584F8505040E710298C
:10486800ABD1607D1A04216B42EA40320A4342F020
:104878001C02A9E70125284602B070BD196BA26980
:1048880021F00F01013A0A431A63D9E71869124E59
:10489800D4E910210640A06C0A43E16B324302437D
:1048A80042EA014242F001021A61B8E7C0FFFF5F25
:1048B80004000024632D3E05C0FFFF6F0020024066
:1048C80000600258006302580021024000230240A1
:1048D80003C0F0FFFCBFFFFF1EF800FCF0B50D465B
:1048E80090F8501083B00026012901963ED001238C
:1048F8000446174680F85030FFF7EAFD636DE0B9CB
:104908001C4E07F08042216805F480351E401A4B82
:104918001A4F46F0020666658E68334013432B43F0
:1049280043F000438B608B68002B0EDB636D23F034
:10493800030343F00103636502E043F0100363657A
:10494800002384F8503003B0F0BD019B013301937C
:10495800019BBB42E7D9636D0022012023F01203BB
:1049680084F8502043F010036365ECE7022003B09D
:10497800F0BD00BFFDEEFFFFC0FFFE3FFF955A559B
:10498800F0B490F850200E68012A49D00346294A0D
:1049980001201C6883F85000944208D05A6D002109
:1049A80042F0200283F850105A65F0BC7047224D3F
:1049B800AA6852070AD5A2685A6D012042F020025F
:1049C8005A65002283F85020F0BC7047A06810F0A8
:1049D8000400F1D1C6B1DFF868C04F68DCF80820E0
:1049E80022F440423A43CCF80820A468AA6822433B
:1049F800D40713D48A68DCF80840104916432140CC
:104A08000E43CCF80860DCE70D498A6822F440427E
:104A18008A60A068AA680243D00704D50020D0E7BE
:104A28000220F0BC70478C683046044A22408A60F5
:104A3800C7E700BF0020024000210240E0F0FFFF6E
:104A48000023024007490002074BCA6800F4E060EF
:104A580010B44FF6FF0422405DF8044B10430343A3
:104A6800CB60704700ED00E00000FA05194BDB68E9
:104A7800C3F3022330B4C3F107051C1D042D28BF5E
:104A88000425062C19D9033B4FF0FF349C4022EA39
:104A980004024FF0FF34002804FA05F421EA040167
:104AA80001FA03F141EA02010ADB09010A4BC9B222
:104AB800034483F8001330BC704700221346E8E72C
:104AC80000F00F000901054BC9B20344197630BC48
:104AD800704700BF00ED00E000E100E0FCEC00E002
:104AE800002807DB00F01F0101234009024A8B4020
:104AF80042F82030704700BF00E100E000280DDBDD
:104B08004309012200F01F000549203302FA00F092
:104B180041F82300BFF34F8FBFF36F8F704700BF7B
:104B280000E100E00138B0F1807F0DD2074B002290
:104B3800072130B4F025064C5860104684F82350FD
:104B48009A60196030BC70470120704710E000E09F
:104B580000ED00E0BFF35F8F044A00200449536A68
:104B680023F4803353624860704700BF00ED00E0D3
:104B780090ED00E0064A40F00100064B5860536A89
:104B880043F480335362BFF34F8FBFF36F8F704787
:104B980000ED00E090ED00E0124A43789360017860
:104BA800E9B1436870B4D360C37A047B1B06857A85
:104BB800867B43EA0473447B0B43017A43EAC5438B
:104BC800C57B43EA8443447A43EA464343EA0543C0
:104BD80043EA042343EA410370BC13617047D16080
:104BE8001161704790ED00E0704700BF08B5FFF70E
:104BF800FBFF08BD88B110B50379044603F0FF0236
:104C08003BB1002302210122217118462361227140
:104C180010BD4271FEF706FDF3E70120704700BFA3
:104C28004279012A26D003460122006830B401F0F7
:104C380010040225A2401D71046822430260026824
:104C480071B902F03E02AA4203D1426842F0010261
:104C5800426000220121104619715A7130BC704718
:104C680002F47812B2F5003FF3D1426842F0020232
:104C78004260EEE70220704710B4006883B0002459
:104C88000194019051B9019908310A440192019A9D
:104C98000020136003B05DF8044B7047019914318C
:104CA8000A440192F3E700BF4379D1F800C0012B11
:104CB80000F096800223BCF1040F2DE9F04116465E
:104CC8004FF0010204460D46427103713ED006F0D2
:104CD80010020368296901292ED0EE680727A96800
:104CE80007FA02F0DF6B31436D6827EA000740F6E8
:104CF800FE7641EA0C014FF4804095409640914081
:104D080090404FF0000C3943C027D96307FA02F1ED
:104D18001A68012722EA000260461A601A6822EA25
:104D280006022A431A601A6822EA01021A602771E9
:104D380084F805C0BDE8F0811F26986B6969964024
:104D4800914020EA060001439963C6E7D6B904F00A
:104D5800E3FDDFF89080074604E004F0DDFDC01BAA
:104D6800012834D823685B6B13EA080FF5D10120BA
:104D780004F0D8FD2368AA691A640DE004F0CCFD9C
:104D8800012824D823685B6B002BF7DB012004F093
:104D9800C9FD2368AA695A6406F0100240F2FF3C74
:104DA800986CFF21EF690CFA02FC01FA02F6296AF5
:104DB80020EA0C009740D5F800C03843986401FAFF
:104DC80002F0D96C21EA06010143D96482E723691C
:104DD800032243F00803104623612271BDE8F081E5
:104DE800022070470080002018B338B590F82C30A6
:104DF8000D46044603F0FF02B3B10223214684F8AE
:104E08002C3051F8040B05F0ADF82946D4E900021E
:104E180005F0E4F8084A01210020136843F0004334
:104E2800136084F82C1038BD80F82D20FDF77CFC29
:104E3800E3E70120704700BF0040005270B590F8CA
:104E48002C300546022BD8B204D000F0FB04012C0C
:104E580001D0012070BD02230E46286885F82C3049
:104E680005F008F93368022B03D0002085F82C40A0
:104E780070BD0523002085F82C3070BD38B590F83A
:104E88002C300446022BD8B205D094F82C30012BD4
:104E9800DDB201D0012038BD0223206884F82C300F
:104EA80005F0FAF8002084F82C5038BD70B5044697
:104EB8000D4616466A1C23682CD19A69900727D498
:104EC8009A69D106F9D59A699106FCD52022102154
:104ED800D961DA619A69900701D500229A629A69C4
:104EE800D10703D49A6942F001029A615A680021F5
:104EF8001B4E2025012032405A60636C84F8401014
:104F080043F00403636484F8415084F8421070BD90
:104F1800002070BD9A699207FAD49A69D0061BD40A
:104F280004F0FAFC801BA84201D8002DC2D1636CA2
:104F38002021002201200B4384F84020636484F878
:104F4800411084F8422070BD04F0E6FC801B8542C5
:104F5800EDD3002DEBD0236899698A06F4D5B5E71F
:104F680000E800FE70B504460D46164623689969A8
:104F78008A0649D49969CA0626D5681C38D19A691F
:104F88009106FCD520221021D961DA619A6990072F
:104F980001D500229A629A69D10703D49A6942F02E
:104FA80001029A615A680021184E202501203240DA
:104FB8005A60636C84F8401043F00403636484F817
:104FC800415084F8421070BD04F0A6FC801BA84232
:104FD80001D8002DCAD1636C2021002201200B4387
:104FE80084F84020636484F8411084F8422070BD3E
:104FF8009A699206C6D404F08FFC801B8542EAD3D6
:10500800002DE8D02368B8E7002070BD00E800FE56
:1050180000284DD0F8B590F84130044603F0FF025F
:10502800002B40D02421E068D4E9003284F84110F4
:105038000128196822F0706221F0010119601A61D3
:105048009A6822F400429A60A26828D042F4044286
:1050580002289A6002D14FF400625A605A6800210F
:1050680014482027A6691043D4E9042558602A4328
:10507800D868E56942EA0622266A20F400403543EA
:10508800D8600846DA601D601A6842F001021A60AA
:10509800616484F84170216384F84210F8BD42F4D9
:1050A80000429A60DAE780F84020FDF7C5FDB9E7CD
:1050B80001207047008000022DE9F047984690F8DB
:1050C8004130089E202B40F08A8090F840300446FA
:1050D800012B00F0848001238946174680F8403070
:1050E80004F01AFC054604E004F016FC401B1928DD
:1050F80078D82368986910F40040F5D1102221214E
:10510800676284F8411084F842206064A4F82A8019
:10511800628D606392B2FF2A72D8618DC9F3090764
:105128005A68DFF838C189B24A4802EA0C025FFAC5
:1051380081FC21853A4342EA0C4210435860DFF86B
:1051480024814FF0FF0ADFF82091638D2A4631460B
:1051580020469BB2002B30D0FFF7A8FE002875D15F
:10516800606A216810F8012B238D8A62628D013BE9
:105178006062013A9BB292B223856285628D92B2D7
:10518800002BE2D1002AE0D0701C45D18B691A06A9
:10519800FCD5638D9BB2FF2B4AD94B682A46A4F8ED
:1051A80028A0204603EA08033B4343EA09034B606F
:1051B8003146638D9BB2002BCED1FFF7D3FE00287A
:1051C80044D123682021244DD9615A682A405A6065
:1051D80084F8411084F8400084F8420000E002207E
:1051E800BDE8F087636C2021002201200B4384F87E
:1051F8004020636484F8411084F84220BDE8F087B9
:105208005A68C9F309071549FF200A40144920853F
:105218003A431143596092E78B691B06B9D404F0ED
:105228007BFB401B8642DDD3002EDBD02168ABE739
:10523800628D4B6892B203EA0803D0B2228543EA32
:1052480000433B4343F000734B607EE70120BDE819
:10525800F08700BF0020008200E800FE009800FCF4
:105268000020FF81009C00FC0000FF0190F8412015
:10527800202A21D1034670B4D5B290F84020012AE3
:105288001CD01A682420002683F841001468304690
:1052980024F001041460146824F480541460146821
:1052A80021431160116841F00101116083F84150F8
:1052B80083F8406070BC704702207047022070BCC1
:1052C800704700BF90F84120202A20D1034670B4CF
:1052D800D6B290F84020012A1BD01A682420002555
:1052E80083F841001468284624F001041460146807
:1052F80024F4706444EA01211160116841F001014D
:10530800116083F8416083F8405070BC70470220F8
:105318007047022070BC7047F0B44C6A82B014B178
:10532800B2F1406F30D18B69002B34D00E6A002E59
:1053380059D0056823438F68C869EF61002800F0D9
:10534800AE8013430F690C68B2F1406F43EA06035D
:10535800CE6843EA0003C86A43EA0003086B43EADD
:10536800000348690190486B43EA0003019843EA47
:10537800070343EA060343EA040343EA80436B61F5
:1053880060D04B68AB615DE08B6A0568013B2B61BF
:105398008B69002BCAD10B6A002B44D006682343C3
:1053A8008D68C869F561002869D013434D6B0F6992
:1053B800B2F1406F43EA0003C86ACC6843EA0003CD
:1053C800086B43EA0003486943EA050343EA070315
:1053D80043EA040343EA8043736133D04B68B36103
:1053E80002B0F0BC7047CD69002D6CD0234306682D
:1053F800CC6AB2F1406F43EA02000F6B4B6B40EA94
:105408000500CD6840EA04000C6840EA070040EA5D
:1054180003004B6940EA050040EA040040EA834083
:105428007061DBD10EE0CB697BB95CB1CB6A0068F7
:105438002343D1E90C5413434A692B43234343EADA
:105448008243436102B0F0BC70472343CC6A0D6BC2
:10545800B2F1406F43EA0203006843EA04034C6B6D
:1054680043EA0503CD6843EA04034C6943EA0503AC
:1054780043EA84434361E5D04B688361E2E7D1E9BD
:105488000B0513434C6B03432B43D1E9040223431D
:10549800034343EA8243736102B0F0BC704713438D
:1054A8004F6B0C6933434A69D1E90B0C0343086815
:1054B80043EA0C033B432343034343EA82436B61C0
:1054C80002B0F0BC70471C43CE6A006844EA02038D
:1054D8000C684A693343D1E90C753B432B4323439A
:1054E80043EA8243436102B0F0BC7047F8B5044612
:1054F80004F012FA002C55D094F84030012B53D008
:105508000123064684F8403094F8413003F0FF0246
:10551800002B35D0A76C2368A1681A68013922F4DA
:10552800706242EA01221A6001E07A1C32D19D6859
:1055380015F02005F9D1D4E90716E26828461F6856
:105548000A43616832431D4E42EA01623E40616986
:10555800A76932431A4E1A6041EA07025F68216957
:105568003E4042EA0142012132435A601A680A4326
:105578001A60656484F84110002384F84030F8BD4F
:10558800204684F84020FCF787FF41F288331F4605
:10559800A364C0E704F0C0F9801BB84206D82FB155
:1055A8002368C4E70120F8BD0220F8BD04230120C8
:1055B80084F84130636C03436364DDE72FFFFF0029
:1055C800FEF8E0FFC8B110B590F840300446012B52
:1055D80011D00268012380F84030136823F00103DA
:1055E8001360FCF7DFFF00236364184684F841303A
:1055F80084F8403010BD022010BD0120704700BF64
:105608002DE9F04104460D46904604F085F994F8DA
:105618004030012B3BD0012384F8403094F84130CE
:10562800012BDEB206D002260023304684F8403033
:10563800BDE8F081002202230746626484F8413005
:10564800B8F1FF3F23680ED19A6812F02002FBD10F
:1056580029462046FFF760FE6B6AE3B10123002666
:1056680084F84130E0E79A6812F020021ED004F076
:1056780053F9C01B804502D3B8F1000FE0D10423D1
:1056880084F84130636C43F001036364CCE702267D
:105698003046BDE8F081226893689B07FCD502215B
:1056A80001230026D16084F84130BDE72946204611
:1056B800FFF732FE6B6A43B1D0E704F02DF9C01B47
:1056C8008045DCD3B8F1000FD9D0226893689907D8
:1056D800F3D5E4E72DE9F84304468946154604F076
:1056E8001BF994F840302768012B67D0012384F810
:1056F800403094F84130012B5FFA83F807D04FF01F
:1057080002080023404684F84030BDE8F8830023AF
:105718006364B9F1000F56D01223064684F841306D
:105728003B690133E3623B69C4F824900133A36207
:105738007B6923F040637B61E36A002B31D0691CED
:105748003B4611D19A685207FCD5636A1B7887F8E3
:105758002030E26A636A013A0133E262E26A636214
:10576800F2B1691C2368EDD09B685807EDD404F0AA
:10577800D3F8801B854201D3002DF2D1042384F88D
:105788004130636C43F00103636413E0BB689B071B
:105798000CD404F0C1F8801B8542EFD3002DEDD066
:1057A8002768691CF2D1BB689A07FCD502234FF021
:1057B8000008FB60012384F84130A2E74FF002089B
:1057C8004046BDE8F883636C43F00803636498E7D8
:1057D8002DE9F84304461546894604F09DF82768E4
:1057E800BA6994F84030012B6CD0012384F840301A
:1057F80094F84130012B5FFA83F807D04FF0020884
:105808000023404684F84030BDE8F88300236364F1
:10581800B9F1000F5BD02223064684F841303B697A
:105828000133A3633B69C4F83090013363637B6938
:1058380023F0406343F080637B61BA61A36B002B64
:1058480033D0681C3B4612D19A6812F0060FFBD081
:1058580097F82020236B1A70A26B236B013A01334F
:10586800A263A26B2363FAB1681C2368ECD09B681F
:1058780013F0060FECD104F04FF8801B854201D3DA
:10588800002DF1D1042384F84130636C43F0010307
:10589800636413E0BB689B070CD404F03DF8801BDD
:1058A8008542EFD3002DEDD02768691CF2D1BB6883
:1058B8009A07FCD502234FF00008FB60012384F807
:1058C80041309DE74FF002084046BDE8F883636C1D
:1058D80043F00803636493E72DE9F84304461D4643
:1058E8000F46164604F018F894F84030012B4FD0B4
:1058F800012384F8403094F84130012B5FFA83F893
:1059080007D04FF002080023404684F84030BDE835
:10591800F883002242238146626484F84130681C7F
:10592800236829D19A689106FCD432683946706890
:105938009A62B2685862DA621A68306922F44002E0
:10594800D6F80CC042EA00064FF00062204646F442
:1059580080061E60C7F828C0FFF7DEFC681C2268B6
:105968001BD193681907FCD5082101234FF00008C3
:10597800D16084F84130C6E79A689206D5D503F01D
:10598800CBFFA0EB0900854212D3002DC7D10FE051
:105998004FF002084046BDE8F88393681B07E3D43C
:1059A80003F0BAFFA0EB0900854201D3002DD5D141
:1059B800042384F84130636C43F001036364A2E775
:1059C8002DE9F84304460F46904603F0A5FF94F8E6
:1059D8004030012B42D0012384F8403094F8413004
:1059E800012BDEB206D002260023304684F8403070
:1059F800BDE8F883002282230546D4F84890626403
:105A080084F84130B9F1FF3F226814D193689906B0
:105A1800FCD41368D8F8041023F00803082943EAD3
:105A2800010313601ED039464FF04062204600261D
:105A3800FFF772FCD8E793689B06EAD503F06CFF82
:105A4800401B814502D3B9F1000FDBD1042384F850
:105A58004130636C43F001036364C5E702263046B6
:105A6800BDE8F883D8F8001010231163D3601368D9
:105A780043F480131360D6E7704700BF08B5006C85
:105A880000238363C36290F84130082B0BD103686D
:105A98000222DA601A6842F400321A601A6842F088
:105AA80002021A6008BD012380F84130FFF7E4FFC5
:105AB80008BD00BF704700BF704700BF704700BFF8
:105AC800704700BF704700BF704700BF704700BFF6
