:020000040800F2
:1000000000000220F506000845070008151E00083C
:1000100045070008450700084507000800000000E4
:10002000000000000000000000000000450700087C
:10003000450700080000000045070008051E0008ED
:100040004507000845070008450700084507000860
:100050004507000845070008450700084507000850
:100060004507000845070008450700080512000875
:1000700011120008451100081D120008291200087D
:10008000D18E00084507000845070008450700080D
:100090004507000845070008450700084507000810
:1000A0004507000845070008450700084507000800
:1000B00045070008450700084507000845070008F0
:1000C00045070008450700084507000845070008E0
:1000D00045070008C58E00084507000845070008C9
:1000E0004507000845070008000000004507000814
:1000F00045070008450700084507000845070008B0
:10010000450700084507000845070008450700089F
:10011000450700084507000845070008450700088F
:10012000450700084507000845070008450700087F
:10013000450700084507000845070008450700086F
:1001400000000000000000000000000000000000AF
:10015000450700084507000845070008450700084F
:10016000450700084507000845070008450700083F
:10017000450700084507000845070008450700082F
:10018000450700084507000845070008450700081F
:10019000450700084507000845070008450700080F
:1001A00045070008450700084507000845070008FF
:1001B0008D19000845070008450700084507000895
:1001C00045070008450700084507000845070008DF
:1001D00045070008450700084507000845070008CF
:1001E00045070008450700084507000845070008BF
:1001F00045070008450700084507000845070008AF
:10020000450700084507000845070008450700089E
:10021000450700084507000845070008450700088E
:1002200045070008450700084507000800000000D2
:1002300045070008450700080000000045070008C2
:10024000450700084507000845070008450700085E
:10025000450700084507000845070008450700084E
:10026000450700084507000845070008450700083E
:100270004507000845070008450700080000000082
:100280004507000845070008450700080000000072
:08029000000000004507000812
:1002980010B5054C237833B9044B13B10448AFF3B8
:1002A80000800123237010BD7800002400000000A6
:1002B8009802000808B5034B1BB103490348AFF384
:1002C800008008BD000000007C000024980200089F
:1002D80053B94AB9002908BF00281CBF4FF0FF31A5
:1002E8004FF0FF3000F06EB9ADF1080C6DE904CEA7
:1002F80000F006F8DDF804E0DDE9022304B07047F9
:100308002DE9F047089D04468C46002B40F0838079
:100318008A42174647D9B2FA82F242B1C2F12000A6
:1003280024FA00F09140974040EA010C94404FEACB
:100338001748230CBCFBF8F61FFA87FE08FB16C10A
:1003480043EA014306FB0EF1994209D9FB1806F16D
:10035800FF3080F01981994240F21681023E3B44F9
:100368005B1AA4B2B3FBF8F008FB103344EA034469
:1003780000FB0EFEA64509D93C1900F1FF3380F0B9
:100388000581A64540F2028102383C4440EA064015
:10039800A4EB0E0400261DB1D4400023C5E9004398
:1003A8003146BDE8F08702B9FFDEB2FA82F2002AD0
:1003B80050D1CB1B4FEA174E1FFA87F80126B3FB23
:1003C800FEFC210C0EFB1C3341EA034108FB0CF335
:1003D8008B4207D979180CF1FF3002D28B4200F218
:1003E800E9808446C91AA3B2B1FBFEF00EFB1011D6
:1003F80043EA014408FB00F8A04507D93C1900F17D
:10040800FF3302D2A04500F2D9801846A4EB0804B5
:1004180040EA0C40BFE78B4209D9002D00F0B180BB
:100428000026C5E9000130463146BDE8F087B3FA39
:1004380083F6002E4AD18B4202D3824200F2B88062
:10044800841A61EB030101208C46002DA8D0C5E970
:10045800004CA5E7C2F1200320FA03F6974001FA01
:1004680002F04FEA174ED9403043030CB1FBFEF6B9
:100478001FFA87F80EFB161143EA014306FB08F141
:10048800994204FA02F409D9FB1806F1FF3C80F0FE
:100498008D80994240F28A80023E3B445B1A81B2C9
:1004A800B3FBFEF00EFB103341EA034100FB08F3F7
:1004B8008B4207D9791800F1FF3C73D28B4271D96E
:1004C80002383944CB1A40EA064678E7C6F1200CD0
:1004D80003FA06F422FA0CF31C4320FA0CF701FA8B
:1004E80006F34FEA144E21FA0CF11F433B0CB1FB03
:1004F800FEF91FFA84F80EFB191143EA014109FBC2
:1005080008FA8A4502FA06F200FA06F308D96118D1
:1005180009F1FF3048D28A4546D9A9F10209214498
:10052800A1EB0A01BFB2B1FBFEF00EFB101147EAC6
:10053800014700FB08F8B84507D9E71900F1FF3172
:100548002ED2B8452CD90238274440EA0940A7EBF7
:100558000807A0FB02894F45C64649461AD317D05B
:100568005DB1B3EB0E0267EB010707FA0CFCF24032
:100578004CEA0202F740C5E9002700263146BDE8EB
:10058800F0872E4628460BE70646E9E61846FDE6BC
:100598004345E5D2B8EB020E69EB04010138DFE709
:1005A8000846D2E760468DE78146B9E7664675E7B3
:1005B80030464AE7ACF1020C394413E702383C44B0
:1005C80024E700BF704700BF30B4194C0022194B14
:1005D800D4F88810184841F47001184DC4F88810F0
:1005E8001C68174944F001041C601A611C6820400B
:1005F80018609A61DA611A629A62DA621A635A6357
:100608009A63DA631A645A64186820F480201860C0
:100618001A662B681940B1F1005F02D2094B01221A
:100628001A60034B4FF0006230BC9A60704700BFFD
:1006380000ED00E0004402587FEDF6EA0010005C8F
:100648000000FFFF08810051704700BF704700BFDE
:1006580070B5154D88B00124A5F18C0001AE00F0ED
:1006680077F9DFED120A9FED120A0FCD0FC695E854
:10067800070086E807000F48002201A902F092FC53
:10068800A5F19C0000F000F921460B4800F0F8F8AD
:10069800084802F0BDFCFDEEC07A84F0010417EEB4
:1006A800900A01F025FCEFE72001002400007A44BD
:1006B8000000C8422C02002494000024064A07497E
:1006C800074808B50AF054FC034A06490648BDE83D
:1006D80008400AF04DBC00BF000000245506000881
:1006E80094000024510600082C020024DFF834D0BE
:1006F800002103E00C4B5B58435004310B480C4B72
:1007080042189A42F6D30B4A02E0002342F8043B0F
:10071800094B9A42F9D3FFF757FF0AF06DFDFFF72F
:1007280097FF70470000022060B600080000002410
:10073800780000247800002484210024FEE70000CB
:10074800F8B5044603232B4D40F6033C84F82F30BC
:1007580004F12407284B0626284AC4F8313003F14F
:100768000073274803F54073264925600125C4F81E
:100778003530254B62604FF48072A0600020E16044
:100788003021C4F83930214BA284C4F83D30C4F874
:1007980041C0A76184F8275084F8295084F82B00B9
:1007A80084F82D0061612674194FC4E9070000F030
:1007B80059FE28463021174D00F054FE164B4FF4D1
:1007C800A060022140F20712E365A4F860004FF42C
:1007D8008773124884F86760C4F84570C4F84950B4
:1007E800C4F84D0084F86310A4F86420A4F86830B5
:1007F800F8BD00BF00070500040204040105080550
:100808000905070506050A06040300010609000292
:1008180000010801090101070001000404010B019E
:1008280010B5044601F0F4FA204601F0B1F8E01CD6
:1008380000F02EFE04F1630001F0F6FF04F16700FA
:1008480001F0F2FF04F1140000F0F0FCBDE81040E4
:1008580002F0F6B81F2982B009D8084B03EB410211
:1008680013F81130507843EA002002B07047012392
:100878000C2043EA002002B0704700BF9CB2000879
:10088800633001F0FDBF00BF543000F0F3BB00BF80
:10089800F0B50F210646002406F1540706F18C0531
:1008A8002DED028B97B0DFED288AFFF7D3FF0346C3
:1008B80005A89FED268AADF80430019900F022F9C9
:1008C80010213046FFF7C6FF03460DF12500ADF8AD
:1008D8000830029900F016F915213046FFF7BAFFE3
:1008E80003460DF13600ADF80C30039900F00AF913
:1008F80012213046FFF7AEFF03460DF14700ADF871
:100908001030049900F0FEF8042305A938461A4669
:1009180000F00AF9E1B2384600F0C2FBD6ED627A7F
:1009280001340146B8EE670A2846F0EE480A00236B
:1009380001221C3588EE800A02F0D2F8042CE9D195
:1009480017B0BDEC028BF0BD008E3B476F12033B26
:100958002DE9F04385B004460125FFF7F1FE002696
:1009680030224FF003090223C4F888211D2184F89E
:100978002430204684F8309004F5C67784F8265051
:1009880004F5C07884F8285084F82A5084F82C603C
:1009980084F82E60FFF75EFF0346A4F88E513846B0
:1009A800A4F88C3101F040FFD4F88811304600F0EB
:1009B80059FDD4F88811284600F054FD2046FFF769
:1009C8002FFF20460921FFF745FF03461E21204639
:1009D800ADF80C30FFF73EFF034603A94046ADF8DB
:1009E8000E3002F03FF9494604F15C0001F05AFF6D
:1009F8003146304601F08CFF3146284601F088FF29
:100A080020460C21FFF726FF03460B212046ADF8B0
:100A18000830FFF71FFF034631462046ADF8043083
:100A2800FFF718FFD4ED627A03469FED350A04F10B
:100A38006C00F8EE677A0299ADF8003080EE270A6C
:100A4800DDE9003202F08AF811212046FFF702FFA3
:100A5800034684F8835104F281101BB284F8846140
:100A6800C3F3072284F8813184F8822101F0DCFE87
:100A780020461421FFF7EEFE034603A904F1FC000B
:100A8800ADF80C3002F090F820461321FFF7E2FE93
:100A9800034603A904F58170ADF80C3002F084F820
:100AA80020460921FFF7D6FE03461E212046ADF851
:100AB8000C30FFF7CFFE034603A94046ADF80E30D1
:100AC80002F0D0F82A46294604F5847002F074F83A
:100AD8002046FFF7DDFE3146384601F0D1FE0A20F8
:100AE80001F006FA2946384601F0CAFE1123C4F877
:100AF800943101F0FBF9C4F8900105B0BDE8F0832A
:100B0800008E3B4710B483B00022ADF804100321D7
:100B1800BDF80440817004800274C27003B05DF8AF
:100B2800044B01F081BE00BF2DE9F04F0025DE4CDB
:100B3800DE4F964642608DB0037007F11C0284F8C0
:100B4800EEE08446A4F8FB50C4F8EF50C4F8F35024
:100B5800C4F8F750BD6101950495C7E90055C7E988
:100B68000255C7E904554368CDE90255C4E94772FF
:100B7800CDE90555CDE90755CDE90955002B00F01C
:100B88006B810E460868A0464968F368B2683D80E4
:100B9800A8E80F00337C88F80030337C84F8EF3005
:100BA800DCF80430012B40F2578133467D8053F83E
:100BB800118F58689968DA68C4F81180C4F815006C
:100BC800C4F81910C4F81D201B7C84F8213096F84D
:100BD800213084F8F030DCF80430022B40F23C81FC
:100BE8003346BD8053F8228F58689968DA68C4F88C
:100BF8002280C4F82600C4F82A10C4F82E201B7CD2
:100C080084F8323096F8323084F8F130DCF8043069
:100C1800032B40F221813346FD8053F8338F586807
:100C28009968DA68C4F83380C4F83700C4F83B1010
:100C3800C4F83F201B7C84F8433096F8433084F88E
:100C4800F230DCF80430042B40F20681B14604F19E
:100C580044083D8159F8440FD9F80C30D9F80410EC
:100C6800D9F80820A8E80F0099F8103088F8003063
:100C780096F8543084F8F330DCF80430052B40F251
:100C8800EB8033467D8153F8558F58689968DA6848
:100C9800C4F85580C4F85900C4F85D10C4F8612040
:100CA8001B7C84F8653096F8653084F8F430DCF8FD
:100CB8000430062B40F2D0803346BD8153F8668F4E
:100CC80058689968DA68C4F86680C4F86A00C4F895
:100CD8006E10C4F872201B7C84F8763096F8763053
:100CE80084F8F530DCF80430072B40F2B580334641
:100CF800FD8153F8778F58689968DA68C4F8778067
:100D0800C4F87B00C4F87F10C4F883201B7C84F8E7
:100D1800873096F8873084F8F630DCF80430082BF2
:100D280040F29A80B14604F188083D8259F8880F4C
:100D3800D9F80C30D9F80410D9F80820A8E80F0021
:100D480099F8103088F8003096F8983084F8F73021
:100D5800DCF80430092B7FD9334608F101054FF040
:100D6800000953F8998FA7F8129058689968DA68BB
:100D7800C4F899806860A960EA601B7C2B7496F8B7
:100D8800A93084F8F830DCF804300A2B64D93346EB
:100D9800A7F8149053F8AA8F58689968DA68C4F8C5
:100DA800AA80C5F81500C5F81910C5F81D201B7CC8
:100DB80085F8213096F8BA3084F8F930DCF8043038
:100DC8000B2B49D93346A7F8169053F8BB8F5868B0
:100DD8009968DA68C4F8BB80C5F82600C5F82A10F7
:100DE800C5F82E201B7C85F8323096F8CB3084F875
:100DF800FA30DCF804300C2B2ED9B24605F1330852
:100E0800A7F818905AF8CC0FDAF80C30DAF8041072
:100E1800DAF80820A8E80F009AF8103088F80030AF
:100E280096F8DC3084F8FB30DCF804300D2B13D94D
:100E38003346A7F81A9053F8DD7F58689968DA683E
:100E4800C4F8DD70A864E9642A651B7C85F8543011
:100E580096F8ED3084F8FC3015484FF480719CF812
:100E680000305FFA8EF24FF480260027C4F8240180
:100E78000120A4F838110821C4F83C210022C4E953
:100E88004A67C4E94C01002600270320002184F8A2
:100E98004021C4F85821C4E95267C4E95401002B21
:100EA80000F08B8006E000BF6002002400000030E4
:100EB80000200240012200200121013B84F85C212E
:100EC800C4E95A01082B0AD8DFE803F005868B909D
:100ED800959A9FA5AC0003224023C4E9582355489E
:100EE800002502F051FD01A95248019502F0A8FE23
:100EF80040F2FF73022204200021CDE9062394F872
:100F0800EE30CDE90801002B48D00627DFF85491D0
:100F1800494EDFF85481DFF854B1DFF854A119E0E5
:100F2800022A30D0012A40D15B78012B3FD0002B18
:100F38000CBF33460023013504A93E48EDB2CDE984
:100F4800043702F045F994F8EE30AB4226D93B4B12
:100F580053F8257005EB0513E25C2344002ADFD122
:100F68005B78062B1DD0072B23D0022B2CD0032B0C
:100F78002CD06BB3012B2DD0042B21D0052B304B5B
:100F880018BF0023D7E75B78042B0CD0052B12D0B1
:100F9800C3B1012B2B4B18BF0023CCE70DB0BDE824
:100FA800F08F294BC7E74346C5E70023C3E74B4605
:100FB800C1E75346BFE75B46BDE784F85C318EE77F
:100FC800224BB8E7224BB6E7224BB4E7224BB2E7F5
:100FD800224BB0E7224BAEE707226023C4E958232F
:100FE8007DE70F228023C4E9582378E71F22A02336
:100FF800C4E9582373E73F22C023C4E958236EE7A6
:101008007F22E023C4E9582369E7FF224FF4807365
:10101800C4E9582363E740F2FF124FF49073C4E920
:1010280058235CE740F2FF324FF4A073C4E9582319
:1010380055E700BF840300240002B025DCB2000895
:101048000000B84F0008302E0800900C0000844BB8
:101058000004002A0040C03A0080F03E000021430E
:10106800000052472000F0141000C0100001802139
:101078008000501D38B5094C40F2FF724FF0011145
:1010880004F59275284602F089FD284694F8EE206A
:10109800D4F81C11BDE8384002F0EEBA6002002412
:1010A800034B0D29D3F81C0198BF00EB4100704792
:1010B800600200241D4B02689A4200D070471C4B06
:1010C8004FF48061D3F8D82070B542F02002194D52
:1010D80004460920C5F8981182B0C5F88C014FF470
:1010E8000061C3F8D82005F5C476D3F8D8204FF4AA
:1010F8000053114802F02002C5F89C11C5F8A03130
:101108004FF4807101920023019AC5F88801304696
:10111800C5F8A411C5E96433C5E96A3306F020FCB3
:10112800E664C5F8C04102B070BD00BF00200240AF
:10113800004402586002002440000240014806F0C2
:101148009FBF00BFE803002402682DE9F84F264B33
:101158009A4201D0BDE8F88FDFF8908098F8EE3019
:10116800002BF7D0002408F1EE0A08F1040608F174
:10117800FE05A14619E003F00101C3F3400BC3F3D8
:101188008007304601F07CFB5946301D01F078FBA2
:10119800394606F1080001F073FB98F8EE30013487
:1011A80011360235A2B29342D4D91AF8012FC4EBF2
:1011B800C40C002AF3D0D8F81C110027D8F8202135
:1011C8002B78BB4631F8140002EB4C121B01394650
:1011D800D0522B8801339BB22B809AF800209A4278
:1011E800C9D2A5F80090CCE7002002406002002494
:1011F8000B469200014618460AF022B8014806F04C
:101208003FBF00BF401E0024014806F039BF00BFA1
:10121800B81E0024014806F033BF00BF301F002469
:10122800014806F02DBF00BF981C00242DE9F047A7
:101238000646814C814D88B0814AD0E90030C4F817
:101248002468802BC5F82468077828BF802390F885
:101258000B9090F80C80C4F81038C5F81038C37893
:10126800226084F81C3803792A6085F81C3801F05C
:1012780089F8B06808B100F03DFEF06808B100F0E8
:1012880039FED5F810184FF0020E6E4A17F0FD0F10
:101298000191D4F8101802F500606B4B01FA0EFAB0
:1012A8000199AB6003F5006301FA0EF1E260A060FA
:1012B800C4F818A8EB60C5F8181884F81EE885F873
:1012C8001EE82ED1F14584F81D9800F08A80B9F106
:1012D800030F76D0B9F1010F7DD0914600F2FF736C
:1012E80040F6FE72A3EB0903934240F28C804FF460
:1012F8000062002109F0B2FF48464FF40062002165
:1013080009F0ACFF4FF400720021504809F0A6FF25
:101318004FF4007200214E4809F0A0FF0023C4F8E2
:1013280014387B1E012B10D900274A484FF48042FD
:1013380001230024077002A947480594CDE9022338
:1013480006F030F808B0BDE8F087B8F1010F85F86D
:101358001D8854D0B8F1020F0AD171681023F068C3
:101368004BF68032897AB1FA81F1490907F0EAFA35
:10137800A86840F6FE72ED6800F2FF735B1B9342AB
:101388004ED94FF40062002109F068FF28464FF457
:101398000062002109F062FF4FF4007200212F481B
:1013A800A7F1020709F05AFF4FF4007200212C48F8
:1013B80009F054FFB7FA87F700237F09C4F81438F7
:1013C800B3E740F60133ADF80830029807F0C0FBE8
:1013D800D4E9020982E7B06807F074FAD4E902098F
:1013E8007CE7716810234BF68032B068497AB1FA0D
:1013F80081F1490907F0A6FAD4E902096EE7F06815
:1014080007F060FAB4E7031FA9F1040200F2FC70C8
:10141800002143F8041F834242F8041FF9D171E701
:10142800031F2A1F00F2FC70002143F8041F984292
:1014380042F8041FF9D1AFE760040024880C0024A7
:10144800F9110008FC000030FC1000307004002482
:1014580070080024B014002400180258980C0024C6
:101468009810002468B9084B802993F81E2828BFD3
:101478008021C3F8101801FB02F14900C3F81818BD
:101488007047024BF0E700BF60040024880C00247A
:101498002DE9F04FA44C0346ABB0204623655F7896
:1014A80093F8008003F0EEF9E8B9012F4FF0010539
:1014B8009E49034614BF4FF480124FF40002E060C7
:1014C800A560C4E9001592FAA2F2B2FA82F24FF4CA
:1014D8008076E0612046013A2362C4E9042603F0DD
:1014E80065F9034618B101202BB0BDE8F08F4FF025
:1014F800660C41F2883220460EA91496179313936E
:101508001B93CDF838C0CDE91533CDE9193303F075
:10151800D7F90028E7D1992341F288320EA920464D
:101528000E9303F0CDF90028DDD14FF0000B4FF0FA
:10153800010C4FF0050A4FF08079249008AA2190F9
:101548001CA9299041F28833CDF870A0CDF8949069
:10155800CDE908BC4FF0100B4FF0010CCDE90ABCE7
:101568004FF0000B4FF4800CCDE92260CDE9270045
:101578002046CDE90CBC03F00FFB0028B3D1ADF831
:1015880008001390CDE91460CDE91609CDE918508B
:10159800CDE91A00002F00F0CB80F023ADF8083019
:1015A800C02341F288320EA95F480E9303F088F9F0
:1015B800002898D141F288325B4802A903F0EAF981
:1015C800044600288FD1002601274FF480754FF07C
:1015D80080794FF0000A4FF4800B219441F2883350
:1015E800299408AA1CA950482295CDF89490CDE9D1
:1015F8000867CDE9234410260127CDE927440524AF
:10160800CDE90A671C94CDE90CAB03F0C5FA0028B4
:101618007FF469AF012406238DF8070041F2883270
:1016280013901CA91B90219029900E941C93CDE92E
:101638001450CDE91609CDE91900CDE92250CDE9BC
:101648002400CDE92700384803F03AF900287FF450
:101658004AAF10260127052041F2883308AA1CA9A1
:101668001C903148CDF89490CDE90A6702260227EC
:10167800CDE90CABCDE9086703F08EFA00287FF4BA
:1016880032AF41F288320EA9274803F019F9002831
:101698007FF429AF402341F288320DF10701224837
:1016A8008DF8073003F076F900287FF41CAF102678
:1016B8000127052002AA41F288330EA90E901A4884
:1016C800CDF85C90CDE9046740264027CDE906AB0C
:1016D800CDE9026703F060FA064600287FF403AFFD
:1016E8002295002521960520299601271C9008AAF5
:1016F80041F288331CA90C48CDF89490CDE92366B3
:10170800CDE927660126CDE908561026CDE90CABB0
:10171800CDE90A6703F040FA00287FF4E4AEB8F197
:10172800000F50D00020DFE6B4140024005000520F
:10173800612341F288320EA920460E9303F0C0F8C7
:1017480000287FF4D0AE41F2883202A9204603F087
:101758009FF900287FF4C7AEBDF80830062525900C
:1017680041F2883223F07803219029901CA943F094
:10177800400322961C95ADF80830CDE92300CDE949
:101788002700204603F09CF800287FF4ACAE102612
:10179800012720460225022441F2883308AA1CA901
:1017A800CDF870A0CDF89490CDE90A6700264FF4E3
:1017B8008007CDE90845CDE90C6703F0EDF900286D
:1017C8003FF4EEAE8FE6EB24A0264FF40057062533
:1017D8001C9400244FF0805000234FF480784FF47D
:1017E800406929900EAA1CA90C48CDE91E67CDE9CD
:1017F80020454FF440464FF0407700240025CDE9BE
:101808002733CDE92289CDE92467CDE90E4503F0D8
:1018180037FA003818BF012066E600BFB414002468
:101828003E4B02682DE9F0479A428CB04FF0000514
:10183800CDE90755CDE909550B9502D00CB0BDE8A7
:10184800F087374B0226374905AFD3F8D420B14685
:10185800DFF8D4A04FF0030842F48042C3F8D42044
:10186800D3F8D42002F480420092009AD3F8E02002
:1018780042F04002C3F8E020D3F8E02002F0400232
:101888000192019AD3F8E02042F02002C3F8E02048
:10189800D3F8E02002F020020292029AD3F8E02066
:1018A80042F01002C3F8E020D3F8E02002F0100262
:1018B8000392039AD3F8E0203243C3F8E020D3F828
:1018C800E03033400493049B03C90590ADF8181029
:1018D800DAF8504034440236204601F007FC03464B
:1018E80020461C4601F00AFC17F8013B024607A9EE
:1018F80020460B93CDE90729CDE9095805F052FD9B
:101908000E2EE5D100225C20114602F00FFA5C2071
:1019180002F046FA0CB0BDE8F08700BF0050005254
:10192800004402581CB30008B4140024124B026887
:101938009A4200D07047114AD2F8D43070B523F4D7
:10194800804302250E4EC2F8D430346D2C44023543
:10195800204601F0CBFB034620461C4601F0CEFB97
:101968000146204605F042FE0E2DEED15C20BDE872
:10197800704002F023BA00BF0050005200440258E1
:10198800B4140024014803F003BA00BFB4140024BF
:101998002DE9F043444C8BB0A063037823B10025B4
:1019A80028460BB0BDE8F083404A0A2300260127E9
:1019B800626008220893202302A9201DC4E9026757
:1019C800C4E9042340264FF4C07700224FF4006393
:1019D800C4E90667C4E908234FF4805600270222A9
:1019E8000723C4E90A67CDE902230426032200235A
:1019F8000827CDE90623CDE9046702F055FB054623
:101A080000284CD14FF001084FF01009012600279B
:101A180002A94FF480520190201DCDE902894FF0B0
:101A280002084FF01009CDE9046702F067FB642053
:101A380006F030FF02A94FF48052201DCDE904675B
:101A4800CDE9028904264FF003084FF0100900275A
:101A580002F054FB02A94FF48052201DCDE904671F
:101A6800CDE9028902F04AFB40F232234FF0010C23
:101A7800042601931027019B02A94FF48052201DD0
:101A8800CDE904C3CDE9026702F038FB201D40F61A
:101A9800060102F053FB28460BB0BDE8F083012590
:101AA80028460BB0BDE8F0831015002440410052D1
:101AB800694A2DE9F04315688FB015B10FB0BDE83C
:101AC800F083664B01210C24002611600327D3F80C
:101AD800D4204FF683784FF0020908A942F48052C7
:101AE8005F48C3F8D420D3F8D42002F4805200927F
:101AF800009AD3F8E02042F01002C3F8E020D3F8AF
:101B0800E02002F010020192019AD3F8E02042F09E
:101B18004002C3F8E020D3F8E02002F0400202922D
:101B2800029AD3F8E02042F00802C3F8E020D3F884
:101B3800E02002F008020392039AD3F8E02042F46E
:101B48008072C3F8E020D3F8E02002F48072049297
:101B5800049AD3F8E02042F08002C3F8E020D3F8DA
:101B6800E02002F080020592059AD3F8E02042F0C6
:101B78002002C3F8E020D3F8E02002F02002069209
:101B8800069AD3F8E02042F00402C3F8E020D3F824
:101B9800E0300C9403F004030793079BCDE90A6730
:101BA800CDE9088905F0FEFB48F23712022308A99F
:101BB8002C480C94DFF8C080CDE90A67CDE90823EA
:101BC80005F0F0FB4CF20372022308A926480C9496
:101BD800CDE90A67CDE9082305F0E4FB40F2FF628E
:101BE800022308A921480C94CDE90A67CDE9082306
:101BF80005F0D8FB4FF60C72022308A91C480C9478
:101C0800CDE90A67CDE9082305F0CCFB4FF63F0282
:101C1800022308A917480C94CDE90823CDE90A67DF
:101C280005F0C0FBD8F83800013001F05FFAD8F8A9
:101C380038300646581C01F061FA02220746032391
:101C480008A930460C9408970B93CDE9092505F0AF
:101C5800A9FB0FB0BDE8F083081500240044025822
:101C68000010025800180258000C025800200258B0
:101C7800001C02580014025810150024000000002F
:101C88002DE9F04FCFB04C2200210AA809F0E6FA5E
:101C98002022002102A809F0E1FABC2200211EA896
:101CA80009F0DCFA022006F05FFD514A0021514B91
:101CB80001911846D16A21F00101D162D26A02F07D
:101CC800010201929A6942F440429A619B6903F4C5
:101CD80040430193019B83699B04FCD5464A022437
:101CE80021204FF48031936A0126042523F0030351
:101CF80023439362C823082210961693002317944F
:101D0800199415951C93CDE90A0105210AA8CDE976
:101D180013441891CDE91A2303F03CFD00B1FEE706
:101D28003F2603270022082302A82146CDE902679F
:101D3800CDE90423402640234FF480624027CDE9B3
:101D48000823CDE9066704F061F8034600B1FEE711
:101D580080220A260227002534924FF48072339499
:101D68008024439200224FF054084FF008091EA81F
:101D7800CDE93B334FF4805335934FF4803346938A
:101D88000623CDE92267CDE9244540F227164027EE
:101D980004242025CDE926234FF480620023CDE9D1
:101DA8002867CDE92A45CDE92C230FF23C0BDBE966
:101DB80000AB002602270024002500224FF4401320
:101DC800CDE91EABCDE92089CDE92E67CDE93045B7
:101DD800CDE93E2304F07AFA00B1FEE706F0EAFC0A
:101DE8004FB0BDE8F08F00BF09130F0304000000D7
:101DF80000040058004802580044025808B506F08C
:101E080037FDBDE8084002F051B800BFFFBE70477B
:101E180070B584B0012506F0FDFC0024FFF730FF03
:101E280001F0F8FF4FF040512E4A4FF48073684696
:101E38000191ADF80050CDE9022302F00DF840F20F
:101E4800011119224FF040436846ADF80E108DF885
:101E5800082001938DF801508DF80D408DF80A4047
:101E680001F0FAFF042001F0E5FF06F08BFEBFF356
:101E78004F8FBFF36F8F1C4BC3F85042BFF34F8F88
:101E8800BFF36F8F5A6942F400325A61BFF34F8F24
:101E9800BFF36F8FC3F88440BFF34F8FD3F8801020
:101EA80043F6E074C1F34E32C1F3C901520102EAAC
:101EB8000405084645EA80760138C3F86062461C86
:101EC800F8D1203A12F1200FF1D1BFF34F8F5A69A0
:101ED80042F480325A61BFF34F8FBFF36F8F04B063
:101EE80070BD00BF0D00010300ED00E006F0CCBCA2
:101EF80006F0D0BC38B5054601F008F904462B7841
:101F0800022B3FD0032B35D0012B2BD02868214B37
:101F1800214A1860A988998022606B79012B18D012
:101F2800022B1CD0C3B1002501232046E360A56025
:101F38002562C4E90455C4E9065502F0C9F92946E1
:101F4800204602F0F3FA29462046BDE8384002F060
:101F580019BB124B6360E6E7114B6360E3E7114B73
:101F68006360E0E72868104B104A1860A9889980D8
:101F78002260D2E728680E4B0E4A1860A98899801B
:101F88002260CAE728680C4B0C4A1860A988998017
:101F98002260C2E74C150024005400403211D020C2
:101FA8008A62E0301A098010541500240058004055
:101FB80064150024001C00585C150024005C0040D7
:101FC8009C4A0368934230B58FB055D09A4A9342E1
:101FD80000F09C80994A934200F0EE80984A934220
:101FE80001D00FB030BD974B974CD3F8E020601C60
:101FF80042F00202C3F8E020D3F8E03003F0020315
:102008000893089B01F072F80546601C01F076F809
:10201800227812210023012ACDE90901CDE90B33E9
:1020280001D804230D9309A92846019105F0BAF9AE
:10203800864801F05BF80546844801F05FF822788D
:1020480000231224012A0199CDE90904CDE90B33B3
:1020580001D804230D93284605F0A4F9794BD3F849
:10206800F42042F08002C3F8F420D3F8F43003F0EF
:1020780080030993099BB4E7724B754CD3F8E020B1
:10208800601C42F00202C3F8E020D3F8E03003F00D
:1020980002030293029B01F029F80546601C01F037
:1020A8002DF8227812210023012ACDE90901CDE972
:1020B8000B3301D804230D9309A92846019105F093
:1020C80071F9644801F012F80546624801F016F803
:1020D800227800231224012A0199CDE90904CDE9C7
:1020E8000B3301D804230D93284605F05BF9554BB3
:1020F800D3F8E82042F40012C3F8E820D3F8E83017
:1021080003F400130393039B0FB030BD4D4B524CA7
:10211800D3F8E020601C42F08002C3F8E020D3F836
:10212800E02002F080020492049AD3F8E02042F002
:102138000202C3F8E020D3F8E03003F0020305936D
:10214800059B00F0D3FF0546601C00F0D7FF2278FE
:1021580012210023012ACDE90901CDE90B3301D869
:1021680004230D9309A92846019105F01BF93B4862
:1021780000F0BCFF0546394800F0C0FF2278002374
:102188001224012A0199CDE90904CDE90B3301D8BC
:1021980004230D93284605F005F92A4BD3F8E820C7
:1021A80042F48002C3F8E820D3F8E83003F480034F
:1021B8000693069B0FB030BD294C601C00F096FFBB
:1021C8000546601C00F09AFF227812210023012A9C
:1021D800CDE90901CDE90B3301D804230D9309A9F1
:1021E8002846019105F0DEF81E4800F07FFF0546FD
:1021F8001C4800F083FF227800231224012A019949
:10220800CDE90904CDE90B3301D804230D93284601
:1022180005F0C8F80B4BD3F8E82042F40002C3F8E5
:10222800E820D3F8E83003F400030793079B0FB0C6
:1022380030BD00BF0054004000580040005C004022
:10224800001C005800440258641500246715002437
:102258004C1500244F15002454150024571500244C
:102268005C1500245F150024184BF0B5197983B06C
:10227800012929D0002211460024154802230125EE
:10228800144F4BF680360192009107600662C461D4
:10229800114EC460C0E90135C0E90544C0E90B44EA
:1022A80003F030F80D4802234461C461C4604463FC
:1022B8000660DDE90012C0E90154C0E90B4403B02F
:1022C800BDE8F04003F01EB80222D5E774150024DB
:1022D800101D0024045C0140245C0140001C002403
:1022E80070B5254D82B0E978012936D000226B7A85
:1022F8001146002B35D0012B3AD16B791F48002BA2
:102308000CBF03230223436000244BF680360223CC
:1023180006628460C461C460C0E90544C0E90B4436
:102328001648CDE9001202F0EDFFEB7914480125BB
:10233800A3424FF0020344610CBF03260226C46186
:102348004660C46044638560DDE90012C0E90B445F
:1023580002B0BDE8704002F0D5BF6B7A0222002BB4
:10236800C9D16B790548B3FA83F35B094360CBE7BE
:10237800024801234360C7E774150024A81F0024FE
:10238800A81D0024F8B5194F044600F1200C3E465C
:102398002068103454F80C1C354654F8082C1036B4
:1023A80054F8043C64450FC5F2D12378104A3370C1
:1023B800104C11493B78114D1460012B104804F55D
:1023C8008064104A0D6010490460116005D0022B2A
:1023D80001D033B1F8BDFFF783FFBDE8F840FFF740
:1023E80043BFBDE8F840FFF77BBF00BF741500246A
:1023F800A81F002404580140A81D002424580140A7
:10240800101D0024001C0024245C0140B14BD3F8AB
:10241800E02042F010022DE9F04FC3F8E02093B01D
:10242800D3F8E0200446AC4D02F010020092009A66
:10243800D3F8E02042F00202C3F8E020D3F8E0200D
:1024480002F002020192019AD3F8E02042F0400221
:10245800C3F8E020D3F8E02002F040020292029A8A
:10246800D3F8E02042F00802C3F8E020D3F8E020D7
:1024780002F008020392039AD3F8E02042F0040223
:10248800C3F8E020D3F8E02002F004020492049A92
:10249800D3F8E02042F00102C3F8E020D3F8E020AE
:1024A80002F001020592059AD3F8E02042F4807206
:1024B800C3F8E020D3F8E010026801F48071AA4262
:1024C80006910699D3F8E01041F08001C3F8E010B6
:1024D800D3F8E01001F0800107910799D3F8E010D4
:1024E80041F02001C3F8E010D3F8E01001F020011A
:1024F800089108990CD0794B9A4200F00781784BE3
:102508009A423AD0774B9A4275D013B0BDE8F08F13
:10251800754A1168002900F06E810025DFF8E891FE
:1025280001310DF1340809EB450A2F465FFA85FBA6
:102538001160504615B96D4B597AA9B900F0D6FD0E
:102548000646504600F0DAFD0223014606223046D0
:102558001192CDE90D134146CDE90F7704F022FF22
:10256800BBF1040F00F00E81013509EB450A5FFA53
:1025780085FB5046002DDED0E0E75D4B1A6862B956
:102588005449D1F8F00040F40000C1F8F000D1F847
:10259800F01001F400010B910B9961680132554D5F
:1025A8004FF4804021F002011A60534A4FF48053DF
:1025B80001294FF059072A604FF480710CBF00229F
:1025C80040226B614FF480660023AA604FF400320A
:1025D800A8612846EB606B626F602E61C5E907123F
:1025E80005F0BEF922683F4BC4F884509A42AC63A8
:1025F800C4F8805089D13E4B1A68002A00F0ED805B
:1026080000253E4E01320DF13408A9464FF0020A6A
:1026180030465FFA85FB1A60CDB9344B9B7A7BB99B
:1026280000F064FD0746304600F068FD0A230D906F
:102638001095CDE90EA538464146119304F0B2FE37
:10264800013502365FFA85FB3046002DE5D000F0F3
:102658004DFD0746304600F051FDBBF1020F024622
:102668004FF00A0341463846CDE90D2ACDE90F99C6
:1026780000F0B180119304F095FEBBF1040FDFD197
:1026880063685A221E4D4FF4806623F002031D49E9
:102698006A604FF48052012B4FF4804029604FF458
:1026A80080710CBF00234023A8612846AB6000233B
:1026B800C5E904624FF40032EB606B62C5E90712AA
:1026C80005F04EF9C4F88450AC63C4F8805013B0D8
:1026D800BDE8F08F004402580458014024580140D6
:1026E800045C0140245C01406C150024741500242E
:1026F80070150024301F0024580002408B15002458
:10270800981C00247000024081150024404A136878
:1027180063B94049D1F8F00040F48000C1F8F000F6
:10272800D1F8F01001F480010A910A996168013327
:10273800394D4FF4804021F002011360374A4FF4BD
:10274800805301294FF058072A604FF480710CBF5D
:10275800002240226B614FF480660023AA604FF488
:102768000032A86128466F602E61EB606B62C5E994
:10277800071205F0F5F82268C4F88450AC63C4F871
:102788008050BCE663685722254D4FF4806623F0DD
:10279800020324496A604FF48052012B4FF48040B1
:1027A80029604FF480710CBF00234023A86128469C
:1027B800AB600023C5E904624FF40032EB606B6242
:1027C800C5E9071205F0CCF82268C4F88450AC6358
:1027D800C4F880508FE608232DE70E49D1F8F000A1
:1027E80040F40000C1F8F000D1F8F01001F4000145
:1027F8000C910C9904E7D3F8F00040F48000C3F87A
:10280800F000D3F8F03003F480030993099B84E6C1
:102818006C15002400440258B81E00242800024009
:10282800401E00241000024010B5837886B004468C
:10283800022B22D0032B1ED0012B1CD00023029385
:10284800E378012B15D0022B13D000230393002328
:102858002046049300F04AFC034620461C4600F03C
:102868004DFC01A903462046019304F09BFD06B0E8
:1028780010BD0393EBE70293E2E711230293DFE72E
:1028880070B506460D4600F031FC0446304600F0AF
:1028980035FC2A1E0146204618BF0122BDE87040BB
:1028A80004F072BF70B5184D8AB00C462B7E686173
:1028B8009BB1002002210026002200230496CDE9C6
:1028C8000001CDE90223C4B1032C16D004F0FD03A6
:1028D800012B0AD06C760AB070BD0C4B28462B60D1
:1028E80001F0E8FA01232B76E3E71022694606484F
:1028F80001F03AFB6C760AB070BD002269460248C6
:1029080001F032FBE2E700BF981500240074004094
:1029180010B51E4C82B00B4662695278002A0CBF73
:1029280008220022012804D003281BD080B102B05D
:1029380010BD1021204601F0FFFA63691B78002BB7
:10294800F5D12046102102B0BDE8104001F0C8BA08
:102958000146204601F0F0FA636919780029E6D1AA
:102968002046F0E7CDE900212046002101F0E4FAF5
:1029780010212046DDE9002301F0DEFA63691978A9
:102988000029D4D1204601F0ABFADAE798150024E3
:10299800284B02689A4200D07047274B0020D3F892
:1029A800E81030B541F00051244C89B00325627E0F
:1029B800C3F8E810D3F8E81001F00051019101992B
:1029C800D3F8E01041F00101C3F8E010D3F8E0308B
:1029D800049503F0010305900293029B3AB1AA42C1
:1029E80005D002F0FD02012A13D009B030BD656997
:1029F8000235284600F07AFB034628461D4600F0BB
:102A08007DFB034603A92846039304F0CBFC627EB2
:102A1800E7E764690434204600F068FB0346204673
:102A28001C4600F06BFB034603A92046039304F001
:102A3800B9FCDAE7007400400044025898150024F5
:102A4800F0B5194BC827194E02224FF0804403F104
:102A58000C050021002089B09A60DC6080220024E7
:102A68005A620194C3E900674FF0FF360027C3E9B3
:102A78000401C3E906672846CDE90444CDE90644C4
:102A8800CDE9024402F000FD4FF4805304A9284622
:102A9800049302F091FD01A928460194039402F0E1
:102AA80049FE09B0F0BD00BFB8150024400D030071
:102AB8000368B3F1804F00D07047084B82B0D3F859
:102AC800E82042F00102C3F8E820D3F8E83003F028
:102AD80001030193019B02B0704700BF00440258F4
:102AE800B6EE007A016060EE200A0276F7EE007A10
:102AF800437680ED020A60EE870AC0ED047A87EE1D
:102B0800A07A10B40024C46044615DF8044B80EDE1
:102B1800017A70470268037E128807EE902AFBEE5E
:102B2800C87A1BB1B7EE007A77EE677AD0ED056AFE
:102B380090ED047A77EEE67A437E67EE877A0BB1FA
:102B4800F1EE677A90ED030A90ED017A77EEC07A9C
:102B5800A7EE270A80ED030A704700BF30B5044688
:102B680085B04FF480751030ADF80820ADF80C1022
:102B78000180A2826582E5828DED000AADF80430FD
:102B8800FFF752FE04F11400FFF74EFE9DED000A18
:102B98002046019900F08EFA00224FF6FF73E26199
:102BA800238305B030BD00BF098800220180C0F82A
:102BB8000220FFF739BE00BF10B50446017002308D
:102BC800627006F0C5F80023072263672271E3707C
:102BD800236710BD704700BF2DE9F041DFF8808002
:102BE80082B0B0241C4E1D4D002130468DF80740A0
:102BF80001340F46FFF744FE01220DF10701284674
:102C0800E4B206F02FF8394630468DF80770FFF722
:102C180037FE01220DF10701284606F023F810239C
:102C2800394630468DF80730FFF72AFE01220DF1AC
:102C38000701284606F016F801213046FFF720FE66
:102C480041468022284606F00DF8B82C08F1800885
:102C5800CAD102B0BDE8F081081A0024041A002481
:102C6800041600242DE9F0470D46C34E012482B016
:102C780035F8023B8146DFF810833046BF4F4FF0EE
:102C8800200A3380B470FFF7CFFD2B88404600251B
:102C980088F80240A8F80030FFF7C6FD384605F06E
:102CA800B5FF29464046FFF7EBFD0A20FFF720F95C
:102CB80021464046FFF7E4FD0A20FFF719F9AE2345
:102CC800304629468DF80730FFF7DAFD22463846A8
:102CD8000DF1070105F0C6FF304629468DF807A01B
:102CE800FFF7CEFD22460DF10701384605F0BAFF81
:102CF800304629468DF80750FFF7C2FD22460DF1F0
:102D08000701384605F0AEFFB023294630468DF856
:102D18000730FFF7B5FD22460DF10701384605F0EB
:102D2800A1FFC823294630468DF80730FFF7A8FDD4
:102D380022460DF10701384605F094FF2946304632
:102D48008DF80750FFF79CFD22460DF10701384624
:102D580005F088FF1023294630468DF80730FFF725
:102D68008FFD22460DF10701384605F07BFF402311
:102D7800294630468DF80730FFF782FD22460DF1CF
:102D88000701384605F06EFF8123294630468DF845
:102D98000730FFF775FD22460DF10701384605F0AB
:102DA80061FFFF23294630468DF80730FFF768FD9D
:102DB80022460DF10701384605F054FFA1232946A4
:102DC80030468DF80730FFF75BFD22460DF107010D
:102DD800384605F047FFA623294630468DF80730C8
:102DE800FFF74EFD22460DF10701384605F03AFF80
:102DF800A823294630468DF80730FFF741FD2246C3
:102E08000DF10701384605F02DFF3F2329463046CE
:102E18008DF80730FFF734FD22460DF107013846DB
:102E280005F020FFA423294630468DF80730FFF728
:102E380027FD22460DF10701384605F013FFD3237D
:102E4800294630468DF80730FFF71AFD22460DF166
:102E58000701384605F006FF294630468DF8075029
:102E6800FFF70EFD22460DF10701384605F0FAFE80
:102E7800D523294630468DF80730FFF701FD224655
:102E88000DF10701384605F0EDFEF02329463046DE
:102E98008DF80730FFF7F4FC22460DF1070138469C
:102EA80005F0E0FED923294630468DF80730FFF7B4
:102EB800E7FC22460DF10701384605F0D3FE222330
:102EC800294630468DF80730FFF7DAFC22460DF127
:102ED8000701384605F0C6FEDA23294630468DF844
:102EE8000730FFF7CDFC22460DF10701384605F003
:102EF800B9FE1223294630468DF80730FFF7C0FC8B
:102F080022460DF10701384605F0ACFEDB232946C1
:102F180030468DF80730FFF7B3FC22460DF1070164
:102F2800384605F09FFE294630468DF807A0FFF782
:102F3800A7FC22460DF10701384605F093FEAF23A2
:102F4800304629468DF80730FFF79AFC22460DF1E6
:102F58000701384605F086FE29464FF48062084886
:102F680008F07CF94846FFF737FE064B1D605C7198
:102F780002B0BDE8F08700BF081A0024041A002434
:102F8800041600240C1A0024141A0024024A0349C7
:102F9800034807F0EDBF00BF00000024DD2B000848
:102FA800041A00249FED197AF0EE407A4B68B4EECB
:102FB800470A70B504460868F1EE10FA8E68CD68C5
:102FC8002DED028B206048BFB0EE470A0869B0EECD
:102FD800608A636084F830204B690A8B20616361E2
:102FE8002283C4ED077AC4ED080AA660E56008F0FC
:102FF80037F8F0EE407AB0EE480AC4ED097A08F0E6
:103008002FF884ED0A0ABDEC028B70BD95BFD6334C
:1030180090F8303010B50446032B47D8DFE803F0AA
:1030280015243502FFF776FD60EE006AD4ED077AC5
:1030380094ED087A66EE806A37EE677AE6EE877A6C
:10304800B0EE670AC4ED0B7A10BDFFF763FDD4ED4F
:10305800077A94ED087A37EE677AE0EE077AB0EEF1
:10306800670AC4ED0B7A10BDFFF754FDD4ED077A5B
:1030780094ED087A20EE000A37EE677AE0EE077AD8
:10308800B0EE670AC4ED0B7A10BDFFF743FD94ED6F
:10309800097AD4ED0A7A77EEC77AA0EE277AB0EEED
:1030A800470A07F06BFF84ED0B0A10BD90ED0B0A81
:1030B80010BD00BFB7EE007A01220346C7EE007AC2
:1030C80070B4002683B0C1F307250024ADF80410BE
:1030D800C660417010449D70DC701A709A809A71B5
:1030E800C3ED027A03B070BCFFF79EBB024B0278B7
:1030F80053F82200704700BF44B30008024B4278DF
:1031080033F81200704700BF24B3000810B485B02C
:103118000478074B0DF1100C0FCB0CEB84040CE971
:103128000F0054F8100C05B05DF8044B704700BF51
:1031380074B20008704700BF806B08B5FFF7FAFF4C
:1031480008BD00BF704700BF836B5A6D12F0500F67
:103158005A6D10B51DD1196842F400725A650A6893
:1031680012F0080FCA681BD012F4406F0DD1CA685C
:1031780094040AD45A6D22F480725A655A6DD104A7
:1031880003D45A6D42F001025A651846FDF7DCFF78
:1031980010BDD2060AD4DB6CBDE81040DB6C1847C2
:1031A8009007E7D01846FDF7CFFFF1E71846FFF77D
:1031B800C9FF10BD806B08B5436D43F040034365FC
:1031C800836D43F004038365FFF7BCFF08BD00BFB0
:1031D800F0B5002283B0019290F85020012A00F047
:1031E8001B81034601201A6883F85000946866071B
:1031F80000F189800C68C4F31305002D40F08E801F
:10320800C4F3846C00FA0CF04C681F26D569A70932
:103218003440284302F1300507F00C07A640D0617E
:103228000CFA04F4785920EA060020437851906893
:10323800450771D4956815F0080548D10C6802F166
:10324800140607208F684FEAD45CC4F304540CF0CA
:10325800040C00FA04FE07FA04F4C64F5CF80600F2
:1032680020EA0E0020434CF80600386800F0704051
:10327800B0F1805F00F0C880D068D66810F0100FF9
:10328800486940F0E980C6F38206760000FA06F63F
:103298000F69042F00F0C38002F16004086854F835
:1032A80027C000F0F8400CF0004C40EA0C00304316
:1032B80044F827000E694F7E54F82600012F20F0AD
:1032C800004008BF4FF00045054344F82650906879
:1032D800C40716D4CE68086806F01807A64CD2F8BA
:1032E800C050FC40C0F31307DFF8B8C2044025EA19
:1032F8000705664544EA0504C2F8C04046D00028E0
:1033080016DB002003E05A6D42F020025A650022C5
:1033180083F8502003B0F0BD9068D8E794FAA4F57C
:10332800B5FA85F5C4F3846C05F01F04A0406BE77B
:1033380092498A4200F0B68001F580718A4200F015
:10334800B1808F4E8F4DA968B46801F0E076E443F0
:1033580004F00104002C00F0B3808B4CA04200F074
:10336800E6808A4CA04200F01F81894CA042C8D157
:103378004902C6D482498A42C3D1AA68002022F0F1
:10338800E072324342F48002AA60C0E7002F69D09D
:1033980090FAA0F4B4FA84F4013404F01F04092C60
:1033A80000F2A38090FAA0F4B4FA84F490FAA0F59D
:1033B8000126B5FA85F501343544A40605F01F0544
:1033C80004F0F84406FA05F52C4390FAA0F0B0FA98
:1033D80080F0304400F01F0000EB4000000520435F
:1033E800C70D02F11405C0F304504FF0070C07F0A5
:1033F80004078E680CFA00FC7C59864024EA0C000D
:103408003043785108687AE7D6684869C6F3820677
:10341800760000FA06F63BE7022003B0F0BD106E16
:103428000D6800F0F840AC06B0EB856F30D0506EF8
:1034380000F0F840844226D0906E00F0F8408442B4
:103448002BD0D06E00F0F84084427FF440AFD06EAD
:1034580020F00040D0663AE7760806F0080600FA41
:1034680006F615E7800E441C04F01F06092E2DD819
:10347800A406012506EB460004F0F84405FA06F612
:1034880000053443ABE7506E20F000405066D3E7A8
:10349800106E20F000401066C9E7906E20F00040E2
:1034A8009066CEE73B49354E3B4C0D468968B76878
:1034B800A46801F0E0763C43E44304F0010449E7E2
:1034C8005A6D012042F020025A6520E706EB4600BB
:1034D8000127A5061E3807FA06F605F0F845000587
:1034E800354340F0007028437AE790FAA0F5B5FA22
:1034F80085F590FAA0F40126B4FA84F40135344431
:10350800AD0604F01F0405F0F84506FA04F4254357
:1035180090FAA0F4B4FA84F4344404F01F0404EBE1
:103528004404A4F11E00000540F00070DBE7080227
:103538003FF5E7AE12498A427FF4E3AE174AA9681D
:103548001268174821F0E07192093143A0FB02028A
:1035580041F400019209A96052000192019A002ADF
:103568003FF4CFAE019A013A0192019A002AF9D1AB
:10357800C7E600BF0010005CFFFF0F0000200240FC
:103588000060025800630258000084CB000052C754
:103598000000B8CF002302400021024004000024AC
:1035A800632D3E050000FF4711F080707FF4A9AE3F
:1035B80005498A427FF4A5AEAA6822F0E072324338
:1035C80042F08072AA60A2E60060025803689A6816
:1035D800D20701D5002070479968214A114270B579
:1035E80004462AD199681F4A0A4042F001029A60AB
:1035F80005F04AF923681C4A0546934226D002F58D
:103608008072934222D0194A9268164E0AE09A684C
:10361800324042F001029A6005F036F9401B022858
:103628000BD823681A68D20717D49A68D107EED541
:1036380005F02AF9401B0228F3D9636D012043F0F5
:1036480010036365A36D0343A36570BD084A9268C0
:10365800D006DAD0074A9342D7D1002070BD00BF08
:103668003F000080C0FFFF7F002002400063025837
:1036780000230240002102402DE9F0413B4D044661
:1036880000680F461646A84219D0394B984216D002
:10369800384DAB688068420716D494F85020012A48
:1036A80012D003F01F080123B8F1090F84F8503035
:1036B8000DD90023012084F85030BDE8F0812E4D4B
:1036C800AB6880684207E8D50220BDE8F08140F287
:1036D800212323FA08F3DB4313F00105E9D120463F
:1036E800FFF774FF00283AD1626D244B2568134018
:1036F80043F480736365B8F1000F02D01C4B9D4200
:1037080003D0636D23F480136365636D13F48053F2
:1037180029D0A36D23F00603A365E06C4FF0000CDD
:10372800DFF868E033463A461C21154F154EC0F8BD
:103738003CE00764C664296005F1400184F850C084
:103748006E6846F010066E6004F0D4FA22680E4BDC
:1037580091680B4043F004039360BDE8F08184F85E
:103768005050BDE8F081A365D7E700BF00200240B4
:10377800002102400063025800230240FEF0FFFFD0
:1037880041310008BD310008C0FFFF7F51310008FA
:1037980038B503689A68910702D59B68002038BD40
:1037A8009A68D20723D59A68044602F00D02012AC6
:1037B80008D0636D012043F010036365A36D0343D4
:1037C800A36538BD986803210A4A024042F0020204
:1037D8009A60196005F058F8054604E005F054F8B9
:1037E800401B0228E5D823689B68DB07F6D4002035
:1037F80038BD00BFC0FFFF7F38B55A4A044603688A
:10380800934249D002F58072934245D0564B9B684B
:1038180013F4403F14BF01230023EBB102F010FC66
:1038280063680546B3F5003F00F08B80B3F5403F71
:1038380073D0B3F5803F00F0848005F03DF841F285
:10384800030398421FD8494B9D4260D92268936868
:1038580043F48073936038BD4FF4002003F0C0FC3C
:1038680063680546B3F5101F75D01DD9B3F5201F41
:103878005BD0B3F5301FE0D105F01EF841F2030329
:10388800984244D92D0A3A4B9D422ED82268936813
:1038980023F44073936038BD364B9B6813F4403F64
:1038A80014BF01230023B8E7B3F5E01F3FD004D9C4
:1038B800B3F5001FC1D14509BFE7B3F5801F06D096
:1038C8000AD9B3F5A01F02D0B3F5C01FB5D19B0C20
:1038D8005B00B5FBF3F5B0E7B3F5002FF7D023F4A1
:1038E8000022B2F5802FF2D0A7E7234B234A2B44BE
:1038F80093421ED9224B234A2B4493422268936851
:103908002BD823F4407343F40073936038BD2268C6
:10391800936823F48073936038BD850804F0CCFF66
:1039280041F203039842AED88DE7C50985E705093A
:1039380083E72268936823F4407343F480739360A9
:1039480038BD1B0CB5FBF3F504F0B6FF41F20303D9
:10395800984298D877E785096FE743F440739360F6
:1039680038BD00BF0020024000630258002D31011D
:10397800105E5F0000230240EFA1A0FF0F5E5F0012
:10398800DF4341FF1FBCBE0070B5002382B0019326
:10399800002800F0CF80456D0446002D00F0B98066
:1039A800226893689D0003D59168704B0B40936023
:1039B8009368D80015D46E4B90681B686D4D9B09B1
:1039C8006D49A5FB035301409B0941F0805191606B
:1039D8000193019B2BB1019B013B0193019B002BA0
:1039E800F9D19368D90024D4636D012543F01003FD
:1039F8006365A36D2B43A365936813F0040F636D90
:103A08001DD1DB061BD4636D23F4817343F00203DD
:103A180063659368DE0728D4584B9A4217D003F59C
:103A280080739A4213D0564B9B68D9071DD4554AC8
:103A380015E09368002513F0040F636DE1D0636D02
:103A4800012543F010032846636502B070BD4B4A58
:103A58004D4B92689B681343D80706D44B4A93682A
:103A6800616823F47C130B43936004F025FF41F253
:103A78000303A1689842237F51D8667D1A04206BFE
:103A880042EA463202430A43012B03D1236A013B2F
:103A980042EA4342636A23B103F47873A16A0B4391
:103AA8001A4323683A49D86801400A43DA609A6899
:103AB80012F0040F9A681CD112071AD4D968354A33
:103AC800207D0A40E16A42EA80320A43DA6094F8CB
:103AD8003820012A3AD01A6922F001021A611A69BB
:103AE8002046616B22F070420A431A61FFF784FE98
:103AF8002368E268012A21D01A6B22F00F021A63A8
:103B0800636D284623F0030343F00103636502B0A5
:103B180070BDFDF7CFFAA56584F8505040E710292D
:103B2800ABD1607D1A04216B42EA40320A4342F06D
:103B38001C02A9E70125284602B070BD196BA269CD
:103B480021F00F01013A0A431A63D9E71869124EA6
:103B5800D4E910210640A06C0A43E16B32430243CA
:103B680042EA014242F001021A61B8E7C0FFFF5F72
:103B780004000024632D3E05C0FFFF6F00200240B3
:103B880000600258006302580021024000230240EE
:103B980003C0F0FFFCBFFFFF1EF800FCF0B50D46A8
:103BA80090F8501083B00026012901963ED00123D9
:103BB8000446174680F85030FFF7EAFD636DE0B918
:103BC8001C4E07F08042216805F480351E401A4BD0
:103BD8001A4F46F0020666658E68334013432B433E
:103BE80043F000438B608B68002B0EDB636D23F082
:103BF800030343F00103636502E043F010036365C8
:103C0800002384F8503003B0F0BD019B01330193C9
:103C1800019BBB42E7D9636D0022012023F0120308
:103C280084F8502043F010036365ECE7022003B0EA
:103C3800F0BD00BFFDEEFFFFC0FFFE3FFF955A55E8
:103C4800F0B490F850200E68012A49D00346294A5A
:103C580001201C6883F85000944208D05A6D002156
:103C680042F0200283F850105A65F0BC7047224D8C
:103C7800AA6852070AD5A2685A6D012042F02002AC
:103C88005A65002283F85020F0BC7047A06810F0F5
:103C98000400F1D1C6B1DFF868C04F68DCF808202D
:103CA80022F440423A43CCF80820A468AA68224388
:103CB800D40713D48A68DCF8084010491643214019
:103CC8000E43CCF80860DCE70D498A6822F44042CC
:103CD8008A60A068AA680243D00704D50020D0E70C
:103CE8000220F0BC70478C683046044A22408A6043
:103CF800C7E700BF0020024000210240E0F0FFFFBC
:103D08000023024007490002074BCA6800F4E0603C
:103D180010B44FF6FF0422405DF8044B10430343F0
:103D2800CB60704700ED00E00000FA05194BDB6836
:103D3800C3F3022330B4C3F107051C1D042D28BFAB
:103D48000425062C19D9033B4FF0FF349C4022EA86
:103D580004024FF0FF34002804FA05F421EA0401B4
:103D680001FA03F141EA02010ADB09010A4BC9B26F
:103D7800034483F8001330BC704700221346E8E779
:103D880000F00F000901054BC9B20344197630BC95
:103D9800704700BF00ED00E000E100E0FCEC00E04F
:103DA800002807DB00F01F0101234009024A8B406D
:103DB80042F82030704700BF00E100E000280DDB2A
:103DC8004309012200F01F000549203302FA00F0E0
:103DD80041F82300BFF34F8FBFF36F8F704700BFC9
:103DE80000E100E00138B0F1807F0DD2074B0022DE
:103DF800072130B4F025064C5860104684F823504B
:103E08009A60196030BC70470120704710E000E0EC
:103E180000ED00E0BFF35F8F044A00200449536AB5
:103E280023F4803353624860704700BF00ED00E020
:103E380090ED00E0064A40F00100064B5860536AD6
:103E480043F480335362BFF34F8FBFF36F8F7047D4
:103E580000ED00E090ED00E0124A437893600178AD
:103E6800E9B1436870B4D360C37A047B1B06857AD2
:103E7800867B43EA0473447B0B43017A43EAC543D8
:103E8800C57B43EA8443447A43EA464343EA05430D
:103E980043EA042343EA410370BC13617047D160CD
:103EA8001161704790ED00E0704700BF08B5FFF75B
:103EB800FBFF08BD88B110B50379044603F0FF0283
:103EC8003BB100230221012221711846236122718E
:103ED80010BD4271FEF75CFDF3E70120704700BF9B
:103EE8004279012A26D003460122006830B401F045
:103EF80010040225A2401D71046822430260026872
:103F080071B902F03E02AA4203D1426842F00102AE
:103F1800426000220121104619715A7130BC704765
:103F280002F47812B2F5003FF3D1426842F002027F
:103F38004260EEE70220704710B4006883B00024A6
:103F48000194019051B9019908310A440192019AEA
:103F58000020136003B05DF8044B704701991431D9
:103F68000A440192F3E700BF4379D1F800C0012B5E
:103F780000F096800223BCF1040F2DE9F0411646AB
:103F88004FF0010204460D46427103713ED006F01F
:103F980010020368296901292ED0EE680727A9684D
:103FA80007FA02F0DF6B31436D6827EA000740F635
:103FB800FE7641EA0C014FF48040954096409140CE
:103FC80090404FF0000C3943C027D96307FA02F13B
:103FD8001A68012722EA000260461A601A6822EA73
:103FE80006022A431A601A6822EA01021A60277137
:103FF80084F805C0BDE8F0811F26986B6969964072
:10400800914020EA060001439963C6E7D6B904F057
:104018003BFCDFF89080074604E004F035FCC01B49
:10402800012834D823685B6B13EA080FF5D1012007
:1040380004F030FC2368AA691A640DE004F024FC3B
:10404800012824D823685B6B002BF7DB012004F0E0
:1040580021FC2368AA695A6406F0100240F2FF3C6A
:10406800986CFF21EF690CFA02FC01FA02F6296A42
:1040780020EA0C009740D5F800C03843986401FA4C
:1040880002F0D96C21EA06010143D96482E7236969
:10409800032243F00803104623612271BDE8F08132
:1040A800022070470080002018B338B590F82C30F3
:1040B8000D46044603F0FF02B3B10223214684F8FB
:1040C8002C3051F8040B04F005FF2946D4E900020E
:1040D80004F03CFF084A01210020136843F0004324
:1040E800136084F82C1038BD80F82D20FDF7E0FC13
:1040F800E3E70120704700BF0040005270B590F818
:104108002C300546022BD8B204D000F0FB04012C59
:1041180001D0012070BD02230E46286885F82C3096
:1041280004F060FF3368022B03D0002085F82C4090
:1041380070BD0523002085F82C3070BD38B590F887
:104148002C300446022BD8B205D094F82C30012B21
:10415800DDB201D0012038BD0223206884F82C305C
:1041680004F052FF002084F82C5038BD70B5044686
:104178000D4616466A1C23682CD19A69900727D4E5
:104188009A69D106F9D59A699106FCD520221021A1
:10419800D961DA619A69900701D500229A629A6911
:1041A800D10703D49A6942F001029A615A68002142
:1041B8001B4E2025012032405A60636C84F8401061
:1041C80043F00403636484F8415084F8421070BDDE
:1041D800002070BD9A699207FAD49A69D0061BD458
:1041E80004F052FB801BA84201D8002DC2D1636C99
:1041F8002021002201200B4384F84020636484F8C6
:10420800411084F8422070BD04F03EFB801B8542BB
:10421800EDD3002DEBD0236899698A06F4D5B5E76C
:1042280000E800FE70B504460D46164623689969F5
:104238008A0649D49969CA0626D5681C38D19A696C
:104248009106FCD520221021D961DA619A6990077C
:1042580001D500229A629A69D10703D49A6942F07B
:1042680001029A615A680021184E20250120324027
:104278005A60636C84F8401043F00403636484F864
:10428800415084F8421070BD04F0FEFA801BA84229
:1042980001D8002DCAD1636C2021002201200B43D4
:1042A80084F84020636484F8411084F8422070BD8B
:1042B8009A699206C6D404F0E7FA801B8542EAD3CD
:1042C800002DE8D02368B8E7002070BD00E800FEA4
:1042D80000284DD0F8B590F84130044603F0FF02AD
:1042E800002B40D02421E068D4E9003284F8411042
:1042F8000128196822F0706221F0010119601A6121
:104308009A6822F400429A60A26828D042F40442D3
:1043180002289A6002D14FF400625A605A6800215C
:1043280014482027A6691043D4E9042558602A4375
:10433800D868E56942EA0622266A20F40040354337
:10434800D8600846DA601D601A6842F001021A60F7
:10435800616484F84170216384F84210F8BD42F426
:1043680000429A60DAE780F84020FDF729FEB9E7B5
:1043780001207047008000022DE9F047984690F828
:104388004130089E202B40F08A8090F84030044647
:10439800012B00F0848001238946174680F84030BD
:1043A80004F072FA054604E004F06EFA401B19287E
:1043B80078D82368986910F40040F5D1102221219B
:1043C800676284F8411084F842206064A4F82A8067
:1043D800628D606392B2FF2A72D8618DC9F30907B2
:1043E8005A68DFF838C189B24A4802EA0C025FFA13
:1043F80081FC21853A4342EA0C4210435860DFF8B9
:1044080024814FF0FF0ADFF82091638D2A46314658
:1044180020469BB2002B30D0FFF7A8FE002875D1AC
:10442800606A216810F8012B238D8A62628D013B36
:104438006062013A9BB292B223856285628D92B224
:10444800002BE2D1002AE0D0701C45D18B691A06F6
:10445800FCD5638D9BB2FF2B4AD94B682A46A4F83A
:1044680028A0204603EA08033B4343EA09034B60BC
:104478003146638D9BB2002BCED1FFF7D3FE0028C7
:1044880044D123682021244DD9615A682A405A60B2
:1044980084F8411084F8400084F8420000E00220CB
:1044A800BDE8F087636C2021002201200B4384F8CB
:1044B8004020636484F8411084F84220BDE8F08706
:1044C8005A68C9F309071549FF200A40144920858D
:1044D8003A431143596092E78B691B06B9D404F03B
:1044E800D3F9401B8642DDD3002EDBD02168ABE731
:1044F800628D4B6892B203EA0803D0B2228543EA80
:1045080000433B4343F000734B607EE70120BDE866
:10451800F08700BF0020008200E800FE009800FC41
:104528000020FF81009C00FC0000FF0190F8412062
:10453800202A21D1034670B4D5B290F84020012A30
:104548001CD01A682420002683F8410014683046DD
:1045580024F001041460146824F48054146014686E
:1045680021431160116841F00101116083F8415045
:1045780083F8406070BC704702207047022070BC0E
:10458800704700BF90F84120202A20D1034670B41C
:10459800D6B290F84020012A1BD01A6824200025A2
:1045A80083F841001468284624F001041460146854
:1045B80024F4706444EA01211160116841F001019A
:1045C800116083F8416083F8405070BC7047022046
:1045D8007047022070BC7047F0B44C6A82B014B1C6
:1045E800B2F1406F30D18B69002B34D00E6A002EA7
:1045F80059D0056823438F68C869EF61002800F027
:10460800AE8013430F690C68B2F1406F43EA0603AA
:10461800CE6843EA0003C86A43EA0003086B43EA2A
:10462800000348690190486B43EA0003019843EA94
:10463800070343EA060343EA040343EA80436B6142
:1046480060D04B68AB615DE08B6A0568013B2B610C
:104658008B69002BCAD10B6A002B44D00668234310
:104668008D68C869F561002869D013434D6B0F69DF
:10467800B2F1406F43EA0003C86ACC6843EA00031A
:10468800086B43EA0003486943EA050343EA070362
:1046980043EA040343EA8043736133D04B68B36150
:1046A80002B0F0BC7047CD69002D6CD0234306687A
:1046B800CC6AB2F1406F43EA02000F6B4B6B40EAE1
:1046C8000500CD6840EA04000C6840EA070040EAAB
:1046D80003004B6940EA050040EA040040EA8340D1
:1046E8007061DBD10EE0CB697BB95CB1CB6A006845
:1046F8002343D1E90C5413434A692B43234343EA28
:104708008243436102B0F0BC70472343CC6A0D6B0F
:10471800B2F1406F43EA0203006843EA04034C6BBA
:1047280043EA0503CD6843EA04034C6943EA0503F9
:1047380043EA84434361E5D04B688361E2E7D1E90A
:104748000B0513434C6B03432B43D1E9040223436A
:10475800034343EA8243736102B0F0BC70471343DA
:104768004F6B0C6933434A69D1E90B0C0343086862
:1047780043EA0C033B432343034343EA82436B610D
:1047880002B0F0BC70471C43CE6A006844EA0203DA
:104798000C684A693343D1E90C753B432B432343E7
:1047A80043EA8243436102B0F0BC7047F8B504465F
:1047B80004F06AF8002C55D094F84030012B53D0FF
:1047C8000123064684F8403094F8413003F0FF0294
:1047D800002B35D0A76C2368A1681A68013922F428
:1047E800706242EA01221A6001E07A1C32D19D68A7
:1047F80015F02005F9D1D4E90716E26828461F68A4
:104808000A43616832431D4E42EA01623E406169D3
:10481800A76932431A4E1A6041EA07025F682169A4
:104828003E4042EA0142012132435A601A680A4373
:104838001A60656484F84110002384F84030F8BD9C
:10484800204684F84020FCF7EBFF41F288331F46EE
:10485800A364C0E704F018F8801BB84206D82FB14B
:104868002368C4E70120F8BD0220F8BD0423012015
:1048780084F84130636C03436364DDE72FFFFF0076
:10488800FEF8E0FFC8B110B590F840300446012B9F
:1048980011D00268012380F84030136823F0010327
:1048A8001360FDF743F800236364184684F8413029
:1048B80084F8403010BD022010BD0120704700BFB1
:1048C8002DE9F04104460D46904603F0DDFF94F8CB
:1048D8004030012B3BD0012384F8403094F841301C
:1048E800012BDEB206D002260023304684F8403081
:1048F800BDE8F081002202230746626484F8413053
:10490800B8F1FF3F23680ED19A6812F02002FBD15C
:1049180029462046FFF760FE6B6AE3B101230026B3
:1049280084F84130E0E79A6812F020021ED003F0C4
:10493800ABFFC01B804502D3B8F1000FE0D10423C0
:1049480084F84130636C43F001036364CCE70226CA
:104958003046BDE8F081226893689B07FCD50221A8
:1049680001230026D16084F84130BDE7294620465E
:10497800FFF732FE6B6A43B1D0E703F085FFC01B37
:104988008045DCD3B8F1000FD9D022689368990725
:10499800F3D5E4E72DE9F84304468946154603F0C4
:1049A80073FF94F840302768012B67D0012384F8FF
:1049B800403094F84130012B5FFA83F807D04FF06C
:1049C80002080023404684F84030BDE8F8830023FD
:1049D8006364B9F1000F56D01223064684F84130BB
:1049E8003B690133E3623B69C4F824900133A36255
:1049F8007B6923F040637B61E36A002B31D0691C3B
:104A08003B4611D19A685207FCD5636A1B7887F830
:104A18002030E26A636A013A0133E262E26A636261
:104A2800F2B1691C2368EDD09B685807EDD403F0F8
:104A38002BFF801B854201D3002DF2D1042384F87B
:104A48004130636C43F00103636413E0BB689B0768
:104A58000CD403F019FF801B8542EFD3002DEDD055
:104A68002768691CF2D1BB689A07FCD502234FF06E
:104A78000008FB60012384F84130A2E74FF00208E8
:104A88004046BDE8F883636C43F00803636498E725
:104A98002DE9F84304461546894603F0F5FE2768D4
:104AA800BA6994F84030012B6CD0012384F8403067
:104AB80094F84130012B5FFA83F807D04FF00208D1
:104AC8000023404684F84030BDE8F883002363643F
:104AD800B9F1000F5BD02223064684F841303B69C8
:104AE8000133A3633B69C4F83090013363637B6986
:104AF80023F0406343F080637B61BA61A36B002BB2
:104B080033D0681C3B4612D19A6812F0060FFBD0CE
:104B180097F82020236B1A70A26B236B013A01339C
:104B2800A263A26B2363FAB1681C2368ECD09B686C
:104B380013F0060FECD103F0A7FE801B854201D3CA
:104B4800002DF1D1042384F84130636C43F0010354
:104B5800636413E0BB689B070CD403F095FE801BCD
:104B68008542EFD3002DEDD02768691CF2D1BB68D0
:104B78009A07FCD502234FF00008FB60012384F854
:104B880041309DE74FF002084046BDE8F883636C6A
:104B980043F00803636493E72DE9F84304461D4690
:104BA8000F46164603F070FE94F84030012B4FD0A4
:104BB800012384F8403094F84130012B5FFA83F8E0
:104BC80007D04FF002080023404684F84030BDE883
:104BD800F883002242238146626484F84130681CCD
:104BE800236829D19A689106FCD4326839467068DE
:104BF8009A62B2685862DA621A68306922F440022E
:104C0800D6F80CC042EA00064FF00062204646F48F
:104C180080061E60C7F828C0FFF7DEFC681C226803
:104C28001BD193681907FCD5082101234FF0000810
:104C3800D16084F84130C6E79A689206D5D503F06A
:104C480023FEA0EB0900854212D3002DC7D10FE047
:104C58004FF002084046BDE8F88393681B07E3D489
:104C680003F012FEA0EB0900854201D3002DD5D137
:104C7800042384F84130636C43F001036364A2E7C2
:104C88002DE9F84304460F46904603F0FDFD94F8DD
:104C98004030012B42D0012384F8403094F8413051
:104CA800012BDEB206D002260023304684F84030BD
:104CB800BDE8F883002282230546D4F84890626450
:104CC80084F84130B9F1FF3F226814D193689906FE
:104CD800FCD41368D8F8041023F00803082943EA21
:104CE800010313601ED039464FF04062204600266B
:104CF800FFF772FCD8E793689B06EAD503F0C4FD7A
:104D0800401B814502D3B9F1000FDBD1042384F89D
:104D18004130636C43F001036364C5E70226304603
:104D2800BDE8F883D8F8001010231163D360136826
:104D380043F480131360D6E7704700BF08B5006CD2
:104D480000238363C36290F84130082B0BD10368BA
:104D58000222DA601A6842F400321A601A6842F0D5
:104D680002021A6008BD012380F84130FFF7E4FF12
:104D780008BD00BF704700BF704700BF704700BF45
:104D8800704700BF704700BF704700BF704700BF43
:104D980038B5036804469A68196855070ED548035C
:104DA8000CD594F84120122A75D094F84120222A73
:104DB80000F0A1802046FFF7E5FF38BD950726D50E
:104DC800880324D50222DA601A6822F4E0221A60E5
:104DD80094F84120122A7AD094F84120222A00F02F
:104DE800A98094F84120022A00F0D08094F841204C
:104DF800082AE2D15A690121204622F040625A610C
:104E080084F84110636C3BBBFFF7B4FF38BD15074E
:104E180025D4D50735D5C80333D50125DD601A68F3
:104E280022F470221A60626C42F0020262641A680C
:104E3800520779D51A68E06B22F0040257491A60C4
:104E4800816503F07BFC0028B7D0636C204643F0F3
:104E58000403636484F84150FFF76EFF38BD08030C
:104E6800D7D50822DA601A68520206D51A680121D5
:104E780022F410221A6084F841102046FFF784FFBC
:104E880038BDD00699D5CA0297D510222046DA60D7
:104E9800FFF77CFF38BD9A6850078BD518460EE09F
:104EA800626A127883F82020E16A20680139626A10
:104EB800E1620132816862624D077FF57BAFE26A89
:104EC800002AEDD1036823F48023036072E71A688F
:104ED800510709D51A68E16B22F0040209681A60C3
:104EE800CB6823F00103CB600123204684F84130CE
:104EF800FFF746FF38BD9A6852077FF55BAF184643
:104F08000EE093F82010226B1170A16B2068013914
:104F1800226BA16301328168226349077FF54AAF9A
:104F2800A26B002AEDD1CDE7204684F84150FFF767
:104F380003FF38BD1A6852071DD49A6812F47C5FC3
:104F48000FD111E093F82010226B1170A16B20682B
:104F58000139226BA16301328168226311F47C5FFD
:104F680002D0A26B002AEDD10123204684F84130FB
:104F7800FFF704FF38BD1A68E16B22F004020968E4
:104F88001A60CB6823F00103CB60EDE701232046CC
:104F980084F84130FFF7F0FE38BD00BF454D0008EA
:104FA800B24B016899422DE9F04105461FD02033E4
:104FB80099421CD003F57873994259D0203399420D
:104FC80056D003F57873994200F020812033994236
:104FD80000F01C8195F89130A54E03F0FF026BB9E3
:104FE800284685F89020FDF711FA296806E0A14EB9
:104FF80095F8913003F0FF02002BF1D09E4B9F48AB
:105008001B680A68A0FB030322F480321B0B0A60AA
:105018009B0023B30C68013B14F48034F9D1EB688E
:105028000222012B85F8912000F01A81934219BFC2
:10503800174603202320222715BF4FF0010C4FF0FD
:10504800210C00222022AB68013B042B00F257817F
:10505800DFE813F0D1001100D8001000D400D5F813
:105068009430012043F04003C5F89430BDE8F08146
:10507800834EBDE73A464FF400682B6A3260002B36
:1050880044D07A4B994200F029817E48081AB0FA38
:1050980080F04009002840F021817B4B994200F0C4
:1050A80017812033994200F01381784B994200F020
:1050B80009812033994200F00581754B994200F02F
:1050C8001381744B994200F01581AB69B3F5002F39
:1050D80000F0EE80AB6A00EB80002A6AB3F1806FC3
:1050E8004FEA40030CBF0221012102FB01F2120228
:1050F800B3FBF2F3684AA2FB0312D20802EB820167
:10510800A3EB4103092B08BF01326A626B6833F0D5
:1051180002032B6D40F09F80012B14BF4FF40074E5
:10512800002403F0C9FB6B68B0F5005FD5E91112E4
:1051380043EA01037FD31A43EB6CE96A1A43A8696F
:105148002B680A436969AF6A0A431968D5F824C00D
:10515800024352483A430840296918600A431968CB
:105168004FF220004E4F0A4342EA0C5242EA08022C
:1051780022434C4C1A605968EA690C40296B114368
:105188006A6B5C6011435C686A6E2143EC6D224374
:105198002C6E5960224399686C6D0F40A96D013CD3
:1051A80001399F6022439C6842EA0122A96E22438A
:1051B800EC6E9A6041EA0402D9686C6F0840296F66
:1051C80042EA0442294C0139D860D868A34242EA2D
:1051D800012242EA0002DA601AD02D4A934217D01F
:1051E80000230122C5F89430184685F8903085F8D8
:1051F8009120BDE8F0814FF480683EE702464FF405
:1052080000683AE762464FF4006836E7264EEFE654
:10521800736C23F00103736495F83830012BDFD1E8
:10522800D5E90F23013A43EA02137364736C43F020
:1052380001037364D4E7E96C1A4368690A43E96AAD
:105248002B680A43AF691968024318483A43084073
:10525800D5E909C181E7012B08BF4FF4007460E765
:10526800132012274FF0110C1022ECE604580140CD
:105278000054005800580140040000241BECCB9552
:10528800005C014024580140045C01400460014076
:105298000454005824540058CDCCCCCC10C005F090
:1052A8000080F8FFF01FFFFF0060014010C005F804
:1052B80000EB8000296A6A6D430002FB01F2B3FB30
:1052C800F2F317E74FF4007001F08AFF2968F4E65B
:1052D8004FF4007001F084FF2968E6E64FF480700F
:1052E80001F07EFF2968D8E64FF4806001F078FF6E
:1052F8002968E6E64FF4006001F072FFE5E64FF03A
:105308000008BAE60229F8B5044635D9C81E0128AE
:1053180030D8656800204FF40036236735F0020561
:105328004FF4802560640CBF0127074604294FF617
:10533800FF7127650CBF01270D27E064E065A765AD
:10534800A0666167C4E91865032A13D8DFE802F08C
:10535800484F553723684B4A934205D002F1C05253
:10536800A2F58232934205D16368012B02D1636CA6
:10537800002B30D00120F8BD45680020236735F0A8
:1053880002056064E0644FF4803508BF0646A066F5
:105398004FF6FF7018BF0126E565606713F001003E
:1053A8002665E7D14D1E012D2ED84FF40035C4E9EE
:1053B8001850032ADED8DFE802F05A4B3B315B0174
:1053C800E02180226365A164E26603F075FA94F82F
:1053D8003830012BBED02046BDE8F840FFF7E0BDCD
:1053E8001B01802140226365A164E266EDE780220B
:1053F8005B01A2646365E266E7E75B01C021802286
:105408006365A164E266E0E74FF48025C4E9180506
:10541800032AAFD8DFE802F02B1C0C025B08E0205F
:1054280080219A01A0645B01E166C4E91523CCE7F9
:105438005B08C025802002294FEA8312A5644FEA41
:105448004313E066C4E91523BFD10823A366BCE76C
:105458005B08802202294FEA8310A2644FEA4313B3
:10546800E266C4E91503B0D11023A366ADE75B0873
:10547800802040215A01A0641B01E166C4E915237C
:10548800A3E700BF04580140002800F08680F8B563
:1054980090F83D30044603F0FF02002B5FD02268ED
:1054A80002233F49B2F1804F84F83D30A2EB01015D
:1054B8001368B1FA81F14FEA511126D029BB394856
:1054C800824222D000F5806082421ED0364F374D8E
:1054D800D71BAA42B7FA87F74FEA571744D0002FCD
:1054E80042D1334833498A4218BF824247D001F536
:1054F80080618A4243D0A16923F08003E0680B43AE
:1055080061681360D062916223E0274F23F0700333
:10551800A568D71B2B43B7FA87F77F09206923F4BF
:105528004073A5690343E668606823F080032B4352
:105538001360D662906251B94FB91D491D4B9A420A
:1055480018BF8A4203D003F580639A4201D1636988
:10555800136301230020536184F83D30F8BD80F8BF
:105568003C20FDF7A5FA9AE7104823F07003A568D8
:10557800824243EA0503D1D0002FCFD1B1E7216998
:1055880023F44073A5690B43E068616823F0800346
:105598002B431360D0629162CFE70120704700BFB0
:1055A800000001400004004000040140000C0040DD
:1055B800004001400044014090F83C30012B7DD070
:1055C800024602230068F0B4012482F83D3082F8D4
:1055D8003C40544C85680B682C40602B84606FD02D
:1055E8001DD9B3F5005F59D042D94F498B4206D037
:1055F80038D94E498B4202D010318B4206D184688B
:105608004B4921400B4343F00703836000230121EA
:10561800184682F83D1082F83C30F0BC7047402BA9
:1056280067D019D9502BF1D1036A056A4C6823F069
:105638000A0325F00105CE681C433D4B05628169CC
:1056480021F0F00141EA06118161046281680B4092
:1056580043F057038360D9E7202BD0D01AD9302BD9
:10566800D4D1CCE723F01001B1F5801FCED1C6E725
:10567800702BCBD1CC68D1E9015381682B4321F43D
:105688007F4143EA04230B438360836843F0770335
:105698008360BBE733F01001B8D1B0E7D1E901531B
:1056A800CC682B43816843EA042321F47F410B43F0
:1056B8008360836843F480438360A7E702207047D0
:1056C800056A4E6825F01005CF68194B0562846994
:1056D800016A24F4704421F0A00144EA073441EA45
:1056E80006118461016281680B4043F0670383609F
:1056F8008CE7036A056A4C6823F00A0325F0010564
:10570800CE681C430A4B0562816921F0F00141EA29
:1057180006118161046281680B4043F0470383608E
:1057280074E700BF8800CEFF200010003000100092
:105738008FFFCFFF90F83C20012A26D00222034693
:1057480070B40468124D80F83D20AC426268A068CD
:1057580016D005F58065AC4212D00D6820F08000A7
:10576800896822F0700201262A43014300256260FD
:105778002846A16083F83D6083F83C5070BC7047B0
:1057880022F470024D682A43E7E70220704700BF01
:1057980000000140002800F0EA81F8B503680446DB
:1057A800D9072ED5B2490A69896A02F03802102A47
:1057B80000F00481182A00F0FC806368B3F5803F8C
:1057C80000F02481002B00F06281B3F5A02FA84BD4
:1057D8001A6800F03C8222F480321A601A6822F4B7
:1057E80080221A6003F050F8A14E054605E003F048
:1057F8004BF8401B642800F2488133689B03F6D5B8
:105808002368980700F18980D90630D5984A13692A
:10581800926A03F03803082B00F0E080182B00F0A0
:10582800D880E369002B00F06F81914B1A681E46FF
:1058380042F080021A6003F027F8054605E003F0FD
:1058480023F8401B022800F220813368DB05F6D5D7
:1058580003F032F841F20303984200F21A827368A7
:10586800226A23F0F84343EA8263736023681D07C2
:1058780017D56369002B00F021817D4B5A6F1E46B6
:1058880042F001025A6702F0FFFF054605E002F008
:10589800FBFF401B022800F2F880736F9807F6D5CB
:1058A80023689A0617D5A369002B00F01A81704B5C
:1058B8001A681E4642F480521A6002F0E5FF054657
:1058C80005E002F0E1FF401B022800F2DE803368A9
:1058D8009F04F6D52368590700F19E80636AD3B107
:1058E800634A116901F03801182970D0022B136836
:1058F800154623F08073136000F0438102F0C4FF63
:10590800044605E002F0C0FF001B022800F2BD803B
:105918002B689B01F6D40020F8BD554A1369926A9A
:1059280013F038032AD1524BE1681B685A0701D596
:1059380000294CD04E4A1368164623F019030B432E
:10594800136002F0A1FF054605E002F09DFF401B31
:10595800022800F29A8033685B07F6D502F0ACFFA4
:1059680041F2030322699842736800F2F98023F434
:105978007C3343EA02337360236845E7182B00F051
:10598800EB80E268002A00F0D38039490B680E46A4
:1059980023F0190313430B6002F076FF054604E079
:1059A80002F072FF401B02286FD833685F07F7D5F3
:1059B800D4E701F0030102297FF4FFAE2C4A1268F4
:1059C80092037FF51EAF6268002A7FF41AAF0120A8
:1059D800F8BD02F00302012A7FF423AF244B1B68B1
:1059E800DA0502D5E369802BF1D102F065FF41F2B7
:1059F80003031F4A9842216A00F2BB80536823F0D0
:105A0800F84343EA81635360236830E7184A136810
:105A180043F480331360E5E6164B1A681E4642F4D9
:105A280080721A6002F030FF054604E002F02CFF95
:105A3800401B642829D83368DA05F7D5A368012BF9
:105A480000F03081002B00F00A81052B084B1A6FFB
:105A580000F02E8122F001021A671A6F22F0040268
:105A68001A6702F011FF024E41F28837054608E036
:105A7800004402580048025802F006FF401BB84292
:105A880003D8336F9B07F7D528E70320F8BD8C4B65
:105A98001A681E4622F480321A601A6822F480229C
:105AA8001A6002F0F1FE054604E002F0EDFE401B2C
:105AB8006428EAD833689F03F7D4A1E6804B5A6F6D
:105AC8001E4622F001025A6702F0DEFE054604E097
